ARM GAS  C:\Users\a\AppData\Local\Temp\cczTkbWd.s 			page 1


   1              		.cpu cortex-m0
   2              		.fpu softvfp
   3              		.eabi_attribute 20, 1
   4              		.eabi_attribute 21, 1
   5              		.eabi_attribute 23, 3
   6              		.eabi_attribute 24, 1
   7              		.eabi_attribute 25, 1
   8              		.eabi_attribute 26, 1
   9              		.eabi_attribute 30, 1
  10              		.eabi_attribute 34, 0
  11              		.eabi_attribute 18, 4
  12              		.code	16
  13              		.file	"alex_BLE_gatt.c"
  14              		.text
  15              	.Ltext0:
  16              		.cfi_sections	.debug_frame
  17              		.section	.text.CyBle_GattsReInitGattDb,"ax",%progbits
  18              		.align	2
  19              		.global	CyBle_GattsReInitGattDb
  20              		.code	16
  21              		.thumb_func
  22              		.type	CyBle_GattsReInitGattDb, %function
  23              	CyBle_GattsReInitGattDb:
  24              	.LFB2:
  25              		.file 1 ".\\Generated_Source\\PSoC4\\alex_BLE_gatt.c"
   1:.\Generated_Source\PSoC4/alex_BLE_gatt.c **** /***************************************************************************//**
   2:.\Generated_Source\PSoC4/alex_BLE_gatt.c **** * \file CYBLE_gatt.c
   3:.\Generated_Source\PSoC4/alex_BLE_gatt.c **** * \version 2.30
   4:.\Generated_Source\PSoC4/alex_BLE_gatt.c **** * 
   5:.\Generated_Source\PSoC4/alex_BLE_gatt.c **** * \brief
   6:.\Generated_Source\PSoC4/alex_BLE_gatt.c **** *  This file contains the source code for the GATT API of the BLE Component.
   7:.\Generated_Source\PSoC4/alex_BLE_gatt.c **** * 
   8:.\Generated_Source\PSoC4/alex_BLE_gatt.c **** ********************************************************************************
   9:.\Generated_Source\PSoC4/alex_BLE_gatt.c **** * \copyright
  10:.\Generated_Source\PSoC4/alex_BLE_gatt.c **** * Copyright 2014-2015, Cypress Semiconductor Corporation.  All rights reserved.
  11:.\Generated_Source\PSoC4/alex_BLE_gatt.c **** * You may use this file only in accordance with the license, terms, conditions,
  12:.\Generated_Source\PSoC4/alex_BLE_gatt.c **** * disclaimers, and limitations in the end user license agreement accompanying
  13:.\Generated_Source\PSoC4/alex_BLE_gatt.c **** * the software package with which this file was provided.
  14:.\Generated_Source\PSoC4/alex_BLE_gatt.c **** *******************************************************************************/
  15:.\Generated_Source\PSoC4/alex_BLE_gatt.c **** 
  16:.\Generated_Source\PSoC4/alex_BLE_gatt.c **** 
  17:.\Generated_Source\PSoC4/alex_BLE_gatt.c **** #include "alex_BLE_eventHandler.h"
  18:.\Generated_Source\PSoC4/alex_BLE_gatt.c **** 
  19:.\Generated_Source\PSoC4/alex_BLE_gatt.c **** 
  20:.\Generated_Source\PSoC4/alex_BLE_gatt.c **** /***************************************
  21:.\Generated_Source\PSoC4/alex_BLE_gatt.c **** * Global variables
  22:.\Generated_Source\PSoC4/alex_BLE_gatt.c **** ***************************************/
  23:.\Generated_Source\PSoC4/alex_BLE_gatt.c **** 
  24:.\Generated_Source\PSoC4/alex_BLE_gatt.c **** CYBLE_STATE_T cyBle_state;
  25:.\Generated_Source\PSoC4/alex_BLE_gatt.c **** 
  26:.\Generated_Source\PSoC4/alex_BLE_gatt.c **** 
  27:.\Generated_Source\PSoC4/alex_BLE_gatt.c **** #if(CYBLE_MODE_PROFILE)
  28:.\Generated_Source\PSoC4/alex_BLE_gatt.c ****     #if defined(__ARMCC_VERSION)
  29:.\Generated_Source\PSoC4/alex_BLE_gatt.c ****         CY_ALIGN(CYDEV_FLS_ROW_SIZE) const CY_BLE_FLASH_STORAGE cyBle_flashStorage CY_SECTION(".cy_
  30:.\Generated_Source\PSoC4/alex_BLE_gatt.c ****     #elif defined (__GNUC__)
  31:.\Generated_Source\PSoC4/alex_BLE_gatt.c ****         const CY_BLE_FLASH_STORAGE cyBle_flashStorage CY_SECTION(".cy_checksum_exclude")
  32:.\Generated_Source\PSoC4/alex_BLE_gatt.c ****             CY_ALIGN(CYDEV_FLS_ROW_SIZE) =
ARM GAS  C:\Users\a\AppData\Local\Temp\cczTkbWd.s 			page 2


  33:.\Generated_Source\PSoC4/alex_BLE_gatt.c ****     #elif defined (__ICCARM__)
  34:.\Generated_Source\PSoC4/alex_BLE_gatt.c ****         #pragma data_alignment=CY_FLASH_SIZEOF_ROW
  35:.\Generated_Source\PSoC4/alex_BLE_gatt.c ****         #pragma location=".cy_checksum_exclude"
  36:.\Generated_Source\PSoC4/alex_BLE_gatt.c ****         const CY_BLE_FLASH_STORAGE cyBle_flashStorage =
  37:.\Generated_Source\PSoC4/alex_BLE_gatt.c ****     #endif  /* (__ARMCC_VERSION) */
  38:.\Generated_Source\PSoC4/alex_BLE_gatt.c ****     {
  39:.\Generated_Source\PSoC4/alex_BLE_gatt.c ****         { 0x00u, 0x00u, 0x00u, 0x00u, 0x00u, 0x00u, 0x00u, 0x00u, 0x00u, 0x00u, 0x00u, 0x00u, 0x00u
  40:.\Generated_Source\PSoC4/alex_BLE_gatt.c ****         0x00u, 0x00u, 0x00u, 0x00u, 0x00u, 0x00u, 0x00u, 0x00u, 0x00u, 0x00u, 0x00u, 0x00u, 0x00u, 
  41:.\Generated_Source\PSoC4/alex_BLE_gatt.c ****         0x00u, 0x00u, 0x00u, 0x00u, 0x00u, 0x00u, 0x00u, 0x00u, 0x00u, 0x00u, 0x00u, 0x00u, 0x00u, 
  42:.\Generated_Source\PSoC4/alex_BLE_gatt.c ****         0x00u, 0x00u, 0x00u, 0x00u, 0x00u, 0x00u, 0x00u, 0x00u, 0x00u, 0x00u, 0x00u, 0x00u, 0x00u, 
  43:.\Generated_Source\PSoC4/alex_BLE_gatt.c ****         0x00u, 0x00u, 0x00u, 0x00u, 0x00u, 0x00u, 0x00u, 0x00u, 0x00u, 0x00u, 0x00u, 0x00u, 0x00u, 
  44:.\Generated_Source\PSoC4/alex_BLE_gatt.c ****         0x00u, 0x00u, 0x00u, 0x00u, 0x00u, 0x00u, 0x00u, 0x00u, 0x00u, 0x00u, 0x00u, 0x00u, 0x00u, 
  45:.\Generated_Source\PSoC4/alex_BLE_gatt.c ****         0x00u, 0x00u, 0x00u, 0x00u, 0x00u, 0x00u, 0x00u, 0x00u, 0x00u, 0x00u, 0x00u, 0x00u, 0x00u, 
  46:.\Generated_Source\PSoC4/alex_BLE_gatt.c ****         0x00u, 0x00u, 0x00u, 0x00u, 0x00u, 0x00u, 0x00u, 0x00u, 0x00u, 0x00u, 0x00u, 0x00u, 0x00u, 
  47:.\Generated_Source\PSoC4/alex_BLE_gatt.c ****         0x00u, 0x00u, 0x00u, 0x00u, 0x00u, 0x00u, 0x00u, 0x00u, 0x00u, 0x00u, 0x00u, 0x00u, 0x00u, 
  48:.\Generated_Source\PSoC4/alex_BLE_gatt.c ****         0x00u, 0x00u, 0x00u, 0x00u, 0x00u, 0x00u, 0x00u, 0x00u, 0x00u, 0x00u, 0x00u, 0x00u, 0x00u, 
  49:.\Generated_Source\PSoC4/alex_BLE_gatt.c ****         0x00u, 0x00u, 0x00u, 0x00u, 0x00u, 0x00u, 0x00u, 0x00u, 0x00u, 0x00u, 0x00u, 0x00u, 0x00u, 
  50:.\Generated_Source\PSoC4/alex_BLE_gatt.c ****         0x00u, 0x00u, 0x00u, 0x00u, 0x00u, 0x00u, 0x00u, 0x00u, 0x00u, 0x00u, 0x00u, 0x00u, 0x00u, 
  51:.\Generated_Source\PSoC4/alex_BLE_gatt.c ****         0x00u, 0x00u, 0x00u, 0x00u, 0x00u, 0x00u, 0x00u, 0x00u, 0x00u, 0x00u, 0x00u, 0x00u, 0x00u, 
  52:.\Generated_Source\PSoC4/alex_BLE_gatt.c ****         0x00u, 0x00u, 0x00u, 0x00u, 0x00u, 0x00u, 0x00u, 0x00u, 0x00u, 0x00u, 0x00u, 0x00u, 0x00u, 
  53:.\Generated_Source\PSoC4/alex_BLE_gatt.c ****         0x00u, 0x00u, 0x00u, 0x00u, 0x00u, 0x00u, 0x00u, 0x00u, 0x00u, 0x00u, 0x00u, 0x00u, 0x00u, 
  54:.\Generated_Source\PSoC4/alex_BLE_gatt.c ****         0x00u, 0x00u, 0x00u, 0x00u, 0x00u, 0x00u, 0x00u, 0x00u, 0x00u, 0x00u, 0x00u, 0x00u, 0x00u, 
  55:.\Generated_Source\PSoC4/alex_BLE_gatt.c ****         0x00u, 0x00u, 0x00u, 0x00u, 0x00u, 0x00u, 0x00u, 0x00u, 0x00u, 0x00u, 0x00u, 0x00u, 0x00u, 
  56:.\Generated_Source\PSoC4/alex_BLE_gatt.c ****         0x00u, 0x00u, 0x00u, 0x00u, 0x00u, 0x00u, 0x00u, 0x00u, 0x00u, 0x00u, 0x00u, 0x00u, 0x00u, 
  57:.\Generated_Source\PSoC4/alex_BLE_gatt.c ****         0x00u, 0x00u, 0x00u, 0x00u, 0x00u, 0x00u, 0x00u, 0x00u, 0x00u, 0x00u, 0x00u, 0x00u, 0x00u, 
  58:.\Generated_Source\PSoC4/alex_BLE_gatt.c ****         0x00u, 0x00u, 0x00u, 0x00u, 0x00u, 0x00u, 0x00u, 0x00u, 0x00u, 0x00u, 0x00u, 0x00u, 0x00u, 
  59:.\Generated_Source\PSoC4/alex_BLE_gatt.c ****         0x00u, 0x00u, 0x00u, 0x00u, 0x00u, 0x00u, 0x00u, 0x00u, 0x00u, 0x00u, 0x00u, 0x00u, 0x00u, 
  60:.\Generated_Source\PSoC4/alex_BLE_gatt.c ****         0x00u, 0x00u, 0x00u, 0x00u, 0x00u, 0x00u, 0x00u, 0x00u, 0x00u, 0x00u, 0x00u, 0x00u, 0x00u, 
  61:.\Generated_Source\PSoC4/alex_BLE_gatt.c ****         0x00u, 0x00u, 0x00u, 0x00u, 0x00u, 0x00u, 0x00u, 0x00u, 0x00u, 0x00u, 0x00u, 0x00u, 0x00u, 
  62:.\Generated_Source\PSoC4/alex_BLE_gatt.c ****         {{
  63:.\Generated_Source\PSoC4/alex_BLE_gatt.c ****             0x00u, 0x00u, 
  64:.\Generated_Source\PSoC4/alex_BLE_gatt.c ****         },
  65:.\Generated_Source\PSoC4/alex_BLE_gatt.c ****         {
  66:.\Generated_Source\PSoC4/alex_BLE_gatt.c ****             0x00u, 0x00u, 
  67:.\Generated_Source\PSoC4/alex_BLE_gatt.c ****         },
  68:.\Generated_Source\PSoC4/alex_BLE_gatt.c ****         {
  69:.\Generated_Source\PSoC4/alex_BLE_gatt.c ****             0x00u, 0x00u, 
  70:.\Generated_Source\PSoC4/alex_BLE_gatt.c ****         },
  71:.\Generated_Source\PSoC4/alex_BLE_gatt.c ****         {
  72:.\Generated_Source\PSoC4/alex_BLE_gatt.c ****             0x00u, 0x00u, 
  73:.\Generated_Source\PSoC4/alex_BLE_gatt.c ****         },
  74:.\Generated_Source\PSoC4/alex_BLE_gatt.c ****         {
  75:.\Generated_Source\PSoC4/alex_BLE_gatt.c ****             0x00u, 0x00u, 
  76:.\Generated_Source\PSoC4/alex_BLE_gatt.c ****         }}, 
  77:.\Generated_Source\PSoC4/alex_BLE_gatt.c ****         0x02u, /* CYBLE_GATT_DB_CCCD_COUNT */ 
  78:.\Generated_Source\PSoC4/alex_BLE_gatt.c ****         0x05u, /* CYBLE_GAP_MAX_BONDED_DEVICE */ 
  79:.\Generated_Source\PSoC4/alex_BLE_gatt.c ****     };
  80:.\Generated_Source\PSoC4/alex_BLE_gatt.c **** #endif /* (CYBLE_MODE_PROFILE) */
  81:.\Generated_Source\PSoC4/alex_BLE_gatt.c **** 
  82:.\Generated_Source\PSoC4/alex_BLE_gatt.c **** 
  83:.\Generated_Source\PSoC4/alex_BLE_gatt.c **** #if(CYBLE_GATT_ROLE_SERVER)
  84:.\Generated_Source\PSoC4/alex_BLE_gatt.c ****     
  85:.\Generated_Source\PSoC4/alex_BLE_gatt.c ****     const CYBLE_GATTS_T cyBle_gatts =
  86:.\Generated_Source\PSoC4/alex_BLE_gatt.c **** {
  87:.\Generated_Source\PSoC4/alex_BLE_gatt.c ****     0x0008u,    /* Handle of the GATT service */
  88:.\Generated_Source\PSoC4/alex_BLE_gatt.c ****     0x000Au,    /* Handle of the Service Changed characteristic */
  89:.\Generated_Source\PSoC4/alex_BLE_gatt.c ****     0x000Bu,    /* Handle of the Client Characteristic Configuration descriptor */
ARM GAS  C:\Users\a\AppData\Local\Temp\cczTkbWd.s 			page 3


  90:.\Generated_Source\PSoC4/alex_BLE_gatt.c **** };
  91:.\Generated_Source\PSoC4/alex_BLE_gatt.c ****     
  92:.\Generated_Source\PSoC4/alex_BLE_gatt.c ****     static uint8 cyBle_attValues[0x27u] = {
  93:.\Generated_Source\PSoC4/alex_BLE_gatt.c ****     /* Device Name */
  94:.\Generated_Source\PSoC4/alex_BLE_gatt.c ****     (uint8)'a', (uint8)'l', (uint8)'e', (uint8)'x', (uint8)'_', (uint8)'m', (uint8)'o', (uint8)'t',
  95:.\Generated_Source\PSoC4/alex_BLE_gatt.c **** (uint8)'_', (uint8)'c', (uint8)'o', (uint8)'n', (uint8)'t', (uint8)'r', (uint8)'o', (uint8)'l', 
  96:.\Generated_Source\PSoC4/alex_BLE_gatt.c **** 
  97:.\Generated_Source\PSoC4/alex_BLE_gatt.c ****     /* Appearance */
  98:.\Generated_Source\PSoC4/alex_BLE_gatt.c ****     0x00u, 0x00u, 
  99:.\Generated_Source\PSoC4/alex_BLE_gatt.c **** 
 100:.\Generated_Source\PSoC4/alex_BLE_gatt.c ****     /* Peripheral Preferred Connection Parameters */
 101:.\Generated_Source\PSoC4/alex_BLE_gatt.c ****     0x3Cu, 0x00u, 0x40u, 0x00u, 0x00u, 0x00u, 0xE8u, 0x03u, 
 102:.\Generated_Source\PSoC4/alex_BLE_gatt.c **** 
 103:.\Generated_Source\PSoC4/alex_BLE_gatt.c ****     /* Service Changed */
 104:.\Generated_Source\PSoC4/alex_BLE_gatt.c ****     0x00u, 0x00u, 0x00u, 0x00u, 
 105:.\Generated_Source\PSoC4/alex_BLE_gatt.c **** 
 106:.\Generated_Source\PSoC4/alex_BLE_gatt.c ****     /* onRoff */
 107:.\Generated_Source\PSoC4/alex_BLE_gatt.c ****     0x00u, 
 108:.\Generated_Source\PSoC4/alex_BLE_gatt.c **** 
 109:.\Generated_Source\PSoC4/alex_BLE_gatt.c ****     /* Characteristic User Description */
 110:.\Generated_Source\PSoC4/alex_BLE_gatt.c ****     (uint8)'o', (uint8)'n', (uint8)'R', (uint8)'o', (uint8)'f', (uint8)'f', 
 111:.\Generated_Source\PSoC4/alex_BLE_gatt.c **** 
 112:.\Generated_Source\PSoC4/alex_BLE_gatt.c **** };
 113:.\Generated_Source\PSoC4/alex_BLE_gatt.c **** uint8 cyBle_attValuesCCCD[CYBLE_GATT_DB_CCCD_COUNT];
 114:.\Generated_Source\PSoC4/alex_BLE_gatt.c **** 
 115:.\Generated_Source\PSoC4/alex_BLE_gatt.c **** const uint8 cyBle_attUuid128[][16u] = {
 116:.\Generated_Source\PSoC4/alex_BLE_gatt.c ****     /* motor_control */
 117:.\Generated_Source\PSoC4/alex_BLE_gatt.c ****     { 0x31u, 0x01u, 0x9Bu, 0x5Fu, 0x80u, 0x00u, 0x00u, 0x80u, 0x00u, 0x10u, 0x00u, 0x00u, 0x29u, 0x
 118:.\Generated_Source\PSoC4/alex_BLE_gatt.c ****     /* onRoff */
 119:.\Generated_Source\PSoC4/alex_BLE_gatt.c ****     { 0x31u, 0x01u, 0x9Bu, 0x5Fu, 0x80u, 0x00u, 0x00u, 0x80u, 0x00u, 0x10u, 0x00u, 0x00u, 0x92u, 0x
 120:.\Generated_Source\PSoC4/alex_BLE_gatt.c **** };
 121:.\Generated_Source\PSoC4/alex_BLE_gatt.c **** 
 122:.\Generated_Source\PSoC4/alex_BLE_gatt.c **** CYBLE_GATTS_ATT_GEN_VAL_LEN_T cyBle_attValuesLen[CYBLE_GATT_DB_ATT_VAL_COUNT] = {
 123:.\Generated_Source\PSoC4/alex_BLE_gatt.c ****     { 0x0012u, (void *)&cyBle_attValues[0] }, /* Device Name */
 124:.\Generated_Source\PSoC4/alex_BLE_gatt.c ****     { 0x0002u, (void *)&cyBle_attValues[18] }, /* Appearance */
 125:.\Generated_Source\PSoC4/alex_BLE_gatt.c ****     { 0x0008u, (void *)&cyBle_attValues[20] }, /* Peripheral Preferred Connection Parameters */
 126:.\Generated_Source\PSoC4/alex_BLE_gatt.c ****     { 0x0004u, (void *)&cyBle_attValues[28] }, /* Service Changed */
 127:.\Generated_Source\PSoC4/alex_BLE_gatt.c ****     { 0x0002u, (void *)&cyBle_attValuesCCCD[0] }, /* Client Characteristic Configuration */
 128:.\Generated_Source\PSoC4/alex_BLE_gatt.c ****     { 0x0010u, (void *)&cyBle_attUuid128[0] }, /* motor_control UUID */
 129:.\Generated_Source\PSoC4/alex_BLE_gatt.c ****     { 0x0010u, (void *)&cyBle_attUuid128[1] }, /* onRoff UUID */
 130:.\Generated_Source\PSoC4/alex_BLE_gatt.c ****     { 0x0001u, (void *)&cyBle_attValues[32] }, /* onRoff */
 131:.\Generated_Source\PSoC4/alex_BLE_gatt.c ****     { 0x0006u, (void *)&cyBle_attValues[33] }, /* Characteristic User Description */
 132:.\Generated_Source\PSoC4/alex_BLE_gatt.c **** };
 133:.\Generated_Source\PSoC4/alex_BLE_gatt.c **** 
 134:.\Generated_Source\PSoC4/alex_BLE_gatt.c **** const CYBLE_GATTS_DB_T cyBle_gattDB[0x0Fu] = {
 135:.\Generated_Source\PSoC4/alex_BLE_gatt.c ****     { 0x0001u, 0x2800u /* Primary service                     */, 0x00000001u /*        */, 0x0007u
 136:.\Generated_Source\PSoC4/alex_BLE_gatt.c ****     { 0x0002u, 0x2803u /* Characteristic                      */, 0x00000201u /* rd     */, 0x0003u
 137:.\Generated_Source\PSoC4/alex_BLE_gatt.c ****     { 0x0003u, 0x2A00u /* Device Name                         */, 0x00000201u /* rd     */, 0x0003u
 138:.\Generated_Source\PSoC4/alex_BLE_gatt.c ****     { 0x0004u, 0x2803u /* Characteristic                      */, 0x00000201u /* rd     */, 0x0005u
 139:.\Generated_Source\PSoC4/alex_BLE_gatt.c ****     { 0x0005u, 0x2A01u /* Appearance                          */, 0x00000201u /* rd     */, 0x0005u
 140:.\Generated_Source\PSoC4/alex_BLE_gatt.c ****     { 0x0006u, 0x2803u /* Characteristic                      */, 0x00000201u /* rd     */, 0x0007u
 141:.\Generated_Source\PSoC4/alex_BLE_gatt.c ****     { 0x0007u, 0x2A04u /* Peripheral Preferred Connection Par */, 0x00000201u /* rd     */, 0x0007u
 142:.\Generated_Source\PSoC4/alex_BLE_gatt.c ****     { 0x0008u, 0x2800u /* Primary service                     */, 0x00000001u /*        */, 0x000Bu
 143:.\Generated_Source\PSoC4/alex_BLE_gatt.c ****     { 0x0009u, 0x2803u /* Characteristic                      */, 0x00002201u /* rd,ind */, 0x000Bu
 144:.\Generated_Source\PSoC4/alex_BLE_gatt.c ****     { 0x000Au, 0x2A05u /* Service Changed                     */, 0x00002201u /* rd,ind */, 0x000Bu
 145:.\Generated_Source\PSoC4/alex_BLE_gatt.c ****     { 0x000Bu, 0x2902u /* Client Characteristic Configuration */, 0x00000A04u /* rd,wr  */, 0x000Bu
 146:.\Generated_Source\PSoC4/alex_BLE_gatt.c ****     { 0x000Cu, 0x2800u /* Primary service                     */, 0x00080001u /*        */, 0x000Fu
ARM GAS  C:\Users\a\AppData\Local\Temp\cczTkbWd.s 			page 4


 147:.\Generated_Source\PSoC4/alex_BLE_gatt.c ****     { 0x000Du, 0x2803u /* Characteristic                      */, 0x00000A01u /* rd,wr  */, 0x000Fu
 148:.\Generated_Source\PSoC4/alex_BLE_gatt.c ****     { 0x000Eu, 0x6792u /* onRoff                              */, 0x00090A04u /* rd,wr  */, 0x000Fu
 149:.\Generated_Source\PSoC4/alex_BLE_gatt.c ****     { 0x000Fu, 0x2901u /* Characteristic User Description     */, 0x00010201u /* rd     */, 0x000Fu
 150:.\Generated_Source\PSoC4/alex_BLE_gatt.c **** };
 151:.\Generated_Source\PSoC4/alex_BLE_gatt.c **** 
 152:.\Generated_Source\PSoC4/alex_BLE_gatt.c **** 
 153:.\Generated_Source\PSoC4/alex_BLE_gatt.c **** #endif /* (CYBLE_GATT_ROLE_SERVER) */
 154:.\Generated_Source\PSoC4/alex_BLE_gatt.c **** 
 155:.\Generated_Source\PSoC4/alex_BLE_gatt.c **** #if(CYBLE_GATT_ROLE_CLIENT)
 156:.\Generated_Source\PSoC4/alex_BLE_gatt.c ****     
 157:.\Generated_Source\PSoC4/alex_BLE_gatt.c **** CYBLE_CLIENT_STATE_T cyBle_clientState;
 158:.\Generated_Source\PSoC4/alex_BLE_gatt.c **** CYBLE_GATTC_T cyBle_gattc;
 159:.\Generated_Source\PSoC4/alex_BLE_gatt.c ****     
 160:.\Generated_Source\PSoC4/alex_BLE_gatt.c **** #endif /* (CYBLE_GATT_ROLE_CLIENT) */
 161:.\Generated_Source\PSoC4/alex_BLE_gatt.c **** 
 162:.\Generated_Source\PSoC4/alex_BLE_gatt.c **** 
 163:.\Generated_Source\PSoC4/alex_BLE_gatt.c **** #if(CYBLE_GATT_ROLE_SERVER)
 164:.\Generated_Source\PSoC4/alex_BLE_gatt.c **** 
 165:.\Generated_Source\PSoC4/alex_BLE_gatt.c **** /****************************************************************************** 
 166:.\Generated_Source\PSoC4/alex_BLE_gatt.c **** * Function Name: CyBle_GattsReInitGattDb
 167:.\Generated_Source\PSoC4/alex_BLE_gatt.c **** ***************************************************************************//**
 168:.\Generated_Source\PSoC4/alex_BLE_gatt.c **** * 
 169:.\Generated_Source\PSoC4/alex_BLE_gatt.c **** *  Reinitializes the GATT database.
 170:.\Generated_Source\PSoC4/alex_BLE_gatt.c **** * 
 171:.\Generated_Source\PSoC4/alex_BLE_gatt.c **** * \return
 172:.\Generated_Source\PSoC4/alex_BLE_gatt.c **** *  CYBLE_API_RESULT_T: An API result states if the API succeeded or failed with
 173:.\Generated_Source\PSoC4/alex_BLE_gatt.c **** *  error codes:
 174:.\Generated_Source\PSoC4/alex_BLE_gatt.c **** *   * CYBLE_ERROR_OK: GATT database was reinitialized successfully
 175:.\Generated_Source\PSoC4/alex_BLE_gatt.c **** *   * CYBLE_ERROR_INVALID_STATE: If the function is called in any state except
 176:.\Generated_Source\PSoC4/alex_BLE_gatt.c **** *                                 CYBLE_STATE_DISCONNECTED.
 177:.\Generated_Source\PSoC4/alex_BLE_gatt.c **** *   * Any of the CyBle_GattsDbRegister() stack API function return values.
 178:.\Generated_Source\PSoC4/alex_BLE_gatt.c **** * 
 179:.\Generated_Source\PSoC4/alex_BLE_gatt.c **** ******************************************************************************/
 180:.\Generated_Source\PSoC4/alex_BLE_gatt.c **** CYBLE_API_RESULT_T CyBle_GattsReInitGattDb(void)
 181:.\Generated_Source\PSoC4/alex_BLE_gatt.c **** {
  26              		.loc 1 181 0
  27              		.cfi_startproc
  28 0000 08B5     		push	{r3, lr}
  29              		.cfi_def_cfa_offset 8
  30              		.cfi_offset 3, -8
  31              		.cfi_offset 14, -4
 182:.\Generated_Source\PSoC4/alex_BLE_gatt.c ****     CYBLE_API_RESULT_T apiResult;
 183:.\Generated_Source\PSoC4/alex_BLE_gatt.c ****     
 184:.\Generated_Source\PSoC4/alex_BLE_gatt.c ****     if(CYBLE_STATE_DISCONNECTED == CyBle_GetState())
  32              		.loc 1 184 0
  33 0002 064B     		ldr	r3, .L4
  34 0004 1B78     		ldrb	r3, [r3]
  35 0006 042B     		cmp	r3, #4
  36 0008 05D1     		bne	.L3
 185:.\Generated_Source\PSoC4/alex_BLE_gatt.c ****     {
 186:.\Generated_Source\PSoC4/alex_BLE_gatt.c ****         apiResult = CyBle_GattsDbRegister(cyBle_gattDB, CYBLE_GATT_DB_INDEX_COUNT, CYBLE_GATT_DB_MA
  37              		.loc 1 186 0
  38 000a 0548     		ldr	r0, .L4+4
  39 000c 0F21     		mov	r1, #15
  40 000e 1222     		mov	r2, #18
  41 0010 FFF7FEFF 		bl	CyBle_GattsDbRegister
  42              	.LVL0:
ARM GAS  C:\Users\a\AppData\Local\Temp\cczTkbWd.s 			page 5


  43 0014 01E0     		b	.L2
  44              	.LVL1:
  45              	.L3:
 187:.\Generated_Source\PSoC4/alex_BLE_gatt.c ****     }
 188:.\Generated_Source\PSoC4/alex_BLE_gatt.c ****     else
 189:.\Generated_Source\PSoC4/alex_BLE_gatt.c ****     {
 190:.\Generated_Source\PSoC4/alex_BLE_gatt.c ****         apiResult = CYBLE_ERROR_INVALID_STATE;
  46              		.loc 1 190 0
  47 0016 0420     		mov	r0, #4
  48 0018 FF30     		add	r0, r0, #255
  49              	.L2:
  50              	.LVL2:
 191:.\Generated_Source\PSoC4/alex_BLE_gatt.c ****     }
 192:.\Generated_Source\PSoC4/alex_BLE_gatt.c ****     
 193:.\Generated_Source\PSoC4/alex_BLE_gatt.c ****     return(apiResult);
 194:.\Generated_Source\PSoC4/alex_BLE_gatt.c **** }
  51              		.loc 1 194 0
  52              		@ sp needed
  53 001a 08BD     		pop	{r3, pc}
  54              	.L5:
  55              		.align	2
  56              	.L4:
  57 001c 00000000 		.word	cyBle_state
  58 0020 00000000 		.word	.LANCHOR0
  59              		.cfi_endproc
  60              	.LFE2:
  61              		.size	CyBle_GattsReInitGattDb, .-CyBle_GattsReInitGattDb
  62              		.section	.text.CyBle_GattsWriteEventHandler,"ax",%progbits
  63              		.align	2
  64              		.global	CyBle_GattsWriteEventHandler
  65              		.code	16
  66              		.thumb_func
  67              		.type	CyBle_GattsWriteEventHandler, %function
  68              	CyBle_GattsWriteEventHandler:
  69              	.LFB3:
 195:.\Generated_Source\PSoC4/alex_BLE_gatt.c **** 
 196:.\Generated_Source\PSoC4/alex_BLE_gatt.c **** 
 197:.\Generated_Source\PSoC4/alex_BLE_gatt.c **** /****************************************************************************** 
 198:.\Generated_Source\PSoC4/alex_BLE_gatt.c **** * Function Name: CyBle_GattsWriteEventHandler
 199:.\Generated_Source\PSoC4/alex_BLE_gatt.c **** ***************************************************************************//**
 200:.\Generated_Source\PSoC4/alex_BLE_gatt.c **** * 
 201:.\Generated_Source\PSoC4/alex_BLE_gatt.c **** *  Handles the Write Request Event for GATT service.
 202:.\Generated_Source\PSoC4/alex_BLE_gatt.c **** * 
 203:.\Generated_Source\PSoC4/alex_BLE_gatt.c **** *  \param *eventParam: The pointer to the data structure specified by the event.
 204:.\Generated_Source\PSoC4/alex_BLE_gatt.c **** * 
 205:.\Generated_Source\PSoC4/alex_BLE_gatt.c **** * \return
 206:.\Generated_Source\PSoC4/alex_BLE_gatt.c **** *  * CYBLE_GATT_ERR_CODE_T: An API result returns one of the following status 
 207:.\Generated_Source\PSoC4/alex_BLE_gatt.c **** *     values
 208:.\Generated_Source\PSoC4/alex_BLE_gatt.c **** *  * CYBLE_GATT_ERR_NONE - Write is successful.
 209:.\Generated_Source\PSoC4/alex_BLE_gatt.c **** * 
 210:.\Generated_Source\PSoC4/alex_BLE_gatt.c **** ******************************************************************************/
 211:.\Generated_Source\PSoC4/alex_BLE_gatt.c **** CYBLE_GATT_ERR_CODE_T CyBle_GattsWriteEventHandler(CYBLE_GATTS_WRITE_REQ_PARAM_T *eventParam)
 212:.\Generated_Source\PSoC4/alex_BLE_gatt.c **** {
  70              		.loc 1 212 0
  71              		.cfi_startproc
  72              	.LVL3:
  73 0000 38B5     		push	{r3, r4, r5, lr}
ARM GAS  C:\Users\a\AppData\Local\Temp\cczTkbWd.s 			page 6


  74              		.cfi_def_cfa_offset 16
  75              		.cfi_offset 3, -16
  76              		.cfi_offset 4, -12
  77              		.cfi_offset 5, -8
  78              		.cfi_offset 14, -4
  79              	.LVL4:
 213:.\Generated_Source\PSoC4/alex_BLE_gatt.c ****     CYBLE_GATT_ERR_CODE_T gattErr = CYBLE_GATT_ERR_NONE;
 214:.\Generated_Source\PSoC4/alex_BLE_gatt.c ****     
 215:.\Generated_Source\PSoC4/alex_BLE_gatt.c ****     /* Client Characteristic Configuration descriptor write request */
 216:.\Generated_Source\PSoC4/alex_BLE_gatt.c ****     if(eventParam->handleValPair.attrHandle == cyBle_gatts.cccdHandle)
  80              		.loc 1 216 0
  81 0002 8389     		ldrh	r3, [r0, #12]
  82 0004 0B2B     		cmp	r3, #11
  83 0006 20D1     		bne	.L10
  84 0008 041C     		mov	r4, r0
 217:.\Generated_Source\PSoC4/alex_BLE_gatt.c ****     {
 218:.\Generated_Source\PSoC4/alex_BLE_gatt.c ****         /* Store value to database */
 219:.\Generated_Source\PSoC4/alex_BLE_gatt.c ****         gattErr = CyBle_GattsWriteAttributeValue(&eventParam->handleValPair, 0u, 
  85              		.loc 1 219 0
  86 000a 0430     		add	r0, r0, #4
  87              	.LVL5:
  88 000c 0021     		mov	r1, #0
  89 000e 221C     		mov	r2, r4
  90 0010 3533     		add	r3, r3, #53
  91 0012 FFF7FEFF 		bl	CyBle_GattsWriteAttributeValue
  92              	.LVL6:
  93 0016 051E     		sub	r5, r0, #0
  94              	.LVL7:
 220:.\Generated_Source\PSoC4/alex_BLE_gatt.c ****                         &eventParam->connHandle, CYBLE_GATT_DB_PEER_INITIATED);
 221:.\Generated_Source\PSoC4/alex_BLE_gatt.c ****         
 222:.\Generated_Source\PSoC4/alex_BLE_gatt.c ****         if(CYBLE_GATT_ERR_NONE == gattErr)
  95              		.loc 1 222 0
  96 0018 11D1     		bne	.L8
 223:.\Generated_Source\PSoC4/alex_BLE_gatt.c ****         {
 224:.\Generated_Source\PSoC4/alex_BLE_gatt.c ****             if(CYBLE_IS_INDICATION_ENABLED_IN_PTR(eventParam->handleValPair.value.val))
  97              		.loc 1 224 0
  98 001a 6068     		ldr	r0, [r4, #4]
  99              	.LVL8:
 100 001c FFF7FEFF 		bl	CyBle_Get16ByPtr
 101              	.LVL9:
 102 0020 8307     		lsl	r3, r0, #30
 103 0022 06D5     		bpl	.L9
 225:.\Generated_Source\PSoC4/alex_BLE_gatt.c ****             {
 226:.\Generated_Source\PSoC4/alex_BLE_gatt.c ****                 CyBle_ApplCallback((uint32)CYBLE_EVT_GATTS_INDICATION_ENABLED, eventParam);
 104              		.loc 1 226 0
 105 0024 0A4B     		ldr	r3, .L11
 106 0026 1B68     		ldr	r3, [r3]
 107 0028 8220     		mov	r0, #130
 108 002a 4000     		lsl	r0, r0, #1
 109 002c 211C     		mov	r1, r4
 110 002e 9847     		blx	r3
 111              	.LVL10:
 112 0030 05E0     		b	.L8
 113              	.L9:
 227:.\Generated_Source\PSoC4/alex_BLE_gatt.c ****             }
 228:.\Generated_Source\PSoC4/alex_BLE_gatt.c ****             else
 229:.\Generated_Source\PSoC4/alex_BLE_gatt.c ****             {
ARM GAS  C:\Users\a\AppData\Local\Temp\cczTkbWd.s 			page 7


 230:.\Generated_Source\PSoC4/alex_BLE_gatt.c ****                 CyBle_ApplCallback((uint32)CYBLE_EVT_GATTS_INDICATION_DISABLED, eventParam);
 114              		.loc 1 230 0
 115 0032 074B     		ldr	r3, .L11
 116 0034 1B68     		ldr	r3, [r3]
 117 0036 0620     		mov	r0, #6
 118 0038 FF30     		add	r0, r0, #255
 119 003a 211C     		mov	r1, r4
 120 003c 9847     		blx	r3
 121              	.LVL11:
 122              	.L8:
 231:.\Generated_Source\PSoC4/alex_BLE_gatt.c ****             }
 232:.\Generated_Source\PSoC4/alex_BLE_gatt.c ****         }
 233:.\Generated_Source\PSoC4/alex_BLE_gatt.c ****         cyBle_eventHandlerFlag &= (uint8)~CYBLE_CALLBACK;
 123              		.loc 1 233 0
 124 003e 054A     		ldr	r2, .L11+4
 125 0040 1378     		ldrb	r3, [r2]
 126 0042 0121     		mov	r1, #1
 127 0044 8B43     		bic	r3, r1
 128 0046 1370     		strb	r3, [r2]
 129 0048 00E0     		b	.L7
 130              	.LVL12:
 131              	.L10:
 213:.\Generated_Source\PSoC4/alex_BLE_gatt.c ****     
 132              		.loc 1 213 0
 133 004a 0025     		mov	r5, #0
 134              	.LVL13:
 135              	.L7:
 234:.\Generated_Source\PSoC4/alex_BLE_gatt.c ****     }
 235:.\Generated_Source\PSoC4/alex_BLE_gatt.c ****     return (gattErr);
 236:.\Generated_Source\PSoC4/alex_BLE_gatt.c **** }
 136              		.loc 1 236 0
 137 004c 281C     		mov	r0, r5
 138              		@ sp needed
 139              	.LVL14:
 140 004e 38BD     		pop	{r3, r4, r5, pc}
 141              	.L12:
 142              		.align	2
 143              	.L11:
 144 0050 00000000 		.word	CyBle_ApplCallback
 145 0054 00000000 		.word	cyBle_eventHandlerFlag
 146              		.cfi_endproc
 147              	.LFE3:
 148              		.size	CyBle_GattsWriteEventHandler, .-CyBle_GattsWriteEventHandler
 149              		.global	cyBle_gattDB
 150              		.global	cyBle_attValuesLen
 151              		.global	cyBle_attUuid128
 152              		.comm	cyBle_attValuesCCCD,2,4
 153              		.global	cyBle_gatts
 154              		.global	cyBle_flashStorage
 155              		.comm	cyBle_state,1,1
 156              		.section	.rodata
 157              		.align	2
 158              		.set	.LANCHOR0,. + 0
 159              		.type	cyBle_gattDB, %object
 160              		.size	cyBle_gattDB, 300
 161              	cyBle_gattDB:
 162 0000 0100     		.short	1
ARM GAS  C:\Users\a\AppData\Local\Temp\cczTkbWd.s 			page 8


 163 0002 0028     		.short	10240
 164 0004 01000000 		.word	1
 165 0008 0700     		.short	7
 166 000a 0000     		.space	2
 167 000c 0018     		.short	6144
 168 000e 0000     		.space	2
 169 0010 00000000 		.word	0
 170 0014 0200     		.short	2
 171 0016 0328     		.short	10243
 172 0018 01020000 		.word	513
 173 001c 0300     		.short	3
 174 001e 0000     		.space	2
 175 0020 002A     		.short	10752
 176 0022 0000     		.space	2
 177 0024 00000000 		.word	0
 178 0028 0300     		.short	3
 179 002a 002A     		.short	10752
 180 002c 01020000 		.word	513
 181 0030 0300     		.short	3
 182 0032 0000     		.space	2
 183 0034 1200     		.short	18
 184 0036 0000     		.space	2
 185 0038 00000000 		.word	cyBle_attValuesLen
 186 003c 0400     		.short	4
 187 003e 0328     		.short	10243
 188 0040 01020000 		.word	513
 189 0044 0500     		.short	5
 190 0046 0000     		.space	2
 191 0048 012A     		.short	10753
 192 004a 0000     		.space	2
 193 004c 00000000 		.word	0
 194 0050 0500     		.short	5
 195 0052 012A     		.short	10753
 196 0054 01020000 		.word	513
 197 0058 0500     		.short	5
 198 005a 0000     		.space	2
 199 005c 0200     		.short	2
 200 005e 0000     		.space	2
 201 0060 08000000 		.word	cyBle_attValuesLen+8
 202 0064 0600     		.short	6
 203 0066 0328     		.short	10243
 204 0068 01020000 		.word	513
 205 006c 0700     		.short	7
 206 006e 0000     		.space	2
 207 0070 042A     		.short	10756
 208 0072 0000     		.space	2
 209 0074 00000000 		.word	0
 210 0078 0700     		.short	7
 211 007a 042A     		.short	10756
 212 007c 01020000 		.word	513
 213 0080 0700     		.short	7
 214 0082 0000     		.space	2
 215 0084 0800     		.short	8
 216 0086 0000     		.space	2
 217 0088 10000000 		.word	cyBle_attValuesLen+16
 218 008c 0800     		.short	8
 219 008e 0028     		.short	10240
ARM GAS  C:\Users\a\AppData\Local\Temp\cczTkbWd.s 			page 9


 220 0090 01000000 		.word	1
 221 0094 0B00     		.short	11
 222 0096 0000     		.space	2
 223 0098 0118     		.short	6145
 224 009a 0000     		.space	2
 225 009c 00000000 		.word	0
 226 00a0 0900     		.short	9
 227 00a2 0328     		.short	10243
 228 00a4 01220000 		.word	8705
 229 00a8 0B00     		.short	11
 230 00aa 0000     		.space	2
 231 00ac 052A     		.short	10757
 232 00ae 0000     		.space	2
 233 00b0 00000000 		.word	0
 234 00b4 0A00     		.short	10
 235 00b6 052A     		.short	10757
 236 00b8 01220000 		.word	8705
 237 00bc 0B00     		.short	11
 238 00be 0000     		.space	2
 239 00c0 0400     		.short	4
 240 00c2 0000     		.space	2
 241 00c4 18000000 		.word	cyBle_attValuesLen+24
 242 00c8 0B00     		.short	11
 243 00ca 0229     		.short	10498
 244 00cc 040A0000 		.word	2564
 245 00d0 0B00     		.short	11
 246 00d2 0000     		.space	2
 247 00d4 0200     		.short	2
 248 00d6 0000     		.space	2
 249 00d8 20000000 		.word	cyBle_attValuesLen+32
 250 00dc 0C00     		.short	12
 251 00de 0028     		.short	10240
 252 00e0 01000800 		.word	524289
 253 00e4 0F00     		.short	15
 254 00e6 0000     		.space	2
 255 00e8 1000     		.short	16
 256 00ea 0000     		.space	2
 257 00ec 28000000 		.word	cyBle_attValuesLen+40
 258 00f0 0D00     		.short	13
 259 00f2 0328     		.short	10243
 260 00f4 010A0000 		.word	2561
 261 00f8 0F00     		.short	15
 262 00fa 0000     		.space	2
 263 00fc 1000     		.short	16
 264 00fe 0000     		.space	2
 265 0100 30000000 		.word	cyBle_attValuesLen+48
 266 0104 0E00     		.short	14
 267 0106 9267     		.short	26514
 268 0108 040A0900 		.word	592388
 269 010c 0F00     		.short	15
 270 010e 0000     		.space	2
 271 0110 0100     		.short	1
 272 0112 0000     		.space	2
 273 0114 38000000 		.word	cyBle_attValuesLen+56
 274 0118 0F00     		.short	15
 275 011a 0129     		.short	10497
 276 011c 01020100 		.word	66049
ARM GAS  C:\Users\a\AppData\Local\Temp\cczTkbWd.s 			page 10


 277 0120 0F00     		.short	15
 278 0122 0000     		.space	2
 279 0124 0600     		.short	6
 280 0126 0000     		.space	2
 281 0128 40000000 		.word	cyBle_attValuesLen+64
 282              		.type	cyBle_attUuid128, %object
 283              		.size	cyBle_attUuid128, 32
 284              	cyBle_attUuid128:
 285 012c 31       		.byte	49
 286 012d 01       		.byte	1
 287 012e 9B       		.byte	-101
 288 012f 5F       		.byte	95
 289 0130 80       		.byte	-128
 290 0131 00       		.byte	0
 291 0132 00       		.byte	0
 292 0133 80       		.byte	-128
 293 0134 00       		.byte	0
 294 0135 10       		.byte	16
 295 0136 00       		.byte	0
 296 0137 00       		.byte	0
 297 0138 29       		.byte	41
 298 0139 19       		.byte	25
 299 013a 17       		.byte	23
 300 013b 13       		.byte	19
 301 013c 31       		.byte	49
 302 013d 01       		.byte	1
 303 013e 9B       		.byte	-101
 304 013f 5F       		.byte	95
 305 0140 80       		.byte	-128
 306 0141 00       		.byte	0
 307 0142 00       		.byte	0
 308 0143 80       		.byte	-128
 309 0144 00       		.byte	0
 310 0145 10       		.byte	16
 311 0146 00       		.byte	0
 312 0147 00       		.byte	0
 313 0148 92       		.byte	-110
 314 0149 67       		.byte	103
 315 014a 34       		.byte	52
 316 014b 12       		.byte	18
 317              		.type	cyBle_gatts, %object
 318              		.size	cyBle_gatts, 6
 319              	cyBle_gatts:
 320 014c 0800     		.short	8
 321 014e 0A00     		.short	10
 322 0150 0B00     		.short	11
 323 0152 0000     		.data
 324              		.align	2
 325              		.type	cyBle_attValuesLen, %object
 326              		.size	cyBle_attValuesLen, 72
 327              	cyBle_attValuesLen:
 328 0000 1200     		.short	18
 329 0002 0000     		.space	2
 330 0004 48000000 		.word	cyBle_attValues
 331 0008 0200     		.short	2
 332 000a 0000     		.space	2
 333 000c 5A000000 		.word	cyBle_attValues+18
ARM GAS  C:\Users\a\AppData\Local\Temp\cczTkbWd.s 			page 11


 334 0010 0800     		.short	8
 335 0012 0000     		.space	2
 336 0014 5C000000 		.word	cyBle_attValues+20
 337 0018 0400     		.short	4
 338 001a 0000     		.space	2
 339 001c 64000000 		.word	cyBle_attValues+28
 340 0020 0200     		.short	2
 341 0022 0000     		.space	2
 342 0024 00000000 		.word	cyBle_attValuesCCCD
 343 0028 1000     		.short	16
 344 002a 0000     		.space	2
 345 002c 00000000 		.word	cyBle_attUuid128
 346 0030 1000     		.short	16
 347 0032 0000     		.space	2
 348 0034 10000000 		.word	cyBle_attUuid128+16
 349 0038 0100     		.short	1
 350 003a 0000     		.space	2
 351 003c 68000000 		.word	cyBle_attValues+32
 352 0040 0600     		.short	6
 353 0042 0000     		.space	2
 354 0044 69000000 		.word	cyBle_attValues+33
 355              		.type	cyBle_attValues, %object
 356              		.size	cyBle_attValues, 39
 357              	cyBle_attValues:
 358 0048 61       		.byte	97
 359 0049 6C       		.byte	108
 360 004a 65       		.byte	101
 361 004b 78       		.byte	120
 362 004c 5F       		.byte	95
 363 004d 6D       		.byte	109
 364 004e 6F       		.byte	111
 365 004f 74       		.byte	116
 366 0050 6F       		.byte	111
 367 0051 72       		.byte	114
 368 0052 5F       		.byte	95
 369 0053 63       		.byte	99
 370 0054 6F       		.byte	111
 371 0055 6E       		.byte	110
 372 0056 74       		.byte	116
 373 0057 72       		.byte	114
 374 0058 6F       		.byte	111
 375 0059 6C       		.byte	108
 376 005a 00       		.byte	0
 377 005b 00       		.byte	0
 378 005c 3C       		.byte	60
 379 005d 00       		.byte	0
 380 005e 40       		.byte	64
 381 005f 00       		.byte	0
 382 0060 00       		.byte	0
 383 0061 00       		.byte	0
 384 0062 E8       		.byte	-24
 385 0063 03       		.byte	3
 386 0064 00       		.byte	0
 387 0065 00       		.byte	0
 388 0066 00       		.byte	0
 389 0067 00       		.byte	0
 390 0068 00       		.byte	0
ARM GAS  C:\Users\a\AppData\Local\Temp\cczTkbWd.s 			page 12


 391 0069 6F       		.byte	111
 392 006a 6E       		.byte	110
 393 006b 52       		.byte	82
 394 006c 6F       		.byte	111
 395 006d 66       		.byte	102
 396 006e 66       		.byte	102
 397 006f 00       		.section	.cy_checksum_exclude,"a",%progbits
 398              		.align	7
 399              		.type	cyBle_flashStorage, %object
 400              		.size	cyBle_flashStorage, 377
 401              	cyBle_flashStorage:
 402 0000 00       		.byte	0
 403 0001 00       		.byte	0
 404 0002 00       		.byte	0
 405 0003 00       		.byte	0
 406 0004 00       		.byte	0
 407 0005 00       		.byte	0
 408 0006 00       		.byte	0
 409 0007 00       		.byte	0
 410 0008 00       		.byte	0
 411 0009 00       		.byte	0
 412 000a 00       		.byte	0
 413 000b 00       		.byte	0
 414 000c 00       		.byte	0
 415 000d 00       		.byte	0
 416 000e 00       		.byte	0
 417 000f 00       		.byte	0
 418 0010 00       		.byte	0
 419 0011 00       		.byte	0
 420 0012 00       		.byte	0
 421 0013 00       		.byte	0
 422 0014 00       		.byte	0
 423 0015 00       		.byte	0
 424 0016 00       		.byte	0
 425 0017 00       		.byte	0
 426 0018 00       		.byte	0
 427 0019 00       		.byte	0
 428 001a 00       		.byte	0
 429 001b 00       		.byte	0
 430 001c 00       		.byte	0
 431 001d 00       		.byte	0
 432 001e 00       		.byte	0
 433 001f 00       		.byte	0
 434 0020 00       		.byte	0
 435 0021 00       		.byte	0
 436 0022 00       		.byte	0
 437 0023 00       		.byte	0
 438 0024 00       		.byte	0
 439 0025 00       		.byte	0
 440 0026 00       		.byte	0
 441 0027 00       		.byte	0
 442 0028 00       		.byte	0
 443 0029 00       		.byte	0
 444 002a 00       		.byte	0
 445 002b 00       		.byte	0
 446 002c 00       		.byte	0
 447 002d 00       		.byte	0
ARM GAS  C:\Users\a\AppData\Local\Temp\cczTkbWd.s 			page 13


 448 002e 00       		.byte	0
 449 002f 00       		.byte	0
 450 0030 00       		.byte	0
 451 0031 00       		.byte	0
 452 0032 00       		.byte	0
 453 0033 00       		.byte	0
 454 0034 00       		.byte	0
 455 0035 00       		.byte	0
 456 0036 00       		.byte	0
 457 0037 00       		.byte	0
 458 0038 00       		.byte	0
 459 0039 00       		.byte	0
 460 003a 00       		.byte	0
 461 003b 00       		.byte	0
 462 003c 00       		.byte	0
 463 003d 00       		.byte	0
 464 003e 00       		.byte	0
 465 003f 00       		.byte	0
 466 0040 00       		.byte	0
 467 0041 00       		.byte	0
 468 0042 00       		.byte	0
 469 0043 00       		.byte	0
 470 0044 00       		.byte	0
 471 0045 00       		.byte	0
 472 0046 00       		.byte	0
 473 0047 00       		.byte	0
 474 0048 00       		.byte	0
 475 0049 00       		.byte	0
 476 004a 00       		.byte	0
 477 004b 00       		.byte	0
 478 004c 00       		.byte	0
 479 004d 00       		.byte	0
 480 004e 00       		.byte	0
 481 004f 00       		.byte	0
 482 0050 00       		.byte	0
 483 0051 00       		.byte	0
 484 0052 00       		.byte	0
 485 0053 00       		.byte	0
 486 0054 00       		.byte	0
 487 0055 00       		.byte	0
 488 0056 00       		.byte	0
 489 0057 00       		.byte	0
 490 0058 00       		.byte	0
 491 0059 00       		.byte	0
 492 005a 00       		.byte	0
 493 005b 00       		.byte	0
 494 005c 00       		.byte	0
 495 005d 00       		.byte	0
 496 005e 00       		.byte	0
 497 005f 00       		.byte	0
 498 0060 00       		.byte	0
 499 0061 00       		.byte	0
 500 0062 00       		.byte	0
 501 0063 00       		.byte	0
 502 0064 00       		.byte	0
 503 0065 00       		.byte	0
 504 0066 00       		.byte	0
ARM GAS  C:\Users\a\AppData\Local\Temp\cczTkbWd.s 			page 14


 505 0067 00       		.byte	0
 506 0068 00       		.byte	0
 507 0069 00       		.byte	0
 508 006a 00       		.byte	0
 509 006b 00       		.byte	0
 510 006c 00       		.byte	0
 511 006d 00       		.byte	0
 512 006e 00       		.byte	0
 513 006f 00       		.byte	0
 514 0070 00       		.byte	0
 515 0071 00       		.byte	0
 516 0072 00       		.byte	0
 517 0073 00       		.byte	0
 518 0074 00       		.byte	0
 519 0075 00       		.byte	0
 520 0076 00       		.byte	0
 521 0077 00       		.byte	0
 522 0078 00       		.byte	0
 523 0079 00       		.byte	0
 524 007a 00       		.byte	0
 525 007b 00       		.byte	0
 526 007c 00       		.byte	0
 527 007d 00       		.byte	0
 528 007e 00       		.byte	0
 529 007f 00       		.byte	0
 530 0080 00       		.byte	0
 531 0081 00       		.byte	0
 532 0082 00       		.byte	0
 533 0083 00       		.byte	0
 534 0084 00       		.byte	0
 535 0085 00       		.byte	0
 536 0086 00       		.byte	0
 537 0087 00       		.byte	0
 538 0088 00       		.byte	0
 539 0089 00       		.byte	0
 540 008a 00       		.byte	0
 541 008b 00       		.byte	0
 542 008c 00       		.byte	0
 543 008d 00       		.byte	0
 544 008e 00       		.byte	0
 545 008f 00       		.byte	0
 546 0090 00       		.byte	0
 547 0091 00       		.byte	0
 548 0092 00       		.byte	0
 549 0093 00       		.byte	0
 550 0094 00       		.byte	0
 551 0095 00       		.byte	0
 552 0096 00       		.byte	0
 553 0097 00       		.byte	0
 554 0098 00       		.byte	0
 555 0099 00       		.byte	0
 556 009a 00       		.byte	0
 557 009b 00       		.byte	0
 558 009c 00       		.byte	0
 559 009d 00       		.byte	0
 560 009e 00       		.byte	0
 561 009f 00       		.byte	0
ARM GAS  C:\Users\a\AppData\Local\Temp\cczTkbWd.s 			page 15


 562 00a0 00       		.byte	0
 563 00a1 00       		.byte	0
 564 00a2 00       		.byte	0
 565 00a3 00       		.byte	0
 566 00a4 00       		.byte	0
 567 00a5 00       		.byte	0
 568 00a6 00       		.byte	0
 569 00a7 00       		.byte	0
 570 00a8 00       		.byte	0
 571 00a9 00       		.byte	0
 572 00aa 00       		.byte	0
 573 00ab 00       		.byte	0
 574 00ac 00       		.byte	0
 575 00ad 00       		.byte	0
 576 00ae 00       		.byte	0
 577 00af 00       		.byte	0
 578 00b0 00       		.byte	0
 579 00b1 00       		.byte	0
 580 00b2 00       		.byte	0
 581 00b3 00       		.byte	0
 582 00b4 00       		.byte	0
 583 00b5 00       		.byte	0
 584 00b6 00       		.byte	0
 585 00b7 00       		.byte	0
 586 00b8 00       		.byte	0
 587 00b9 00       		.byte	0
 588 00ba 00       		.byte	0
 589 00bb 00       		.byte	0
 590 00bc 00       		.byte	0
 591 00bd 00       		.byte	0
 592 00be 00       		.byte	0
 593 00bf 00       		.byte	0
 594 00c0 00       		.byte	0
 595 00c1 00       		.byte	0
 596 00c2 00       		.byte	0
 597 00c3 00       		.byte	0
 598 00c4 00       		.byte	0
 599 00c5 00       		.byte	0
 600 00c6 00       		.byte	0
 601 00c7 00       		.byte	0
 602 00c8 00       		.byte	0
 603 00c9 00       		.byte	0
 604 00ca 00       		.byte	0
 605 00cb 00       		.byte	0
 606 00cc 00       		.byte	0
 607 00cd 00       		.byte	0
 608 00ce 00       		.byte	0
 609 00cf 00       		.byte	0
 610 00d0 00       		.byte	0
 611 00d1 00       		.byte	0
 612 00d2 00       		.byte	0
 613 00d3 00       		.byte	0
 614 00d4 00       		.byte	0
 615 00d5 00       		.byte	0
 616 00d6 00       		.byte	0
 617 00d7 00       		.byte	0
 618 00d8 00       		.byte	0
ARM GAS  C:\Users\a\AppData\Local\Temp\cczTkbWd.s 			page 16


 619 00d9 00       		.byte	0
 620 00da 00       		.byte	0
 621 00db 00       		.byte	0
 622 00dc 00       		.byte	0
 623 00dd 00       		.byte	0
 624 00de 00       		.byte	0
 625 00df 00       		.byte	0
 626 00e0 00       		.byte	0
 627 00e1 00       		.byte	0
 628 00e2 00       		.byte	0
 629 00e3 00       		.byte	0
 630 00e4 00       		.byte	0
 631 00e5 00       		.byte	0
 632 00e6 00       		.byte	0
 633 00e7 00       		.byte	0
 634 00e8 00       		.byte	0
 635 00e9 00       		.byte	0
 636 00ea 00       		.byte	0
 637 00eb 00       		.byte	0
 638 00ec 00       		.byte	0
 639 00ed 00       		.byte	0
 640 00ee 00       		.byte	0
 641 00ef 00       		.byte	0
 642 00f0 00       		.byte	0
 643 00f1 00       		.byte	0
 644 00f2 00       		.byte	0
 645 00f3 00       		.byte	0
 646 00f4 00       		.byte	0
 647 00f5 00       		.byte	0
 648 00f6 00       		.byte	0
 649 00f7 00       		.byte	0
 650 00f8 00       		.byte	0
 651 00f9 00       		.byte	0
 652 00fa 00       		.byte	0
 653 00fb 00       		.byte	0
 654 00fc 00       		.byte	0
 655 00fd 00       		.byte	0
 656 00fe 00       		.byte	0
 657 00ff 00       		.byte	0
 658 0100 00       		.byte	0
 659 0101 00       		.byte	0
 660 0102 00       		.byte	0
 661 0103 00       		.byte	0
 662 0104 00       		.byte	0
 663 0105 00       		.byte	0
 664 0106 00       		.byte	0
 665 0107 00       		.byte	0
 666 0108 00       		.byte	0
 667 0109 00       		.byte	0
 668 010a 00       		.byte	0
 669 010b 00       		.byte	0
 670 010c 00       		.byte	0
 671 010d 00       		.byte	0
 672 010e 00       		.byte	0
 673 010f 00       		.byte	0
 674 0110 00       		.byte	0
 675 0111 00       		.byte	0
ARM GAS  C:\Users\a\AppData\Local\Temp\cczTkbWd.s 			page 17


 676 0112 00       		.byte	0
 677 0113 00       		.byte	0
 678 0114 00       		.byte	0
 679 0115 00       		.byte	0
 680 0116 00       		.byte	0
 681 0117 00       		.byte	0
 682 0118 00       		.byte	0
 683 0119 00       		.byte	0
 684 011a 00       		.byte	0
 685 011b 00       		.byte	0
 686 011c 00       		.byte	0
 687 011d 00       		.byte	0
 688 011e 00       		.byte	0
 689 011f 00       		.byte	0
 690 0120 00       		.byte	0
 691 0121 00       		.byte	0
 692 0122 00       		.byte	0
 693 0123 00       		.byte	0
 694 0124 00       		.byte	0
 695 0125 00       		.byte	0
 696 0126 00       		.byte	0
 697 0127 00       		.byte	0
 698 0128 00       		.byte	0
 699 0129 00       		.byte	0
 700 012a 00       		.byte	0
 701 012b 00       		.byte	0
 702 012c 00       		.byte	0
 703 012d 00       		.byte	0
 704 012e 00       		.byte	0
 705 012f 00       		.byte	0
 706 0130 00       		.byte	0
 707 0131 00       		.byte	0
 708 0132 00       		.byte	0
 709 0133 00       		.byte	0
 710 0134 00       		.byte	0
 711 0135 00       		.byte	0
 712 0136 00       		.byte	0
 713 0137 00       		.byte	0
 714 0138 00       		.byte	0
 715 0139 00       		.byte	0
 716 013a 00       		.byte	0
 717 013b 00       		.byte	0
 718 013c 00       		.byte	0
 719 013d 00       		.byte	0
 720 013e 00       		.byte	0
 721 013f 00       		.byte	0
 722 0140 00       		.byte	0
 723 0141 00       		.byte	0
 724 0142 00       		.byte	0
 725 0143 00       		.byte	0
 726 0144 00       		.byte	0
 727 0145 00       		.byte	0
 728 0146 00       		.byte	0
 729 0147 00       		.byte	0
 730 0148 00       		.byte	0
 731 0149 00       		.byte	0
 732 014a 00       		.byte	0
ARM GAS  C:\Users\a\AppData\Local\Temp\cczTkbWd.s 			page 18


 733 014b 00       		.byte	0
 734 014c 00       		.byte	0
 735 014d 00       		.byte	0
 736 014e 00       		.byte	0
 737 014f 00       		.byte	0
 738 0150 00       		.byte	0
 739 0151 00       		.byte	0
 740 0152 00       		.byte	0
 741 0153 00       		.byte	0
 742 0154 00       		.byte	0
 743 0155 00       		.byte	0
 744 0156 00       		.byte	0
 745 0157 00       		.byte	0
 746 0158 00       		.byte	0
 747 0159 00       		.byte	0
 748 015a 00       		.byte	0
 749 015b 00       		.byte	0
 750 015c 00       		.byte	0
 751 015d 00       		.byte	0
 752 015e 00       		.byte	0
 753 015f 00       		.byte	0
 754 0160 00       		.byte	0
 755 0161 00       		.byte	0
 756 0162 00       		.byte	0
 757 0163 00       		.byte	0
 758 0164 00       		.byte	0
 759 0165 00       		.byte	0
 760 0166 00       		.byte	0
 761 0167 00       		.byte	0
 762 0168 00       		.byte	0
 763 0169 00       		.byte	0
 764 016a 00       		.byte	0
 765 016b 00       		.byte	0
 766 016c 00       		.byte	0
 767 016d 00       		.byte	0
 768 016e 00       		.byte	0
 769 016f 00       		.byte	0
 770 0170 00       		.byte	0
 771 0171 00       		.byte	0
 772 0172 00       		.byte	0
 773 0173 00       		.byte	0
 774 0174 00       		.byte	0
 775 0175 00       		.byte	0
 776 0176 00       		.byte	0
 777 0177 02       		.byte	2
 778 0178 05       		.byte	5
 779 0179 00000000 		.text
 779      000000
 780              	.Letext0:
 781              		.file 2 ".\\Generated_Source\\PSoC4\\cytypes.h"
 782              		.file 3 ".\\Generated_Source\\PSoC4\\alex_BLE_Stack.h"
 783              		.file 4 ".\\Generated_Source\\PSoC4\\alex_BLE_StackGatt.h"
 784              		.file 5 ".\\Generated_Source\\PSoC4\\alex_BLE_StackGattServer.h"
 785              		.file 6 ".\\Generated_Source\\PSoC4\\alex_BLE_StackGattDb.h"
 786              		.file 7 ".\\Generated_Source\\PSoC4\\alex_BLE.h"
 787              		.file 8 ".\\Generated_Source\\PSoC4\\alex_BLE_gatt.h"
 788              		.file 9 ".\\Generated_Source\\PSoC4\\alex_BLE_eventHandler.h"
ARM GAS  C:\Users\a\AppData\Local\Temp\cczTkbWd.s 			page 19


