ARM GAS  C:\Users\a\AppData\Local\Temp\ccXpRoQY.s 			page 1


   1              		.cpu cortex-m0
   2              		.fpu softvfp
   3              		.eabi_attribute 20, 1
   4              		.eabi_attribute 21, 1
   5              		.eabi_attribute 23, 3
   6              		.eabi_attribute 24, 1
   7              		.eabi_attribute 25, 1
   8              		.eabi_attribute 26, 1
   9              		.eabi_attribute 30, 1
  10              		.eabi_attribute 34, 0
  11              		.eabi_attribute 18, 4
  12              		.code	16
  13              		.file	"alex_BLE_eventHandler.c"
  14              		.text
  15              	.Ltext0:
  16              		.cfi_sections	.debug_frame
  17              		.section	.text.CyBle_GattDisconnectEventHandler,"ax",%progbits
  18              		.align	2
  19              		.code	16
  20              		.thumb_func
  21              		.type	CyBle_GattDisconnectEventHandler, %function
  22              	CyBle_GattDisconnectEventHandler:
  23              	.LFB4:
  24              		.file 1 ".\\Generated_Source\\PSoC4\\alex_BLE_eventHandler.c"
   1:.\Generated_Source\PSoC4/alex_BLE_eventHandler.c **** /***************************************************************************//**
   2:.\Generated_Source\PSoC4/alex_BLE_eventHandler.c **** * \file CYBLE_eventHandler.c
   3:.\Generated_Source\PSoC4/alex_BLE_eventHandler.c **** * \version 2.30
   4:.\Generated_Source\PSoC4/alex_BLE_eventHandler.c **** * 
   5:.\Generated_Source\PSoC4/alex_BLE_eventHandler.c **** * \brief
   6:.\Generated_Source\PSoC4/alex_BLE_eventHandler.c **** *  This file contains the source code for the Event Handler State Machine
   7:.\Generated_Source\PSoC4/alex_BLE_eventHandler.c **** *  of the BLE Component.
   8:.\Generated_Source\PSoC4/alex_BLE_eventHandler.c **** * 
   9:.\Generated_Source\PSoC4/alex_BLE_eventHandler.c **** ********************************************************************************
  10:.\Generated_Source\PSoC4/alex_BLE_eventHandler.c **** * \copyright
  11:.\Generated_Source\PSoC4/alex_BLE_eventHandler.c **** * Copyright 2014-2015, Cypress Semiconductor Corporation.  All rights reserved.
  12:.\Generated_Source\PSoC4/alex_BLE_eventHandler.c **** * You may use this file only in accordance with the license, terms, conditions,
  13:.\Generated_Source\PSoC4/alex_BLE_eventHandler.c **** * disclaimers, and limitations in the end user license agreement accompanying
  14:.\Generated_Source\PSoC4/alex_BLE_eventHandler.c **** * the software package with which this file was provided.
  15:.\Generated_Source\PSoC4/alex_BLE_eventHandler.c **** *******************************************************************************/
  16:.\Generated_Source\PSoC4/alex_BLE_eventHandler.c **** 
  17:.\Generated_Source\PSoC4/alex_BLE_eventHandler.c **** #include "alex_BLE_eventHandler.h"
  18:.\Generated_Source\PSoC4/alex_BLE_eventHandler.c **** 
  19:.\Generated_Source\PSoC4/alex_BLE_eventHandler.c **** 
  20:.\Generated_Source\PSoC4/alex_BLE_eventHandler.c **** /***************************************
  21:.\Generated_Source\PSoC4/alex_BLE_eventHandler.c **** * Private Function Prototypes
  22:.\Generated_Source\PSoC4/alex_BLE_eventHandler.c **** ***************************************/
  23:.\Generated_Source\PSoC4/alex_BLE_eventHandler.c **** 
  24:.\Generated_Source\PSoC4/alex_BLE_eventHandler.c **** #if (CYBLE_GATT_ROLE_SERVER || CYBLE_GATT_ROLE_CLIENT)
  25:.\Generated_Source\PSoC4/alex_BLE_eventHandler.c **** 
  26:.\Generated_Source\PSoC4/alex_BLE_eventHandler.c **** static uint8 CyBle_IsDeviceAddressValid(const CYBLE_GAP_BD_ADDR_T *sflashDeviceAddress);
  27:.\Generated_Source\PSoC4/alex_BLE_eventHandler.c **** 
  28:.\Generated_Source\PSoC4/alex_BLE_eventHandler.c **** #endif /* CYBLE_GATT_ROLE_SERVER || CYBLE_GATT_ROLE_CLIENT */
  29:.\Generated_Source\PSoC4/alex_BLE_eventHandler.c **** 
  30:.\Generated_Source\PSoC4/alex_BLE_eventHandler.c **** static void CyBle_GattDisconnectEventHandler(void);
  31:.\Generated_Source\PSoC4/alex_BLE_eventHandler.c **** static void CyBle_TimeOutEventHandler(const CYBLE_TO_REASON_CODE_T *eventParam);
  32:.\Generated_Source\PSoC4/alex_BLE_eventHandler.c **** static void CyBle_GattConnectReqHandler(void);
  33:.\Generated_Source\PSoC4/alex_BLE_eventHandler.c **** static void CyBle_L2Cap_ConnParamUpdateRspEventHandler(uint16 response);
ARM GAS  C:\Users\a\AppData\Local\Temp\ccXpRoQY.s 			page 2


  34:.\Generated_Source\PSoC4/alex_BLE_eventHandler.c **** static void CyBle_GapConnUpdateCompleteEventHandler(const CYBLE_GAP_CONN_PARAM_UPDATED_IN_CONTROLLE
  35:.\Generated_Source\PSoC4/alex_BLE_eventHandler.c **** 
  36:.\Generated_Source\PSoC4/alex_BLE_eventHandler.c **** 
  37:.\Generated_Source\PSoC4/alex_BLE_eventHandler.c **** #if (CYBLE_GATT_ROLE_SERVER)
  38:.\Generated_Source\PSoC4/alex_BLE_eventHandler.c **** 
  39:.\Generated_Source\PSoC4/alex_BLE_eventHandler.c **** static void CyBle_WriteReqHandler(CYBLE_GATTS_WRITE_REQ_PARAM_T *eventParam);
  40:.\Generated_Source\PSoC4/alex_BLE_eventHandler.c **** static void CyBle_ValueConfirmation(const CYBLE_CONN_HANDLE_T *eventParam);
  41:.\Generated_Source\PSoC4/alex_BLE_eventHandler.c **** 
  42:.\Generated_Source\PSoC4/alex_BLE_eventHandler.c **** #endif /* CYBLE_GATT_ROLE_SERVER */
  43:.\Generated_Source\PSoC4/alex_BLE_eventHandler.c **** 
  44:.\Generated_Source\PSoC4/alex_BLE_eventHandler.c **** #if (CYBLE_GATT_ROLE_CLIENT)
  45:.\Generated_Source\PSoC4/alex_BLE_eventHandler.c **** 
  46:.\Generated_Source\PSoC4/alex_BLE_eventHandler.c **** static void CyBle_GapcDiscoverCharacteristicsEventHandler(CYBLE_DISC_CHAR_INFO_T *discCharInfo);
  47:.\Generated_Source\PSoC4/alex_BLE_eventHandler.c **** static CYBLE_GATT_ATTR_HANDLE_RANGE_T CyBle_GetCharRange(void);
  48:.\Generated_Source\PSoC4/alex_BLE_eventHandler.c **** static void CyBle_GattcWriteResponseEventHandler(const CYBLE_CONN_HANDLE_T *eventParam);
  49:.\Generated_Source\PSoC4/alex_BLE_eventHandler.c **** static void CyBle_NotificationEventHandler(CYBLE_GATTC_HANDLE_VALUE_NTF_PARAM_T *eventParam);
  50:.\Generated_Source\PSoC4/alex_BLE_eventHandler.c **** static void CyBle_IndicationEventHandler(CYBLE_GATTC_HANDLE_VALUE_IND_PARAM_T *eventParam);
  51:.\Generated_Source\PSoC4/alex_BLE_eventHandler.c **** static void CyBle_ReadResponseEventHandler(CYBLE_GATTC_READ_RSP_PARAM_T *eventParam);
  52:.\Generated_Source\PSoC4/alex_BLE_eventHandler.c **** 
  53:.\Generated_Source\PSoC4/alex_BLE_eventHandler.c **** #endif /* CYBLE_GATT_ROLE_CLIENT */
  54:.\Generated_Source\PSoC4/alex_BLE_eventHandler.c **** 
  55:.\Generated_Source\PSoC4/alex_BLE_eventHandler.c **** 
  56:.\Generated_Source\PSoC4/alex_BLE_eventHandler.c **** /***************************************
  57:.\Generated_Source\PSoC4/alex_BLE_eventHandler.c **** * Global Variables
  58:.\Generated_Source\PSoC4/alex_BLE_eventHandler.c **** ***************************************/
  59:.\Generated_Source\PSoC4/alex_BLE_eventHandler.c **** 
  60:.\Generated_Source\PSoC4/alex_BLE_eventHandler.c **** /* This global variable is initialized after connection with peer device, 
  61:.\Generated_Source\PSoC4/alex_BLE_eventHandler.c ****    after CYBLE_EVT_GATT_CONNECT_IND event, and could be used by application code
  62:.\Generated_Source\PSoC4/alex_BLE_eventHandler.c ****    to send data to peer device. 
  63:.\Generated_Source\PSoC4/alex_BLE_eventHandler.c **** */
  64:.\Generated_Source\PSoC4/alex_BLE_eventHandler.c **** CYBLE_CONN_HANDLE_T cyBle_connHandle;
  65:.\Generated_Source\PSoC4/alex_BLE_eventHandler.c **** 
  66:.\Generated_Source\PSoC4/alex_BLE_eventHandler.c **** volatile uint8 cyBle_eventHandlerFlag;
  67:.\Generated_Source\PSoC4/alex_BLE_eventHandler.c **** volatile uint8 cyBle_busyStatus;
  68:.\Generated_Source\PSoC4/alex_BLE_eventHandler.c **** 
  69:.\Generated_Source\PSoC4/alex_BLE_eventHandler.c **** #if(CYBLE_GAP_ROLE_PERIPHERAL || CYBLE_GAP_ROLE_BROADCASTER) 
  70:.\Generated_Source\PSoC4/alex_BLE_eventHandler.c ****     uint8 cyBle_advertisingIntervalType;
  71:.\Generated_Source\PSoC4/alex_BLE_eventHandler.c **** #endif /* CYBLE_GAP_ROLE_PERIPHERAL || CYBLE_GAP_ROLE_BROADCASTER) */
  72:.\Generated_Source\PSoC4/alex_BLE_eventHandler.c **** 
  73:.\Generated_Source\PSoC4/alex_BLE_eventHandler.c **** #if(CYBLE_GAP_ROLE_CENTRAL || CYBLE_GAP_ROLE_OBSERVER) 
  74:.\Generated_Source\PSoC4/alex_BLE_eventHandler.c ****     uint8 cyBle_scanningIntervalType;
  75:.\Generated_Source\PSoC4/alex_BLE_eventHandler.c **** #endif /* CYBLE_GAP_ROLE_CENTRAL || CYBLE_GAP_ROLE_OBSERVER */
  76:.\Generated_Source\PSoC4/alex_BLE_eventHandler.c **** 
  77:.\Generated_Source\PSoC4/alex_BLE_eventHandler.c **** #if(CYBLE_GATT_ROLE_SERVER)
  78:.\Generated_Source\PSoC4/alex_BLE_eventHandler.c **** #if defined CYBLE_CTS_SERVER || defined CYBLE_ESS_SERVER
  79:.\Generated_Source\PSoC4/alex_BLE_eventHandler.c **** CYBLE_GATT_ERR_CODE_T cyBle_gattError;
  80:.\Generated_Source\PSoC4/alex_BLE_eventHandler.c **** #endif /* defined CYBLE_CTS_SERVER || defined CYBLE_ESS_SERVER */
  81:.\Generated_Source\PSoC4/alex_BLE_eventHandler.c **** #endif /* CYBLE_GATT_ROLE_SERVER */
  82:.\Generated_Source\PSoC4/alex_BLE_eventHandler.c **** 
  83:.\Generated_Source\PSoC4/alex_BLE_eventHandler.c **** #if(CYBLE_GATT_ROLE_CLIENT)
  84:.\Generated_Source\PSoC4/alex_BLE_eventHandler.c **** uint8 cyBle_disCount; /* Counter for discovery procedures */
  85:.\Generated_Source\PSoC4/alex_BLE_eventHandler.c **** static CYBLE_GATT_DB_ATTR_HANDLE_T cyBle_charEndHandle;
  86:.\Generated_Source\PSoC4/alex_BLE_eventHandler.c **** /* Discovery included service information, used for 128-bit UUID read response handle 
  87:.\Generated_Source\PSoC4/alex_BLE_eventHandler.c ****    and for continue discovery. 
  88:.\Generated_Source\PSoC4/alex_BLE_eventHandler.c **** */
  89:.\Generated_Source\PSoC4/alex_BLE_eventHandler.c **** static CYBLE_DISC_INCL_INFO_T cyBle_discInclInfo;
  90:.\Generated_Source\PSoC4/alex_BLE_eventHandler.c **** #ifdef CYBLE_HIDS_CLIENT
ARM GAS  C:\Users\a\AppData\Local\Temp\ccXpRoQY.s 			page 3


  91:.\Generated_Source\PSoC4/alex_BLE_eventHandler.c ****     static uint8 disServiceIndex;      /* To discovery descriptors for multiple HID service instanc
  92:.\Generated_Source\PSoC4/alex_BLE_eventHandler.c **** #endif /* CYBLE_HIDS_CLIENT */
  93:.\Generated_Source\PSoC4/alex_BLE_eventHandler.c **** 
  94:.\Generated_Source\PSoC4/alex_BLE_eventHandler.c **** CYBLE_DISC_SRVC_INFO_T cyBle_serverInfo[CYBLE_SRVI_COUNT] = /*3*/
  95:.\Generated_Source\PSoC4/alex_BLE_eventHandler.c **** {
  96:.\Generated_Source\PSoC4/alex_BLE_eventHandler.c ****     {{CYBLE_GATT_INVALID_ATTR_HANDLE_VALUE, CYBLE_GATT_INVALID_ATTR_HANDLE_VALUE}, CYBLE_UUID_GAP_S
  97:.\Generated_Source\PSoC4/alex_BLE_eventHandler.c ****     {{CYBLE_GATT_INVALID_ATTR_HANDLE_VALUE, CYBLE_GATT_INVALID_ATTR_HANDLE_VALUE}, CYBLE_UUID_GATT_
  98:.\Generated_Source\PSoC4/alex_BLE_eventHandler.c **** #ifdef CYBLE_ANCS_CLIENT
  99:.\Generated_Source\PSoC4/alex_BLE_eventHandler.c ****     {{CYBLE_GATT_INVALID_ATTR_HANDLE_VALUE, CYBLE_GATT_INVALID_ATTR_HANDLE_VALUE}, 0x0000u},
 100:.\Generated_Source\PSoC4/alex_BLE_eventHandler.c **** #endif /* CYBLE_ANCS_CLIENT */
 101:.\Generated_Source\PSoC4/alex_BLE_eventHandler.c **** #ifdef CYBLE_ANS_CLIENT
 102:.\Generated_Source\PSoC4/alex_BLE_eventHandler.c ****     {{CYBLE_GATT_INVALID_ATTR_HANDLE_VALUE, CYBLE_GATT_INVALID_ATTR_HANDLE_VALUE}, 
 103:.\Generated_Source\PSoC4/alex_BLE_eventHandler.c ****         CYBLE_UUID_ALERT_NOTIFICATION_SERVICE},
 104:.\Generated_Source\PSoC4/alex_BLE_eventHandler.c **** #endif /* CYBLE_ANS_CLIENT */
 105:.\Generated_Source\PSoC4/alex_BLE_eventHandler.c **** #ifdef CYBLE_BAS_CLIENT
 106:.\Generated_Source\PSoC4/alex_BLE_eventHandler.c ****     {{CYBLE_GATT_INVALID_ATTR_HANDLE_VALUE, CYBLE_GATT_INVALID_ATTR_HANDLE_VALUE}, CYBLE_UUID_BAS_S
 107:.\Generated_Source\PSoC4/alex_BLE_eventHandler.c ****     #if(CYBLE_BASC_SERVICE_COUNT > 1u) /* Generate it by GUI */
 108:.\Generated_Source\PSoC4/alex_BLE_eventHandler.c ****         
 109:.\Generated_Source\PSoC4/alex_BLE_eventHandler.c ****     #endif /* CYBLE_BASC_SERVICE_COUNT > 1u */
 110:.\Generated_Source\PSoC4/alex_BLE_eventHandler.c **** #endif /* CYBLE_BAS_CLIENT */
 111:.\Generated_Source\PSoC4/alex_BLE_eventHandler.c **** #ifdef CYBLE_BCS_CLIENT
 112:.\Generated_Source\PSoC4/alex_BLE_eventHandler.c ****     {{CYBLE_GATT_INVALID_ATTR_HANDLE_VALUE, CYBLE_GATT_INVALID_ATTR_HANDLE_VALUE}, CYBLE_UUID_BODY_
 113:.\Generated_Source\PSoC4/alex_BLE_eventHandler.c **** #endif /* CYBLE_BCS_CLIENT */
 114:.\Generated_Source\PSoC4/alex_BLE_eventHandler.c **** #ifdef CYBLE_BLS_CLIENT
 115:.\Generated_Source\PSoC4/alex_BLE_eventHandler.c ****     {{CYBLE_GATT_INVALID_ATTR_HANDLE_VALUE, CYBLE_GATT_INVALID_ATTR_HANDLE_VALUE}, CYBLE_UUID_BLOOD
 116:.\Generated_Source\PSoC4/alex_BLE_eventHandler.c **** #endif /* CYBLE_BLS_CLIENT */
 117:.\Generated_Source\PSoC4/alex_BLE_eventHandler.c **** #ifdef CYBLE_BMS_CLIENT
 118:.\Generated_Source\PSoC4/alex_BLE_eventHandler.c ****     {{CYBLE_GATT_INVALID_ATTR_HANDLE_VALUE, CYBLE_GATT_INVALID_ATTR_HANDLE_VALUE}, CYBLE_UUID_BOND_
 119:.\Generated_Source\PSoC4/alex_BLE_eventHandler.c **** #endif /* CYBLE_BMS_CLIENT */
 120:.\Generated_Source\PSoC4/alex_BLE_eventHandler.c **** #ifdef CYBLE_CGMS_CLIENT
 121:.\Generated_Source\PSoC4/alex_BLE_eventHandler.c ****     {{CYBLE_GATT_INVALID_ATTR_HANDLE_VALUE, CYBLE_GATT_INVALID_ATTR_HANDLE_VALUE}, CYBLE_UUID_CGM_S
 122:.\Generated_Source\PSoC4/alex_BLE_eventHandler.c **** #endif /* CYBLE_CGMS_CLIENT */
 123:.\Generated_Source\PSoC4/alex_BLE_eventHandler.c **** #ifdef CYBLE_CPS_CLIENT
 124:.\Generated_Source\PSoC4/alex_BLE_eventHandler.c ****     {{CYBLE_GATT_INVALID_ATTR_HANDLE_VALUE, CYBLE_GATT_INVALID_ATTR_HANDLE_VALUE}, CYBLE_UUID_CPS_S
 125:.\Generated_Source\PSoC4/alex_BLE_eventHandler.c **** #endif /* CYBLE_CPS_CLIENT */
 126:.\Generated_Source\PSoC4/alex_BLE_eventHandler.c **** #ifdef CYBLE_CSCS_CLIENT
 127:.\Generated_Source\PSoC4/alex_BLE_eventHandler.c ****     {{CYBLE_GATT_INVALID_ATTR_HANDLE_VALUE, CYBLE_GATT_INVALID_ATTR_HANDLE_VALUE}, 
 128:.\Generated_Source\PSoC4/alex_BLE_eventHandler.c ****         CYBLE_UUID_CYCLING_SPEED_AND_CADENCE_SERVICE},
 129:.\Generated_Source\PSoC4/alex_BLE_eventHandler.c **** #endif /* CYBLE_CSCS_CLIENT */
 130:.\Generated_Source\PSoC4/alex_BLE_eventHandler.c **** #ifdef CYBLE_CTS_CLIENT
 131:.\Generated_Source\PSoC4/alex_BLE_eventHandler.c ****     {{CYBLE_GATT_INVALID_ATTR_HANDLE_VALUE, CYBLE_GATT_INVALID_ATTR_HANDLE_VALUE}, CYBLE_UUID_CURRE
 132:.\Generated_Source\PSoC4/alex_BLE_eventHandler.c **** #endif /* CYBLE_CTS_CLIENT */
 133:.\Generated_Source\PSoC4/alex_BLE_eventHandler.c **** #ifdef CYBLE_CUSTOM_CLIENT
 134:.\Generated_Source\PSoC4/alex_BLE_eventHandler.c ****     
 135:.\Generated_Source\PSoC4/alex_BLE_eventHandler.c **** #endif /* CYBLE_CUSTOM_CLIENT */
 136:.\Generated_Source\PSoC4/alex_BLE_eventHandler.c **** #ifdef CYBLE_DIS_CLIENT
 137:.\Generated_Source\PSoC4/alex_BLE_eventHandler.c ****     {{CYBLE_GATT_INVALID_ATTR_HANDLE_VALUE, CYBLE_GATT_INVALID_ATTR_HANDLE_VALUE}, CYBLE_UUID_DEVIC
 138:.\Generated_Source\PSoC4/alex_BLE_eventHandler.c **** #endif /* CYBLE_DIS_CLIENT */
 139:.\Generated_Source\PSoC4/alex_BLE_eventHandler.c **** #ifdef CYBLE_ESS_CLIENT
 140:.\Generated_Source\PSoC4/alex_BLE_eventHandler.c ****     {{CYBLE_GATT_INVALID_ATTR_HANDLE_VALUE, CYBLE_GATT_INVALID_ATTR_HANDLE_VALUE}, 
 141:.\Generated_Source\PSoC4/alex_BLE_eventHandler.c ****         CYBLE_UUID_ENVIRONMENTAL_SENSING_SERVICE},
 142:.\Generated_Source\PSoC4/alex_BLE_eventHandler.c **** #endif /* CYBLE_ESS_CLIENT */
 143:.\Generated_Source\PSoC4/alex_BLE_eventHandler.c **** #ifdef CYBLE_GLS_CLIENT
 144:.\Generated_Source\PSoC4/alex_BLE_eventHandler.c ****     {{CYBLE_GATT_INVALID_ATTR_HANDLE_VALUE, CYBLE_GATT_INVALID_ATTR_HANDLE_VALUE}, CYBLE_UUID_GLUCO
 145:.\Generated_Source\PSoC4/alex_BLE_eventHandler.c **** #endif /* CYBLE_GLS_CLIENT */
 146:.\Generated_Source\PSoC4/alex_BLE_eventHandler.c **** #ifdef CYBLE_HIDS_CLIENT
 147:.\Generated_Source\PSoC4/alex_BLE_eventHandler.c ****     {{CYBLE_GATT_INVALID_ATTR_HANDLE_VALUE, CYBLE_GATT_INVALID_ATTR_HANDLE_VALUE}, CYBLE_UUID_HIDS_
ARM GAS  C:\Users\a\AppData\Local\Temp\ccXpRoQY.s 			page 4


 148:.\Generated_Source\PSoC4/alex_BLE_eventHandler.c ****     #if(CYBLE_HIDSC_SERVICE_COUNT > 1u) /* Generate it by GUI */
 149:.\Generated_Source\PSoC4/alex_BLE_eventHandler.c ****         
 150:.\Generated_Source\PSoC4/alex_BLE_eventHandler.c ****     #endif /* CYBLE_HIDSC_SERVICE_COUNT > 1u */
 151:.\Generated_Source\PSoC4/alex_BLE_eventHandler.c **** #endif /* CYBLE_HIDS_CLIENT */
 152:.\Generated_Source\PSoC4/alex_BLE_eventHandler.c **** #ifdef CYBLE_HRS_CLIENT
 153:.\Generated_Source\PSoC4/alex_BLE_eventHandler.c ****     {{CYBLE_GATT_INVALID_ATTR_HANDLE_VALUE, CYBLE_GATT_INVALID_ATTR_HANDLE_VALUE}, CYBLE_UUID_HEART
 154:.\Generated_Source\PSoC4/alex_BLE_eventHandler.c **** #endif /* CYBLE_HRS_CLIENT */
 155:.\Generated_Source\PSoC4/alex_BLE_eventHandler.c **** #ifdef CYBLE_HTS_CLIENT
 156:.\Generated_Source\PSoC4/alex_BLE_eventHandler.c ****     {{CYBLE_GATT_INVALID_ATTR_HANDLE_VALUE, CYBLE_GATT_INVALID_ATTR_HANDLE_VALUE}, CYBLE_UUID_HEALT
 157:.\Generated_Source\PSoC4/alex_BLE_eventHandler.c **** #endif /* CYBLE_HTS_CLIENT */
 158:.\Generated_Source\PSoC4/alex_BLE_eventHandler.c **** #ifdef CYBLE_IAS_CLIENT
 159:.\Generated_Source\PSoC4/alex_BLE_eventHandler.c ****     {{CYBLE_GATT_INVALID_ATTR_HANDLE_VALUE, CYBLE_GATT_INVALID_ATTR_HANDLE_VALUE}, CYBLE_UUID_IMMED
 160:.\Generated_Source\PSoC4/alex_BLE_eventHandler.c **** #endif /* CYBLE_IAS_CLIENT */
 161:.\Generated_Source\PSoC4/alex_BLE_eventHandler.c **** #ifdef CYBLE_LLS_CLIENT
 162:.\Generated_Source\PSoC4/alex_BLE_eventHandler.c ****     {{CYBLE_GATT_INVALID_ATTR_HANDLE_VALUE, CYBLE_GATT_INVALID_ATTR_HANDLE_VALUE}, CYBLE_UUID_LINK_
 163:.\Generated_Source\PSoC4/alex_BLE_eventHandler.c **** #endif /* CYBLE_LLS_CLIENT */
 164:.\Generated_Source\PSoC4/alex_BLE_eventHandler.c **** #ifdef CYBLE_LNS_CLIENT
 165:.\Generated_Source\PSoC4/alex_BLE_eventHandler.c ****     {{CYBLE_GATT_INVALID_ATTR_HANDLE_VALUE, CYBLE_GATT_INVALID_ATTR_HANDLE_VALUE}, CYBLE_UUID_LOCAT
 166:.\Generated_Source\PSoC4/alex_BLE_eventHandler.c **** #endif /* CYBLE_LNS_CLIENT */
 167:.\Generated_Source\PSoC4/alex_BLE_eventHandler.c **** #ifdef CYBLE_NDCS_CLIENT
 168:.\Generated_Source\PSoC4/alex_BLE_eventHandler.c ****     {{CYBLE_GATT_INVALID_ATTR_HANDLE_VALUE, CYBLE_GATT_INVALID_ATTR_HANDLE_VALUE}, CYBLE_UUID_NEXT_
 169:.\Generated_Source\PSoC4/alex_BLE_eventHandler.c **** #endif /* CYBLE_NDCS_CLIENT */
 170:.\Generated_Source\PSoC4/alex_BLE_eventHandler.c **** #ifdef CYBLE_IPSS_CLIENT
 171:.\Generated_Source\PSoC4/alex_BLE_eventHandler.c ****     {{CYBLE_GATT_INVALID_ATTR_HANDLE_VALUE, CYBLE_GATT_INVALID_ATTR_HANDLE_VALUE}, CYBLE_UUID_INTER
 172:.\Generated_Source\PSoC4/alex_BLE_eventHandler.c **** #endif /* CYBLE_IPSS_CLIENT */
 173:.\Generated_Source\PSoC4/alex_BLE_eventHandler.c **** #ifdef CYBLE_PASS_CLIENT
 174:.\Generated_Source\PSoC4/alex_BLE_eventHandler.c ****     {{CYBLE_GATT_INVALID_ATTR_HANDLE_VALUE, CYBLE_GATT_INVALID_ATTR_HANDLE_VALUE}, CYBLE_UUID_PHONE
 175:.\Generated_Source\PSoC4/alex_BLE_eventHandler.c **** #endif /* CYBLE_PASS_CLIENT */
 176:.\Generated_Source\PSoC4/alex_BLE_eventHandler.c **** #ifdef CYBLE_RSCS_CLIENT
 177:.\Generated_Source\PSoC4/alex_BLE_eventHandler.c ****     {{CYBLE_GATT_INVALID_ATTR_HANDLE_VALUE, CYBLE_GATT_INVALID_ATTR_HANDLE_VALUE}, CYBLE_UUID_RUNNI
 178:.\Generated_Source\PSoC4/alex_BLE_eventHandler.c **** #endif /* CYBLE_RSCS_CLIENT */
 179:.\Generated_Source\PSoC4/alex_BLE_eventHandler.c **** #ifdef CYBLE_RTUS_CLIENT
 180:.\Generated_Source\PSoC4/alex_BLE_eventHandler.c ****     {{CYBLE_GATT_INVALID_ATTR_HANDLE_VALUE, CYBLE_GATT_INVALID_ATTR_HANDLE_VALUE}, CYBLE_UUID_REF_T
 181:.\Generated_Source\PSoC4/alex_BLE_eventHandler.c **** #endif /* CYBLE_RTUS_CLIENT */
 182:.\Generated_Source\PSoC4/alex_BLE_eventHandler.c **** #ifdef CYBLE_SCPS_CLIENT
 183:.\Generated_Source\PSoC4/alex_BLE_eventHandler.c ****     {{CYBLE_GATT_INVALID_ATTR_HANDLE_VALUE, CYBLE_GATT_INVALID_ATTR_HANDLE_VALUE}, CYBLE_UUID_SCAN_
 184:.\Generated_Source\PSoC4/alex_BLE_eventHandler.c **** #endif /* CYBLE_SCPS_CLIENT */
 185:.\Generated_Source\PSoC4/alex_BLE_eventHandler.c **** #ifdef CYBLE_TPS_CLIENT
 186:.\Generated_Source\PSoC4/alex_BLE_eventHandler.c ****     {{CYBLE_GATT_INVALID_ATTR_HANDLE_VALUE, CYBLE_GATT_INVALID_ATTR_HANDLE_VALUE}, CYBLE_UUID_TX_PO
 187:.\Generated_Source\PSoC4/alex_BLE_eventHandler.c **** #endif /* CYBLE_TPS_CLIENT */
 188:.\Generated_Source\PSoC4/alex_BLE_eventHandler.c **** #ifdef CYBLE_UDS_CLIENT
 189:.\Generated_Source\PSoC4/alex_BLE_eventHandler.c ****     {{CYBLE_GATT_INVALID_ATTR_HANDLE_VALUE, CYBLE_GATT_INVALID_ATTR_HANDLE_VALUE}, CYBLE_UUID_USER_
 190:.\Generated_Source\PSoC4/alex_BLE_eventHandler.c **** #endif /* CYBLE_UDS_CLIENT */
 191:.\Generated_Source\PSoC4/alex_BLE_eventHandler.c **** #ifdef CYBLE_WSS_CLIENT
 192:.\Generated_Source\PSoC4/alex_BLE_eventHandler.c ****     {{CYBLE_GATT_INVALID_ATTR_HANDLE_VALUE, CYBLE_GATT_INVALID_ATTR_HANDLE_VALUE}, CYBLE_UUID_WEIGH
 193:.\Generated_Source\PSoC4/alex_BLE_eventHandler.c **** #endif /* CYBLE_WSS_CLIENT */
 194:.\Generated_Source\PSoC4/alex_BLE_eventHandler.c **** #ifdef CYBLE_WPTS_CLIENT
 195:.\Generated_Source\PSoC4/alex_BLE_eventHandler.c ****     {{CYBLE_GATT_INVALID_ATTR_HANDLE_VALUE, CYBLE_GATT_INVALID_ATTR_HANDLE_VALUE}, CYBLE_UUID_WIREL
 196:.\Generated_Source\PSoC4/alex_BLE_eventHandler.c **** #endif /* CYBLE_WPTS_CLIENT */
 197:.\Generated_Source\PSoC4/alex_BLE_eventHandler.c **** };
 198:.\Generated_Source\PSoC4/alex_BLE_eventHandler.c **** 
 199:.\Generated_Source\PSoC4/alex_BLE_eventHandler.c **** CYBLE_GAPC_T cyBle_gapc;
 200:.\Generated_Source\PSoC4/alex_BLE_eventHandler.c **** 
 201:.\Generated_Source\PSoC4/alex_BLE_eventHandler.c **** #endif /* CYBLE_GATT_ROLE_CLIENT */
 202:.\Generated_Source\PSoC4/alex_BLE_eventHandler.c **** 
 203:.\Generated_Source\PSoC4/alex_BLE_eventHandler.c **** /* Default device security */
 204:.\Generated_Source\PSoC4/alex_BLE_eventHandler.c **** CYBLE_GAP_AUTH_INFO_T cyBle_authInfo =
ARM GAS  C:\Users\a\AppData\Local\Temp\ccXpRoQY.s 			page 5


 205:.\Generated_Source\PSoC4/alex_BLE_eventHandler.c **** {
 206:.\Generated_Source\PSoC4/alex_BLE_eventHandler.c ****     (CYBLE_GAP_SEC_MODE_1 | CYBLE_GAP_SEC_LEVEL_1 ), /* uint8 security */
 207:.\Generated_Source\PSoC4/alex_BLE_eventHandler.c ****     CYBLE_GAP_BONDING_NONE, /* uint8 bonding */
 208:.\Generated_Source\PSoC4/alex_BLE_eventHandler.c ****     0x10u,      /* uint8 ekeySize */
 209:.\Generated_Source\PSoC4/alex_BLE_eventHandler.c ****     CYBLE_GAP_AUTH_ERROR_NONE, /* CYBLE_AUTH_FAILED_REASON_T authErr */
 210:.\Generated_Source\PSoC4/alex_BLE_eventHandler.c **** };
 211:.\Generated_Source\PSoC4/alex_BLE_eventHandler.c **** 
 212:.\Generated_Source\PSoC4/alex_BLE_eventHandler.c **** #if(CYBLE_GATT_ROLE_SERVER)
 213:.\Generated_Source\PSoC4/alex_BLE_eventHandler.c **** 
 214:.\Generated_Source\PSoC4/alex_BLE_eventHandler.c **** 
 215:.\Generated_Source\PSoC4/alex_BLE_eventHandler.c **** /******************************************************************************    
 216:.\Generated_Source\PSoC4/alex_BLE_eventHandler.c **** * Function Name: CyBle_WriteReqHandler
 217:.\Generated_Source\PSoC4/alex_BLE_eventHandler.c **** ***************************************************************************//**
 218:.\Generated_Source\PSoC4/alex_BLE_eventHandler.c **** * 
 219:.\Generated_Source\PSoC4/alex_BLE_eventHandler.c **** *  Handles the Write Request event from BLE stack.
 220:.\Generated_Source\PSoC4/alex_BLE_eventHandler.c **** * 
 221:.\Generated_Source\PSoC4/alex_BLE_eventHandler.c **** *  CYBLE_GATTS_WRITE_REQ_PARAM_T * eventParam - event parameter
 222:.\Generated_Source\PSoC4/alex_BLE_eventHandler.c **** * 
 223:.\Generated_Source\PSoC4/alex_BLE_eventHandler.c **** * \return
 224:.\Generated_Source\PSoC4/alex_BLE_eventHandler.c **** *  None
 225:.\Generated_Source\PSoC4/alex_BLE_eventHandler.c **** * 
 226:.\Generated_Source\PSoC4/alex_BLE_eventHandler.c **** ******************************************************************************/
 227:.\Generated_Source\PSoC4/alex_BLE_eventHandler.c **** static void CyBle_WriteReqHandler(CYBLE_GATTS_WRITE_REQ_PARAM_T *eventParam)
 228:.\Generated_Source\PSoC4/alex_BLE_eventHandler.c **** {
 229:.\Generated_Source\PSoC4/alex_BLE_eventHandler.c ****     CYBLE_GATT_ERR_CODE_T gattErr;
 230:.\Generated_Source\PSoC4/alex_BLE_eventHandler.c **** #if defined CYBLE_CTS_SERVER || defined CYBLE_ESS_SERVER
 231:.\Generated_Source\PSoC4/alex_BLE_eventHandler.c ****     cyBle_gattError = CYBLE_GATT_ERR_NONE;
 232:.\Generated_Source\PSoC4/alex_BLE_eventHandler.c **** #endif /* defined CYBLE_CTS_SERVER || defined CYBLE_ESS_SERVER */
 233:.\Generated_Source\PSoC4/alex_BLE_eventHandler.c ****     
 234:.\Generated_Source\PSoC4/alex_BLE_eventHandler.c ****     gattErr = CyBle_GattsWriteEventHandler(eventParam);
 235:.\Generated_Source\PSoC4/alex_BLE_eventHandler.c **** #ifdef CYBLE_ANCS_SERVER
 236:.\Generated_Source\PSoC4/alex_BLE_eventHandler.c ****     if(((cyBle_eventHandlerFlag & CYBLE_CALLBACK) != 0u) && (gattErr == CYBLE_GATT_ERR_NONE))
 237:.\Generated_Source\PSoC4/alex_BLE_eventHandler.c ****     {
 238:.\Generated_Source\PSoC4/alex_BLE_eventHandler.c ****         gattErr = CyBle_AncssWriteEventHandler(eventParam);
 239:.\Generated_Source\PSoC4/alex_BLE_eventHandler.c ****     }
 240:.\Generated_Source\PSoC4/alex_BLE_eventHandler.c **** #endif /* CYBLE_ANCS_SERVER */
 241:.\Generated_Source\PSoC4/alex_BLE_eventHandler.c **** #ifdef CYBLE_ANS_SERVER
 242:.\Generated_Source\PSoC4/alex_BLE_eventHandler.c ****     if(((cyBle_eventHandlerFlag & CYBLE_CALLBACK) != 0u) && (gattErr == CYBLE_GATT_ERR_NONE))
 243:.\Generated_Source\PSoC4/alex_BLE_eventHandler.c ****     {
 244:.\Generated_Source\PSoC4/alex_BLE_eventHandler.c ****         gattErr = CyBle_AnssWriteEventHandler(eventParam);
 245:.\Generated_Source\PSoC4/alex_BLE_eventHandler.c ****     }
 246:.\Generated_Source\PSoC4/alex_BLE_eventHandler.c **** #endif /* CYBLE_ANS_SERVER */
 247:.\Generated_Source\PSoC4/alex_BLE_eventHandler.c **** #ifdef CYBLE_BAS_SERVER
 248:.\Generated_Source\PSoC4/alex_BLE_eventHandler.c ****     if(((cyBle_eventHandlerFlag & CYBLE_CALLBACK) != 0u) && (gattErr == CYBLE_GATT_ERR_NONE))
 249:.\Generated_Source\PSoC4/alex_BLE_eventHandler.c ****     {
 250:.\Generated_Source\PSoC4/alex_BLE_eventHandler.c ****         gattErr = CyBle_BassWriteEventHandler(eventParam);
 251:.\Generated_Source\PSoC4/alex_BLE_eventHandler.c ****     }
 252:.\Generated_Source\PSoC4/alex_BLE_eventHandler.c **** #endif /* CYBLE_BAS_SERVER */
 253:.\Generated_Source\PSoC4/alex_BLE_eventHandler.c **** #ifdef CYBLE_BCS_SERVER
 254:.\Generated_Source\PSoC4/alex_BLE_eventHandler.c ****     if(((cyBle_eventHandlerFlag & CYBLE_CALLBACK) != 0u) && (gattErr == CYBLE_GATT_ERR_NONE))
 255:.\Generated_Source\PSoC4/alex_BLE_eventHandler.c ****     {
 256:.\Generated_Source\PSoC4/alex_BLE_eventHandler.c ****         gattErr = CyBle_BcssWriteEventHandler(eventParam);
 257:.\Generated_Source\PSoC4/alex_BLE_eventHandler.c ****     }
 258:.\Generated_Source\PSoC4/alex_BLE_eventHandler.c **** #endif /* CYBLE_BCS_SERVER */
 259:.\Generated_Source\PSoC4/alex_BLE_eventHandler.c **** #ifdef CYBLE_BLS_SERVER
 260:.\Generated_Source\PSoC4/alex_BLE_eventHandler.c ****     if(((cyBle_eventHandlerFlag & CYBLE_CALLBACK) != 0u) && (gattErr == CYBLE_GATT_ERR_NONE))
 261:.\Generated_Source\PSoC4/alex_BLE_eventHandler.c ****     {
ARM GAS  C:\Users\a\AppData\Local\Temp\ccXpRoQY.s 			page 6


 262:.\Generated_Source\PSoC4/alex_BLE_eventHandler.c ****         gattErr = CyBle_BlssWriteEventHandler(eventParam);
 263:.\Generated_Source\PSoC4/alex_BLE_eventHandler.c ****     }
 264:.\Generated_Source\PSoC4/alex_BLE_eventHandler.c **** #endif /* CYBLE_BLS_SERVER */
 265:.\Generated_Source\PSoC4/alex_BLE_eventHandler.c **** #ifdef CYBLE_BMS_SERVER
 266:.\Generated_Source\PSoC4/alex_BLE_eventHandler.c ****     if(((cyBle_eventHandlerFlag & CYBLE_CALLBACK) != 0u) && (gattErr == CYBLE_GATT_ERR_NONE))
 267:.\Generated_Source\PSoC4/alex_BLE_eventHandler.c ****     {
 268:.\Generated_Source\PSoC4/alex_BLE_eventHandler.c ****         gattErr = CyBle_BmssWriteEventHandler(eventParam);
 269:.\Generated_Source\PSoC4/alex_BLE_eventHandler.c ****     }
 270:.\Generated_Source\PSoC4/alex_BLE_eventHandler.c **** #endif /* CYBLE_BMS_SERVER */
 271:.\Generated_Source\PSoC4/alex_BLE_eventHandler.c **** #ifdef CYBLE_BTS_SERVER
 272:.\Generated_Source\PSoC4/alex_BLE_eventHandler.c ****     if((cyBle_eventHandlerFlag & CYBLE_CALLBACK) != 0u)
 273:.\Generated_Source\PSoC4/alex_BLE_eventHandler.c ****     {
 274:.\Generated_Source\PSoC4/alex_BLE_eventHandler.c ****         gattErr = CyBle_BtsWriteEventHandler(eventParam);
 275:.\Generated_Source\PSoC4/alex_BLE_eventHandler.c ****     }
 276:.\Generated_Source\PSoC4/alex_BLE_eventHandler.c **** #endif /* CYBLE_BTS_SERVER */
 277:.\Generated_Source\PSoC4/alex_BLE_eventHandler.c **** #ifdef CYBLE_CGMS_SERVER
 278:.\Generated_Source\PSoC4/alex_BLE_eventHandler.c ****     if(((cyBle_eventHandlerFlag & CYBLE_CALLBACK) != 0u) && (gattErr == CYBLE_GATT_ERR_NONE))
 279:.\Generated_Source\PSoC4/alex_BLE_eventHandler.c ****     {
 280:.\Generated_Source\PSoC4/alex_BLE_eventHandler.c ****         gattErr = CyBle_CgmssWriteEventHandler(eventParam);
 281:.\Generated_Source\PSoC4/alex_BLE_eventHandler.c ****     }
 282:.\Generated_Source\PSoC4/alex_BLE_eventHandler.c **** #endif /* CYBLE_CGMS_SERVER */
 283:.\Generated_Source\PSoC4/alex_BLE_eventHandler.c **** #ifdef CYBLE_CPS_SERVER
 284:.\Generated_Source\PSoC4/alex_BLE_eventHandler.c ****     if(((cyBle_eventHandlerFlag & CYBLE_CALLBACK) != 0u) && (gattErr == CYBLE_GATT_ERR_NONE))
 285:.\Generated_Source\PSoC4/alex_BLE_eventHandler.c ****     {
 286:.\Generated_Source\PSoC4/alex_BLE_eventHandler.c ****         gattErr = CyBle_CpssWriteEventHandler(eventParam);
 287:.\Generated_Source\PSoC4/alex_BLE_eventHandler.c ****     }
 288:.\Generated_Source\PSoC4/alex_BLE_eventHandler.c **** #endif /* CYBLE_CPS_SERVER */
 289:.\Generated_Source\PSoC4/alex_BLE_eventHandler.c **** #ifdef CYBLE_CSCS_SERVER
 290:.\Generated_Source\PSoC4/alex_BLE_eventHandler.c ****     if(((cyBle_eventHandlerFlag & CYBLE_CALLBACK) != 0u) && (gattErr == CYBLE_GATT_ERR_NONE))
 291:.\Generated_Source\PSoC4/alex_BLE_eventHandler.c ****     {
 292:.\Generated_Source\PSoC4/alex_BLE_eventHandler.c ****         gattErr = CyBle_CscssWriteEventHandler(eventParam);
 293:.\Generated_Source\PSoC4/alex_BLE_eventHandler.c ****     }
 294:.\Generated_Source\PSoC4/alex_BLE_eventHandler.c **** #endif /* CYBLE_CSCS_SERVER */
 295:.\Generated_Source\PSoC4/alex_BLE_eventHandler.c **** #ifdef CYBLE_CTS_SERVER
 296:.\Generated_Source\PSoC4/alex_BLE_eventHandler.c ****     if(((cyBle_eventHandlerFlag & CYBLE_CALLBACK) != 0u) && (gattErr == CYBLE_GATT_ERR_NONE))
 297:.\Generated_Source\PSoC4/alex_BLE_eventHandler.c ****     {
 298:.\Generated_Source\PSoC4/alex_BLE_eventHandler.c ****         gattErr = CyBle_CtssWriteEventHandler(eventParam);
 299:.\Generated_Source\PSoC4/alex_BLE_eventHandler.c ****     }
 300:.\Generated_Source\PSoC4/alex_BLE_eventHandler.c **** #endif /* CYBLE_CTS_SERVER */
 301:.\Generated_Source\PSoC4/alex_BLE_eventHandler.c **** #ifdef CYBLE_ESS_SERVER
 302:.\Generated_Source\PSoC4/alex_BLE_eventHandler.c ****     if(((cyBle_eventHandlerFlag & CYBLE_CALLBACK) != 0u) && (gattErr == CYBLE_GATT_ERR_NONE))
 303:.\Generated_Source\PSoC4/alex_BLE_eventHandler.c ****     {
 304:.\Generated_Source\PSoC4/alex_BLE_eventHandler.c ****         gattErr = CyBle_EsssWriteEventHandler(eventParam);
 305:.\Generated_Source\PSoC4/alex_BLE_eventHandler.c ****     }
 306:.\Generated_Source\PSoC4/alex_BLE_eventHandler.c **** #endif /* CYBLE_ESS_SERVER */
 307:.\Generated_Source\PSoC4/alex_BLE_eventHandler.c **** #ifdef CYBLE_GLS_SERVER
 308:.\Generated_Source\PSoC4/alex_BLE_eventHandler.c ****     if(((cyBle_eventHandlerFlag & CYBLE_CALLBACK) != 0u) && (gattErr == CYBLE_GATT_ERR_NONE))
 309:.\Generated_Source\PSoC4/alex_BLE_eventHandler.c ****     {
 310:.\Generated_Source\PSoC4/alex_BLE_eventHandler.c ****         gattErr = CyBle_GlssWriteEventHandler(eventParam);
 311:.\Generated_Source\PSoC4/alex_BLE_eventHandler.c ****     }
 312:.\Generated_Source\PSoC4/alex_BLE_eventHandler.c **** #endif /* CYBLE_GLS_SERVER */
 313:.\Generated_Source\PSoC4/alex_BLE_eventHandler.c **** #ifdef CYBLE_HIDS_SERVER
 314:.\Generated_Source\PSoC4/alex_BLE_eventHandler.c ****     if(((cyBle_eventHandlerFlag & CYBLE_CALLBACK) != 0u) && (gattErr == CYBLE_GATT_ERR_NONE))
 315:.\Generated_Source\PSoC4/alex_BLE_eventHandler.c ****     {
 316:.\Generated_Source\PSoC4/alex_BLE_eventHandler.c ****         gattErr = CyBle_HidssWriteEventHandler(eventParam);
 317:.\Generated_Source\PSoC4/alex_BLE_eventHandler.c ****     }
 318:.\Generated_Source\PSoC4/alex_BLE_eventHandler.c **** #endif /* CYBLE_HIDS_SERVER */
ARM GAS  C:\Users\a\AppData\Local\Temp\ccXpRoQY.s 			page 7


 319:.\Generated_Source\PSoC4/alex_BLE_eventHandler.c **** #ifdef CYBLE_HRS_SERVER
 320:.\Generated_Source\PSoC4/alex_BLE_eventHandler.c ****     if(((cyBle_eventHandlerFlag & CYBLE_CALLBACK) != 0u) && (gattErr == CYBLE_GATT_ERR_NONE))
 321:.\Generated_Source\PSoC4/alex_BLE_eventHandler.c ****     {
 322:.\Generated_Source\PSoC4/alex_BLE_eventHandler.c ****         gattErr = CyBle_HrssWriteEventHandler(eventParam);
 323:.\Generated_Source\PSoC4/alex_BLE_eventHandler.c ****     }
 324:.\Generated_Source\PSoC4/alex_BLE_eventHandler.c **** #endif /* CYBLE_HRS_SERVER */
 325:.\Generated_Source\PSoC4/alex_BLE_eventHandler.c **** #ifdef CYBLE_HTS_SERVER
 326:.\Generated_Source\PSoC4/alex_BLE_eventHandler.c ****     if(((cyBle_eventHandlerFlag & CYBLE_CALLBACK) != 0u) && (gattErr == CYBLE_GATT_ERR_NONE))
 327:.\Generated_Source\PSoC4/alex_BLE_eventHandler.c ****     {
 328:.\Generated_Source\PSoC4/alex_BLE_eventHandler.c ****         gattErr = CyBle_HtssWriteEventHandler(eventParam);
 329:.\Generated_Source\PSoC4/alex_BLE_eventHandler.c ****     }
 330:.\Generated_Source\PSoC4/alex_BLE_eventHandler.c **** #endif /* CYBLE_HTS_SERVER */
 331:.\Generated_Source\PSoC4/alex_BLE_eventHandler.c **** #ifdef CYBLE_LLS_SERVER
 332:.\Generated_Source\PSoC4/alex_BLE_eventHandler.c ****     if(((cyBle_eventHandlerFlag & CYBLE_CALLBACK) != 0u) && (gattErr == CYBLE_GATT_ERR_NONE))
 333:.\Generated_Source\PSoC4/alex_BLE_eventHandler.c ****     {
 334:.\Generated_Source\PSoC4/alex_BLE_eventHandler.c ****         gattErr = CyBle_LlssWriteEventHandler(eventParam);
 335:.\Generated_Source\PSoC4/alex_BLE_eventHandler.c ****     }
 336:.\Generated_Source\PSoC4/alex_BLE_eventHandler.c **** #endif /* CYBLE_LLS_SERVER */
 337:.\Generated_Source\PSoC4/alex_BLE_eventHandler.c **** #ifdef CYBLE_LNS_SERVER
 338:.\Generated_Source\PSoC4/alex_BLE_eventHandler.c ****     if(((cyBle_eventHandlerFlag & CYBLE_CALLBACK) != 0u) && (gattErr == CYBLE_GATT_ERR_NONE))
 339:.\Generated_Source\PSoC4/alex_BLE_eventHandler.c ****     {
 340:.\Generated_Source\PSoC4/alex_BLE_eventHandler.c ****         gattErr = CyBle_LnssWriteEventHandler(eventParam);
 341:.\Generated_Source\PSoC4/alex_BLE_eventHandler.c ****     }
 342:.\Generated_Source\PSoC4/alex_BLE_eventHandler.c **** #endif /* CYBLE_LNS_SERVER */
 343:.\Generated_Source\PSoC4/alex_BLE_eventHandler.c **** #ifdef CYBLE_PASS_SERVER
 344:.\Generated_Source\PSoC4/alex_BLE_eventHandler.c ****     if(((cyBle_eventHandlerFlag & CYBLE_CALLBACK) != 0u) && (gattErr == CYBLE_GATT_ERR_NONE))
 345:.\Generated_Source\PSoC4/alex_BLE_eventHandler.c ****     {
 346:.\Generated_Source\PSoC4/alex_BLE_eventHandler.c ****         gattErr = CyBle_PasssWriteEventHandler(eventParam);
 347:.\Generated_Source\PSoC4/alex_BLE_eventHandler.c ****     }
 348:.\Generated_Source\PSoC4/alex_BLE_eventHandler.c **** #endif /* CYBLE_PASS_SERVER */
 349:.\Generated_Source\PSoC4/alex_BLE_eventHandler.c **** #ifdef CYBLE_RSCS_SERVER
 350:.\Generated_Source\PSoC4/alex_BLE_eventHandler.c ****     if(((cyBle_eventHandlerFlag & CYBLE_CALLBACK) != 0u) && (gattErr == CYBLE_GATT_ERR_NONE))
 351:.\Generated_Source\PSoC4/alex_BLE_eventHandler.c ****     {
 352:.\Generated_Source\PSoC4/alex_BLE_eventHandler.c ****         gattErr = CyBle_RscssWriteEventHandler(eventParam);
 353:.\Generated_Source\PSoC4/alex_BLE_eventHandler.c ****     }
 354:.\Generated_Source\PSoC4/alex_BLE_eventHandler.c **** #endif /* CYBLE_RSCS_SERVER */
 355:.\Generated_Source\PSoC4/alex_BLE_eventHandler.c **** #ifdef CYBLE_SCPS_SERVER
 356:.\Generated_Source\PSoC4/alex_BLE_eventHandler.c ****     if(((cyBle_eventHandlerFlag & CYBLE_CALLBACK) != 0u) && (gattErr == CYBLE_GATT_ERR_NONE))
 357:.\Generated_Source\PSoC4/alex_BLE_eventHandler.c ****     {
 358:.\Generated_Source\PSoC4/alex_BLE_eventHandler.c ****         gattErr = CyBle_ScpssWriteEventHandler(eventParam);
 359:.\Generated_Source\PSoC4/alex_BLE_eventHandler.c ****     }
 360:.\Generated_Source\PSoC4/alex_BLE_eventHandler.c **** #endif /* CYBLE_SCPS_SERVER */
 361:.\Generated_Source\PSoC4/alex_BLE_eventHandler.c **** #ifdef CYBLE_TPS_SERVER
 362:.\Generated_Source\PSoC4/alex_BLE_eventHandler.c ****     if(((cyBle_eventHandlerFlag & CYBLE_CALLBACK) != 0u) && (gattErr == CYBLE_GATT_ERR_NONE))
 363:.\Generated_Source\PSoC4/alex_BLE_eventHandler.c ****     {
 364:.\Generated_Source\PSoC4/alex_BLE_eventHandler.c ****         gattErr = CyBle_TpssWriteEventHandler(eventParam);
 365:.\Generated_Source\PSoC4/alex_BLE_eventHandler.c ****     }
 366:.\Generated_Source\PSoC4/alex_BLE_eventHandler.c **** #endif /* CYBLE_TPS_SERVER */
 367:.\Generated_Source\PSoC4/alex_BLE_eventHandler.c **** #ifdef CYBLE_UDS_SERVER
 368:.\Generated_Source\PSoC4/alex_BLE_eventHandler.c ****     if(((cyBle_eventHandlerFlag & CYBLE_CALLBACK) != 0u) && (gattErr == CYBLE_GATT_ERR_NONE))
 369:.\Generated_Source\PSoC4/alex_BLE_eventHandler.c ****     {
 370:.\Generated_Source\PSoC4/alex_BLE_eventHandler.c ****         gattErr = CyBle_UdssWriteEventHandler(eventParam);
 371:.\Generated_Source\PSoC4/alex_BLE_eventHandler.c ****     }
 372:.\Generated_Source\PSoC4/alex_BLE_eventHandler.c **** #endif /* CYBLE_UDS_SERVER */
 373:.\Generated_Source\PSoC4/alex_BLE_eventHandler.c **** #ifdef CYBLE_WPTS_SERVER
 374:.\Generated_Source\PSoC4/alex_BLE_eventHandler.c ****     if(((cyBle_eventHandlerFlag & CYBLE_CALLBACK) != 0u) && (gattErr == CYBLE_GATT_ERR_NONE))
 375:.\Generated_Source\PSoC4/alex_BLE_eventHandler.c ****     {
ARM GAS  C:\Users\a\AppData\Local\Temp\ccXpRoQY.s 			page 8


 376:.\Generated_Source\PSoC4/alex_BLE_eventHandler.c ****         gattErr = CyBle_WptssWriteEventHandler(eventParam);
 377:.\Generated_Source\PSoC4/alex_BLE_eventHandler.c ****     }
 378:.\Generated_Source\PSoC4/alex_BLE_eventHandler.c **** #endif /* CYBLE_WPTS_SERVER */
 379:.\Generated_Source\PSoC4/alex_BLE_eventHandler.c **** #ifdef CYBLE_WSS_SERVER
 380:.\Generated_Source\PSoC4/alex_BLE_eventHandler.c ****     if(((cyBle_eventHandlerFlag & CYBLE_CALLBACK) != 0u) && (gattErr == CYBLE_GATT_ERR_NONE))
 381:.\Generated_Source\PSoC4/alex_BLE_eventHandler.c ****     {
 382:.\Generated_Source\PSoC4/alex_BLE_eventHandler.c ****         gattErr = CyBle_WsssWriteEventHandler(eventParam);
 383:.\Generated_Source\PSoC4/alex_BLE_eventHandler.c ****     }
 384:.\Generated_Source\PSoC4/alex_BLE_eventHandler.c **** #endif /* CYBLE_WSS_SERVER */
 385:.\Generated_Source\PSoC4/alex_BLE_eventHandler.c **** 
 386:.\Generated_Source\PSoC4/alex_BLE_eventHandler.c ****     /* Send response when event was handled by service */
 387:.\Generated_Source\PSoC4/alex_BLE_eventHandler.c ****     if((cyBle_eventHandlerFlag & CYBLE_CALLBACK) == 0u)
 388:.\Generated_Source\PSoC4/alex_BLE_eventHandler.c ****     {
 389:.\Generated_Source\PSoC4/alex_BLE_eventHandler.c ****         if(gattErr != CYBLE_GATT_ERR_NONE)
 390:.\Generated_Source\PSoC4/alex_BLE_eventHandler.c ****         {
 391:.\Generated_Source\PSoC4/alex_BLE_eventHandler.c ****             CYBLE_GATTS_ERR_PARAM_T err_param;
 392:.\Generated_Source\PSoC4/alex_BLE_eventHandler.c ****             
 393:.\Generated_Source\PSoC4/alex_BLE_eventHandler.c ****             err_param.opcode = (uint8) CYBLE_GATT_WRITE_REQ;
 394:.\Generated_Source\PSoC4/alex_BLE_eventHandler.c ****             err_param.attrHandle = eventParam->handleValPair.attrHandle;
 395:.\Generated_Source\PSoC4/alex_BLE_eventHandler.c ****             err_param.errorCode = gattErr;
 396:.\Generated_Source\PSoC4/alex_BLE_eventHandler.c **** 
 397:.\Generated_Source\PSoC4/alex_BLE_eventHandler.c ****             /* Send Error Response */
 398:.\Generated_Source\PSoC4/alex_BLE_eventHandler.c ****             (void)CyBle_GattsErrorRsp(eventParam->connHandle, &err_param);
 399:.\Generated_Source\PSoC4/alex_BLE_eventHandler.c ****         }
 400:.\Generated_Source\PSoC4/alex_BLE_eventHandler.c ****         else
 401:.\Generated_Source\PSoC4/alex_BLE_eventHandler.c ****         {
 402:.\Generated_Source\PSoC4/alex_BLE_eventHandler.c ****             (void)CyBle_GattsWriteRsp(eventParam->connHandle);
 403:.\Generated_Source\PSoC4/alex_BLE_eventHandler.c ****         }
 404:.\Generated_Source\PSoC4/alex_BLE_eventHandler.c ****     }
 405:.\Generated_Source\PSoC4/alex_BLE_eventHandler.c **** }
 406:.\Generated_Source\PSoC4/alex_BLE_eventHandler.c **** 
 407:.\Generated_Source\PSoC4/alex_BLE_eventHandler.c **** 
 408:.\Generated_Source\PSoC4/alex_BLE_eventHandler.c **** /****************************************************************************** 
 409:.\Generated_Source\PSoC4/alex_BLE_eventHandler.c **** * Function Name: CyBle_ValueConfirmation
 410:.\Generated_Source\PSoC4/alex_BLE_eventHandler.c **** ***************************************************************************//**
 411:.\Generated_Source\PSoC4/alex_BLE_eventHandler.c **** * 
 412:.\Generated_Source\PSoC4/alex_BLE_eventHandler.c **** *  Handles the Value Confirmation request event from the BLE stack.
 413:.\Generated_Source\PSoC4/alex_BLE_eventHandler.c **** * 
 414:.\Generated_Source\PSoC4/alex_BLE_eventHandler.c **** *  \param eventParam: Pointer to a structure of type 'CYBLE_CONN_HANDLE_T'
 415:.\Generated_Source\PSoC4/alex_BLE_eventHandler.c **** * 
 416:.\Generated_Source\PSoC4/alex_BLE_eventHandler.c **** * \return
 417:.\Generated_Source\PSoC4/alex_BLE_eventHandler.c **** *  None
 418:.\Generated_Source\PSoC4/alex_BLE_eventHandler.c **** * 
 419:.\Generated_Source\PSoC4/alex_BLE_eventHandler.c **** ******************************************************************************/
 420:.\Generated_Source\PSoC4/alex_BLE_eventHandler.c **** static void CyBle_ValueConfirmation(const CYBLE_CONN_HANDLE_T *eventParam)
 421:.\Generated_Source\PSoC4/alex_BLE_eventHandler.c **** {
 422:.\Generated_Source\PSoC4/alex_BLE_eventHandler.c ****     if(eventParam != NULL)
 423:.\Generated_Source\PSoC4/alex_BLE_eventHandler.c ****     {
 424:.\Generated_Source\PSoC4/alex_BLE_eventHandler.c ****     #ifdef CYBLE_BCS_SERVER
 425:.\Generated_Source\PSoC4/alex_BLE_eventHandler.c ****         CyBle_BcssConfirmationEventHandler(eventParam);
 426:.\Generated_Source\PSoC4/alex_BLE_eventHandler.c ****     #endif /* CYBLE_BCS_SERVER */
 427:.\Generated_Source\PSoC4/alex_BLE_eventHandler.c ****     #ifdef CYBLE_BLS_SERVER
 428:.\Generated_Source\PSoC4/alex_BLE_eventHandler.c ****         if((cyBle_eventHandlerFlag & CYBLE_CALLBACK) != 0u)
 429:.\Generated_Source\PSoC4/alex_BLE_eventHandler.c ****         {
 430:.\Generated_Source\PSoC4/alex_BLE_eventHandler.c ****             CyBle_BlssConfirmationEventHandler(eventParam);
 431:.\Generated_Source\PSoC4/alex_BLE_eventHandler.c ****         }
 432:.\Generated_Source\PSoC4/alex_BLE_eventHandler.c ****     #endif /* CYBLE_BLS_SERVER */
ARM GAS  C:\Users\a\AppData\Local\Temp\ccXpRoQY.s 			page 9


 433:.\Generated_Source\PSoC4/alex_BLE_eventHandler.c ****     
 434:.\Generated_Source\PSoC4/alex_BLE_eventHandler.c ****     #ifdef CYBLE_CGMS_SERVER
 435:.\Generated_Source\PSoC4/alex_BLE_eventHandler.c ****         if((cyBle_eventHandlerFlag & CYBLE_CALLBACK) != 0u)
 436:.\Generated_Source\PSoC4/alex_BLE_eventHandler.c ****         {
 437:.\Generated_Source\PSoC4/alex_BLE_eventHandler.c ****             CyBle_CgmssConfirmationEventHandler(eventParam);
 438:.\Generated_Source\PSoC4/alex_BLE_eventHandler.c ****         }
 439:.\Generated_Source\PSoC4/alex_BLE_eventHandler.c ****     #endif /* CYBLE_CGMS_SERVER */
 440:.\Generated_Source\PSoC4/alex_BLE_eventHandler.c ****     
 441:.\Generated_Source\PSoC4/alex_BLE_eventHandler.c ****     #ifdef CYBLE_CPS_SERVER
 442:.\Generated_Source\PSoC4/alex_BLE_eventHandler.c ****         if((cyBle_eventHandlerFlag & CYBLE_CALLBACK) != 0u)
 443:.\Generated_Source\PSoC4/alex_BLE_eventHandler.c ****         {
 444:.\Generated_Source\PSoC4/alex_BLE_eventHandler.c ****             CyBle_CpssConfirmationEventHandler(eventParam);
 445:.\Generated_Source\PSoC4/alex_BLE_eventHandler.c ****         }
 446:.\Generated_Source\PSoC4/alex_BLE_eventHandler.c ****     #endif /* CYBLE_CPS_SERVER */
 447:.\Generated_Source\PSoC4/alex_BLE_eventHandler.c ****     
 448:.\Generated_Source\PSoC4/alex_BLE_eventHandler.c ****     #ifdef CYBLE_CSCS_SERVER
 449:.\Generated_Source\PSoC4/alex_BLE_eventHandler.c ****         if((cyBle_eventHandlerFlag & CYBLE_CALLBACK) != 0u)
 450:.\Generated_Source\PSoC4/alex_BLE_eventHandler.c ****         {
 451:.\Generated_Source\PSoC4/alex_BLE_eventHandler.c ****             CyBle_CscssConfirmationEventHandler(eventParam);
 452:.\Generated_Source\PSoC4/alex_BLE_eventHandler.c ****         }
 453:.\Generated_Source\PSoC4/alex_BLE_eventHandler.c ****     #endif /* CYBLE_CSCS_SERVER */
 454:.\Generated_Source\PSoC4/alex_BLE_eventHandler.c ****     
 455:.\Generated_Source\PSoC4/alex_BLE_eventHandler.c ****     #ifdef CYBLE_ESS_SERVER
 456:.\Generated_Source\PSoC4/alex_BLE_eventHandler.c ****         if((cyBle_eventHandlerFlag & CYBLE_CALLBACK) != 0u)
 457:.\Generated_Source\PSoC4/alex_BLE_eventHandler.c ****         {
 458:.\Generated_Source\PSoC4/alex_BLE_eventHandler.c ****             CyBle_EsssConfirmationEventHandler(eventParam);
 459:.\Generated_Source\PSoC4/alex_BLE_eventHandler.c ****         }
 460:.\Generated_Source\PSoC4/alex_BLE_eventHandler.c ****     #endif /* CYBLE_ESS_SERVER */
 461:.\Generated_Source\PSoC4/alex_BLE_eventHandler.c ****     
 462:.\Generated_Source\PSoC4/alex_BLE_eventHandler.c ****     #ifdef CYBLE_GLS_SERVER
 463:.\Generated_Source\PSoC4/alex_BLE_eventHandler.c ****         if((cyBle_eventHandlerFlag & CYBLE_CALLBACK) != 0u)
 464:.\Generated_Source\PSoC4/alex_BLE_eventHandler.c ****         {
 465:.\Generated_Source\PSoC4/alex_BLE_eventHandler.c ****             CyBle_GlssConfirmationEventHandler(eventParam);
 466:.\Generated_Source\PSoC4/alex_BLE_eventHandler.c ****         }
 467:.\Generated_Source\PSoC4/alex_BLE_eventHandler.c ****     #endif /* CYBLE_GLS_SERVER */
 468:.\Generated_Source\PSoC4/alex_BLE_eventHandler.c ****     
 469:.\Generated_Source\PSoC4/alex_BLE_eventHandler.c ****     #ifdef CYBLE_HTS_SERVER
 470:.\Generated_Source\PSoC4/alex_BLE_eventHandler.c ****         if((cyBle_eventHandlerFlag & CYBLE_CALLBACK) != 0u)
 471:.\Generated_Source\PSoC4/alex_BLE_eventHandler.c ****         {
 472:.\Generated_Source\PSoC4/alex_BLE_eventHandler.c ****             CyBle_HtssConfirmationEventHandler(eventParam);
 473:.\Generated_Source\PSoC4/alex_BLE_eventHandler.c ****         }
 474:.\Generated_Source\PSoC4/alex_BLE_eventHandler.c ****     #endif /* CYBLE_HTS_SERVER */
 475:.\Generated_Source\PSoC4/alex_BLE_eventHandler.c **** 
 476:.\Generated_Source\PSoC4/alex_BLE_eventHandler.c ****     #ifdef CYBLE_LNS_SERVER
 477:.\Generated_Source\PSoC4/alex_BLE_eventHandler.c ****         if((cyBle_eventHandlerFlag & CYBLE_CALLBACK) != 0u)
 478:.\Generated_Source\PSoC4/alex_BLE_eventHandler.c ****         {
 479:.\Generated_Source\PSoC4/alex_BLE_eventHandler.c ****             CyBle_LnssConfirmationEventHandler(eventParam);
 480:.\Generated_Source\PSoC4/alex_BLE_eventHandler.c ****         }
 481:.\Generated_Source\PSoC4/alex_BLE_eventHandler.c ****     #endif /* CYBLE_LNS_SERVER */
 482:.\Generated_Source\PSoC4/alex_BLE_eventHandler.c ****     
 483:.\Generated_Source\PSoC4/alex_BLE_eventHandler.c ****     #ifdef CYBLE_RSCS_SERVER
 484:.\Generated_Source\PSoC4/alex_BLE_eventHandler.c ****         if((cyBle_eventHandlerFlag & CYBLE_CALLBACK) != 0u)
 485:.\Generated_Source\PSoC4/alex_BLE_eventHandler.c ****         {
 486:.\Generated_Source\PSoC4/alex_BLE_eventHandler.c ****             CyBle_RscssConfirmationEventHandler(eventParam);
 487:.\Generated_Source\PSoC4/alex_BLE_eventHandler.c ****         }
 488:.\Generated_Source\PSoC4/alex_BLE_eventHandler.c ****     #endif /* CYBLE_RSCS_SERVER */
 489:.\Generated_Source\PSoC4/alex_BLE_eventHandler.c ****     
ARM GAS  C:\Users\a\AppData\Local\Temp\ccXpRoQY.s 			page 10


 490:.\Generated_Source\PSoC4/alex_BLE_eventHandler.c ****     #ifdef CYBLE_UDS_SERVER
 491:.\Generated_Source\PSoC4/alex_BLE_eventHandler.c ****         if((cyBle_eventHandlerFlag & CYBLE_CALLBACK) != 0u)
 492:.\Generated_Source\PSoC4/alex_BLE_eventHandler.c ****         {
 493:.\Generated_Source\PSoC4/alex_BLE_eventHandler.c ****             CyBle_UdssConfirmationEventHandler(eventParam);
 494:.\Generated_Source\PSoC4/alex_BLE_eventHandler.c ****         }
 495:.\Generated_Source\PSoC4/alex_BLE_eventHandler.c ****     #endif /* CYBLE_UDS_SERVER */
 496:.\Generated_Source\PSoC4/alex_BLE_eventHandler.c ****     
 497:.\Generated_Source\PSoC4/alex_BLE_eventHandler.c ****     #ifdef CYBLE_WPTS_SERVER
 498:.\Generated_Source\PSoC4/alex_BLE_eventHandler.c ****         if((cyBle_eventHandlerFlag & CYBLE_CALLBACK) != 0u)
 499:.\Generated_Source\PSoC4/alex_BLE_eventHandler.c ****         {
 500:.\Generated_Source\PSoC4/alex_BLE_eventHandler.c ****             CyBle_WptssConfirmationEventHandler(eventParam);
 501:.\Generated_Source\PSoC4/alex_BLE_eventHandler.c ****         }
 502:.\Generated_Source\PSoC4/alex_BLE_eventHandler.c ****     #endif /* CYBLE_WPTS_SERVER */
 503:.\Generated_Source\PSoC4/alex_BLE_eventHandler.c ****     
 504:.\Generated_Source\PSoC4/alex_BLE_eventHandler.c ****     #ifdef CYBLE_WSS_SERVER
 505:.\Generated_Source\PSoC4/alex_BLE_eventHandler.c ****         if((cyBle_eventHandlerFlag & CYBLE_CALLBACK) != 0u)
 506:.\Generated_Source\PSoC4/alex_BLE_eventHandler.c ****         {
 507:.\Generated_Source\PSoC4/alex_BLE_eventHandler.c ****             CyBle_WsssConfirmationEventHandler(eventParam);
 508:.\Generated_Source\PSoC4/alex_BLE_eventHandler.c ****         }
 509:.\Generated_Source\PSoC4/alex_BLE_eventHandler.c ****     #endif /* CYBLE_WSS_SERVER */
 510:.\Generated_Source\PSoC4/alex_BLE_eventHandler.c ****     }
 511:.\Generated_Source\PSoC4/alex_BLE_eventHandler.c **** }
 512:.\Generated_Source\PSoC4/alex_BLE_eventHandler.c **** 
 513:.\Generated_Source\PSoC4/alex_BLE_eventHandler.c **** #endif /* CYBLE_GATT_ROLE_SERVER */
 514:.\Generated_Source\PSoC4/alex_BLE_eventHandler.c **** 
 515:.\Generated_Source\PSoC4/alex_BLE_eventHandler.c **** 
 516:.\Generated_Source\PSoC4/alex_BLE_eventHandler.c **** #if (CYBLE_GATT_ROLE_CLIENT)
 517:.\Generated_Source\PSoC4/alex_BLE_eventHandler.c **** 
 518:.\Generated_Source\PSoC4/alex_BLE_eventHandler.c **** /****************************************************************************** 
 519:.\Generated_Source\PSoC4/alex_BLE_eventHandler.c **** * Function Name: CyBle_GattcWriteResponseEventHandler
 520:.\Generated_Source\PSoC4/alex_BLE_eventHandler.c **** ***************************************************************************//**
 521:.\Generated_Source\PSoC4/alex_BLE_eventHandler.c **** * 
 522:.\Generated_Source\PSoC4/alex_BLE_eventHandler.c **** *  Handles the Write response event from the BLE stack.
 523:.\Generated_Source\PSoC4/alex_BLE_eventHandler.c **** * 
 524:.\Generated_Source\PSoC4/alex_BLE_eventHandler.c **** *  \param eventParam: Pointer to a structure of type 'CYBLE_CONN_HANDLE_T'
 525:.\Generated_Source\PSoC4/alex_BLE_eventHandler.c **** * 
 526:.\Generated_Source\PSoC4/alex_BLE_eventHandler.c **** * \return
 527:.\Generated_Source\PSoC4/alex_BLE_eventHandler.c **** *  None
 528:.\Generated_Source\PSoC4/alex_BLE_eventHandler.c **** * 
 529:.\Generated_Source\PSoC4/alex_BLE_eventHandler.c **** ******************************************************************************/
 530:.\Generated_Source\PSoC4/alex_BLE_eventHandler.c **** static void CyBle_GattcWriteResponseEventHandler(const CYBLE_CONN_HANDLE_T *eventParam)
 531:.\Generated_Source\PSoC4/alex_BLE_eventHandler.c **** {
 532:.\Generated_Source\PSoC4/alex_BLE_eventHandler.c **** #ifdef CYBLE_ANCS_CLIENT
 533:.\Generated_Source\PSoC4/alex_BLE_eventHandler.c ****     CyBle_AncscWriteResponseEventHandler(eventParam);
 534:.\Generated_Source\PSoC4/alex_BLE_eventHandler.c **** #endif /* CYBLE_ANCS_CLIENT */
 535:.\Generated_Source\PSoC4/alex_BLE_eventHandler.c **** 
 536:.\Generated_Source\PSoC4/alex_BLE_eventHandler.c **** #ifdef CYBLE_ANS_CLIENT
 537:.\Generated_Source\PSoC4/alex_BLE_eventHandler.c ****     if((cyBle_eventHandlerFlag & CYBLE_CALLBACK) != 0u)
 538:.\Generated_Source\PSoC4/alex_BLE_eventHandler.c ****     {
 539:.\Generated_Source\PSoC4/alex_BLE_eventHandler.c ****         CyBle_AnscWriteResponseEventHandler(eventParam);
 540:.\Generated_Source\PSoC4/alex_BLE_eventHandler.c ****     }
 541:.\Generated_Source\PSoC4/alex_BLE_eventHandler.c **** #endif /* CYBLE_ANS_CLIENT */
 542:.\Generated_Source\PSoC4/alex_BLE_eventHandler.c **** 
 543:.\Generated_Source\PSoC4/alex_BLE_eventHandler.c **** #ifdef CYBLE_BAS_CLIENT
 544:.\Generated_Source\PSoC4/alex_BLE_eventHandler.c ****     if((cyBle_eventHandlerFlag & CYBLE_CALLBACK) != 0u)
 545:.\Generated_Source\PSoC4/alex_BLE_eventHandler.c ****     {
 546:.\Generated_Source\PSoC4/alex_BLE_eventHandler.c ****         CyBle_BascWriteResponseEventHandler(eventParam);
ARM GAS  C:\Users\a\AppData\Local\Temp\ccXpRoQY.s 			page 11


 547:.\Generated_Source\PSoC4/alex_BLE_eventHandler.c ****     }
 548:.\Generated_Source\PSoC4/alex_BLE_eventHandler.c **** #endif /* CYBLE_BAS_CLIENT */
 549:.\Generated_Source\PSoC4/alex_BLE_eventHandler.c **** 
 550:.\Generated_Source\PSoC4/alex_BLE_eventHandler.c **** #ifdef CYBLE_BCS_CLIENT
 551:.\Generated_Source\PSoC4/alex_BLE_eventHandler.c ****     if((cyBle_eventHandlerFlag & CYBLE_CALLBACK) != 0u)
 552:.\Generated_Source\PSoC4/alex_BLE_eventHandler.c ****     {
 553:.\Generated_Source\PSoC4/alex_BLE_eventHandler.c ****         CyBle_BcscWriteResponseEventHandler(eventParam);
 554:.\Generated_Source\PSoC4/alex_BLE_eventHandler.c ****     }
 555:.\Generated_Source\PSoC4/alex_BLE_eventHandler.c **** #endif /* CYBLE_BCS_CLIENT */
 556:.\Generated_Source\PSoC4/alex_BLE_eventHandler.c **** 
 557:.\Generated_Source\PSoC4/alex_BLE_eventHandler.c **** #ifdef CYBLE_BLS_CLIENT
 558:.\Generated_Source\PSoC4/alex_BLE_eventHandler.c ****     if((cyBle_eventHandlerFlag & CYBLE_CALLBACK) != 0u)
 559:.\Generated_Source\PSoC4/alex_BLE_eventHandler.c ****     {
 560:.\Generated_Source\PSoC4/alex_BLE_eventHandler.c ****         CyBle_BlscWriteResponseEventHandler(eventParam);
 561:.\Generated_Source\PSoC4/alex_BLE_eventHandler.c ****     }
 562:.\Generated_Source\PSoC4/alex_BLE_eventHandler.c **** #endif /* CYBLE_BLS_CLIENT */
 563:.\Generated_Source\PSoC4/alex_BLE_eventHandler.c **** 
 564:.\Generated_Source\PSoC4/alex_BLE_eventHandler.c **** #ifdef CYBLE_BMS_CLIENT
 565:.\Generated_Source\PSoC4/alex_BLE_eventHandler.c ****     if((cyBle_eventHandlerFlag & CYBLE_CALLBACK) != 0u)
 566:.\Generated_Source\PSoC4/alex_BLE_eventHandler.c ****     {
 567:.\Generated_Source\PSoC4/alex_BLE_eventHandler.c ****         CyBle_BmscWriteResponseEventHandler(eventParam);
 568:.\Generated_Source\PSoC4/alex_BLE_eventHandler.c ****     }
 569:.\Generated_Source\PSoC4/alex_BLE_eventHandler.c **** #endif /* CYBLE_BMS_CLIENT */
 570:.\Generated_Source\PSoC4/alex_BLE_eventHandler.c **** 
 571:.\Generated_Source\PSoC4/alex_BLE_eventHandler.c **** #ifdef CYBLE_CGMS_CLIENT
 572:.\Generated_Source\PSoC4/alex_BLE_eventHandler.c ****     if((cyBle_eventHandlerFlag & CYBLE_CALLBACK) != 0u)
 573:.\Generated_Source\PSoC4/alex_BLE_eventHandler.c ****     {
 574:.\Generated_Source\PSoC4/alex_BLE_eventHandler.c ****         CyBle_CgmscWriteResponseEventHandler(eventParam);
 575:.\Generated_Source\PSoC4/alex_BLE_eventHandler.c ****     }
 576:.\Generated_Source\PSoC4/alex_BLE_eventHandler.c **** #endif /* CYBLE_CGMS_CLIENT */
 577:.\Generated_Source\PSoC4/alex_BLE_eventHandler.c **** 
 578:.\Generated_Source\PSoC4/alex_BLE_eventHandler.c **** #ifdef CYBLE_CPS_CLIENT
 579:.\Generated_Source\PSoC4/alex_BLE_eventHandler.c ****     if((cyBle_eventHandlerFlag & CYBLE_CALLBACK) != 0u)
 580:.\Generated_Source\PSoC4/alex_BLE_eventHandler.c ****     {
 581:.\Generated_Source\PSoC4/alex_BLE_eventHandler.c ****         CyBle_CpscWriteResponseEventHandler(eventParam);
 582:.\Generated_Source\PSoC4/alex_BLE_eventHandler.c ****     }
 583:.\Generated_Source\PSoC4/alex_BLE_eventHandler.c **** #endif /* CYBLE_CPS_CLIENT */
 584:.\Generated_Source\PSoC4/alex_BLE_eventHandler.c **** 
 585:.\Generated_Source\PSoC4/alex_BLE_eventHandler.c **** #ifdef CYBLE_CSCS_CLIENT
 586:.\Generated_Source\PSoC4/alex_BLE_eventHandler.c ****     if((cyBle_eventHandlerFlag & CYBLE_CALLBACK) != 0u)
 587:.\Generated_Source\PSoC4/alex_BLE_eventHandler.c ****     {
 588:.\Generated_Source\PSoC4/alex_BLE_eventHandler.c ****         CyBle_CscscWriteResponseEventHandler(eventParam);
 589:.\Generated_Source\PSoC4/alex_BLE_eventHandler.c ****     }
 590:.\Generated_Source\PSoC4/alex_BLE_eventHandler.c **** #endif /* CYBLE_CSCS_CLIENT */
 591:.\Generated_Source\PSoC4/alex_BLE_eventHandler.c **** 
 592:.\Generated_Source\PSoC4/alex_BLE_eventHandler.c **** #ifdef CYBLE_CTS_CLIENT
 593:.\Generated_Source\PSoC4/alex_BLE_eventHandler.c ****     if((cyBle_eventHandlerFlag & CYBLE_CALLBACK) != 0u)
 594:.\Generated_Source\PSoC4/alex_BLE_eventHandler.c ****     {
 595:.\Generated_Source\PSoC4/alex_BLE_eventHandler.c ****         CyBle_CtscWriteResponseEventHandler(eventParam);
 596:.\Generated_Source\PSoC4/alex_BLE_eventHandler.c ****     }
 597:.\Generated_Source\PSoC4/alex_BLE_eventHandler.c **** #endif /* CYBLE_CTS_CLIENT */
 598:.\Generated_Source\PSoC4/alex_BLE_eventHandler.c **** 
 599:.\Generated_Source\PSoC4/alex_BLE_eventHandler.c **** #ifdef CYBLE_ESS_CLIENT
 600:.\Generated_Source\PSoC4/alex_BLE_eventHandler.c ****     if((cyBle_eventHandlerFlag & CYBLE_CALLBACK) != 0u)
 601:.\Generated_Source\PSoC4/alex_BLE_eventHandler.c ****     {
 602:.\Generated_Source\PSoC4/alex_BLE_eventHandler.c ****         CyBle_EsscWriteResponseEventHandler(eventParam);
 603:.\Generated_Source\PSoC4/alex_BLE_eventHandler.c ****     }
ARM GAS  C:\Users\a\AppData\Local\Temp\ccXpRoQY.s 			page 12


 604:.\Generated_Source\PSoC4/alex_BLE_eventHandler.c **** #endif /* CYBLE_ESS_CLIENT */
 605:.\Generated_Source\PSoC4/alex_BLE_eventHandler.c **** 
 606:.\Generated_Source\PSoC4/alex_BLE_eventHandler.c **** #ifdef CYBLE_GLS_CLIENT
 607:.\Generated_Source\PSoC4/alex_BLE_eventHandler.c ****     if((cyBle_eventHandlerFlag & CYBLE_CALLBACK) != 0u)
 608:.\Generated_Source\PSoC4/alex_BLE_eventHandler.c ****     {
 609:.\Generated_Source\PSoC4/alex_BLE_eventHandler.c ****         CyBle_GlscWriteResponseEventHandler(eventParam);
 610:.\Generated_Source\PSoC4/alex_BLE_eventHandler.c ****     }
 611:.\Generated_Source\PSoC4/alex_BLE_eventHandler.c **** #endif /* CYBLE_GLS_CLIENT */
 612:.\Generated_Source\PSoC4/alex_BLE_eventHandler.c **** 
 613:.\Generated_Source\PSoC4/alex_BLE_eventHandler.c **** #ifdef CYBLE_HIDS_CLIENT
 614:.\Generated_Source\PSoC4/alex_BLE_eventHandler.c ****     if((cyBle_eventHandlerFlag & CYBLE_CALLBACK) != 0u)
 615:.\Generated_Source\PSoC4/alex_BLE_eventHandler.c ****     {
 616:.\Generated_Source\PSoC4/alex_BLE_eventHandler.c ****         CyBle_HidscWriteResponseEventHandler(eventParam);
 617:.\Generated_Source\PSoC4/alex_BLE_eventHandler.c ****     }
 618:.\Generated_Source\PSoC4/alex_BLE_eventHandler.c **** #endif /* CYBLE_HIDS_CLIENT */
 619:.\Generated_Source\PSoC4/alex_BLE_eventHandler.c **** 
 620:.\Generated_Source\PSoC4/alex_BLE_eventHandler.c **** #ifdef CYBLE_HRS_CLIENT
 621:.\Generated_Source\PSoC4/alex_BLE_eventHandler.c ****     if((cyBle_eventHandlerFlag & CYBLE_CALLBACK) != 0u)
 622:.\Generated_Source\PSoC4/alex_BLE_eventHandler.c ****     {
 623:.\Generated_Source\PSoC4/alex_BLE_eventHandler.c ****         CyBle_HrscWriteResponseEventHandler(eventParam);
 624:.\Generated_Source\PSoC4/alex_BLE_eventHandler.c ****     }
 625:.\Generated_Source\PSoC4/alex_BLE_eventHandler.c **** #endif /* CYBLE_HRS_CLIENT */
 626:.\Generated_Source\PSoC4/alex_BLE_eventHandler.c **** 
 627:.\Generated_Source\PSoC4/alex_BLE_eventHandler.c **** #ifdef CYBLE_HTS_CLIENT
 628:.\Generated_Source\PSoC4/alex_BLE_eventHandler.c ****     if((cyBle_eventHandlerFlag & CYBLE_CALLBACK) != 0u)
 629:.\Generated_Source\PSoC4/alex_BLE_eventHandler.c ****     {
 630:.\Generated_Source\PSoC4/alex_BLE_eventHandler.c ****         CyBle_HtscWriteResponseEventHandler(eventParam);
 631:.\Generated_Source\PSoC4/alex_BLE_eventHandler.c ****     }
 632:.\Generated_Source\PSoC4/alex_BLE_eventHandler.c **** #endif /* CYBLE_HTS_CLIENT */
 633:.\Generated_Source\PSoC4/alex_BLE_eventHandler.c **** 
 634:.\Generated_Source\PSoC4/alex_BLE_eventHandler.c **** #ifdef CYBLE_LLS_CLIENT
 635:.\Generated_Source\PSoC4/alex_BLE_eventHandler.c ****     if((cyBle_eventHandlerFlag & CYBLE_CALLBACK) != 0u)
 636:.\Generated_Source\PSoC4/alex_BLE_eventHandler.c ****     {
 637:.\Generated_Source\PSoC4/alex_BLE_eventHandler.c ****         CyBle_LlscWriteResponseEventHandler(eventParam);
 638:.\Generated_Source\PSoC4/alex_BLE_eventHandler.c ****     }
 639:.\Generated_Source\PSoC4/alex_BLE_eventHandler.c **** #endif /* CYBLE_LLS_CLIENT */
 640:.\Generated_Source\PSoC4/alex_BLE_eventHandler.c **** 
 641:.\Generated_Source\PSoC4/alex_BLE_eventHandler.c **** #ifdef CYBLE_LNS_CLIENT
 642:.\Generated_Source\PSoC4/alex_BLE_eventHandler.c ****     if((cyBle_eventHandlerFlag & CYBLE_CALLBACK) != 0u)
 643:.\Generated_Source\PSoC4/alex_BLE_eventHandler.c ****     {
 644:.\Generated_Source\PSoC4/alex_BLE_eventHandler.c ****         CyBle_LnscWriteResponseEventHandler(eventParam);
 645:.\Generated_Source\PSoC4/alex_BLE_eventHandler.c ****     }
 646:.\Generated_Source\PSoC4/alex_BLE_eventHandler.c **** #endif /* CYBLE_LNS_CLIENT */
 647:.\Generated_Source\PSoC4/alex_BLE_eventHandler.c **** 
 648:.\Generated_Source\PSoC4/alex_BLE_eventHandler.c **** #ifdef CYBLE_PASS_CLIENT
 649:.\Generated_Source\PSoC4/alex_BLE_eventHandler.c ****     if((cyBle_eventHandlerFlag & CYBLE_CALLBACK) != 0u)
 650:.\Generated_Source\PSoC4/alex_BLE_eventHandler.c ****     {
 651:.\Generated_Source\PSoC4/alex_BLE_eventHandler.c ****         CyBle_PasscWriteResponseEventHandler(eventParam);
 652:.\Generated_Source\PSoC4/alex_BLE_eventHandler.c ****     }
 653:.\Generated_Source\PSoC4/alex_BLE_eventHandler.c **** #endif /* CYBLE_PASS_CLIENT */
 654:.\Generated_Source\PSoC4/alex_BLE_eventHandler.c **** 
 655:.\Generated_Source\PSoC4/alex_BLE_eventHandler.c **** #ifdef CYBLE_RSCS_CLIENT
 656:.\Generated_Source\PSoC4/alex_BLE_eventHandler.c ****     if((cyBle_eventHandlerFlag & CYBLE_CALLBACK) != 0u)
 657:.\Generated_Source\PSoC4/alex_BLE_eventHandler.c ****     {
 658:.\Generated_Source\PSoC4/alex_BLE_eventHandler.c ****         CyBle_RscscWriteResponseEventHandler(eventParam);
 659:.\Generated_Source\PSoC4/alex_BLE_eventHandler.c ****     }
 660:.\Generated_Source\PSoC4/alex_BLE_eventHandler.c **** #endif /* CYBLE_RSCS_CLIENT */
ARM GAS  C:\Users\a\AppData\Local\Temp\ccXpRoQY.s 			page 13


 661:.\Generated_Source\PSoC4/alex_BLE_eventHandler.c **** 
 662:.\Generated_Source\PSoC4/alex_BLE_eventHandler.c **** #ifdef CYBLE_SCPS_CLIENT
 663:.\Generated_Source\PSoC4/alex_BLE_eventHandler.c ****     if((cyBle_eventHandlerFlag & CYBLE_CALLBACK) != 0u)
 664:.\Generated_Source\PSoC4/alex_BLE_eventHandler.c ****     {
 665:.\Generated_Source\PSoC4/alex_BLE_eventHandler.c ****         CyBle_ScpscWriteResponseEventHandler(eventParam);
 666:.\Generated_Source\PSoC4/alex_BLE_eventHandler.c ****     }
 667:.\Generated_Source\PSoC4/alex_BLE_eventHandler.c **** #endif /* CYBLE_SCPS_CLIENT */
 668:.\Generated_Source\PSoC4/alex_BLE_eventHandler.c **** 
 669:.\Generated_Source\PSoC4/alex_BLE_eventHandler.c **** #ifdef CYBLE_TPS_CLIENT
 670:.\Generated_Source\PSoC4/alex_BLE_eventHandler.c ****     if((cyBle_eventHandlerFlag & CYBLE_CALLBACK) != 0u)
 671:.\Generated_Source\PSoC4/alex_BLE_eventHandler.c ****     {
 672:.\Generated_Source\PSoC4/alex_BLE_eventHandler.c ****         CyBle_TpscWriteResponseEventHandler(eventParam);
 673:.\Generated_Source\PSoC4/alex_BLE_eventHandler.c ****     }
 674:.\Generated_Source\PSoC4/alex_BLE_eventHandler.c **** #endif /* CYBLE_TPS_CLIENT */
 675:.\Generated_Source\PSoC4/alex_BLE_eventHandler.c **** 
 676:.\Generated_Source\PSoC4/alex_BLE_eventHandler.c **** #ifdef CYBLE_UDS_CLIENT
 677:.\Generated_Source\PSoC4/alex_BLE_eventHandler.c ****     if((cyBle_eventHandlerFlag & CYBLE_CALLBACK) != 0u)
 678:.\Generated_Source\PSoC4/alex_BLE_eventHandler.c ****     {
 679:.\Generated_Source\PSoC4/alex_BLE_eventHandler.c ****         CyBle_UdscWriteResponseEventHandler(eventParam);
 680:.\Generated_Source\PSoC4/alex_BLE_eventHandler.c ****     }
 681:.\Generated_Source\PSoC4/alex_BLE_eventHandler.c **** #endif /* CYBLE_UDS_CLIENT */
 682:.\Generated_Source\PSoC4/alex_BLE_eventHandler.c **** #ifdef CYBLE_WPTS_CLIENT
 683:.\Generated_Source\PSoC4/alex_BLE_eventHandler.c ****     if((cyBle_eventHandlerFlag & CYBLE_CALLBACK) != 0u)
 684:.\Generated_Source\PSoC4/alex_BLE_eventHandler.c ****     {
 685:.\Generated_Source\PSoC4/alex_BLE_eventHandler.c ****         CyBle_WptscWriteResponseEventHandler(eventParam);
 686:.\Generated_Source\PSoC4/alex_BLE_eventHandler.c ****     }
 687:.\Generated_Source\PSoC4/alex_BLE_eventHandler.c **** #endif /* CYBLE_WPTS_CLIENT */
 688:.\Generated_Source\PSoC4/alex_BLE_eventHandler.c **** #ifdef CYBLE_WSS_CLIENT
 689:.\Generated_Source\PSoC4/alex_BLE_eventHandler.c ****     if((cyBle_eventHandlerFlag & CYBLE_CALLBACK) != 0u)
 690:.\Generated_Source\PSoC4/alex_BLE_eventHandler.c ****     {
 691:.\Generated_Source\PSoC4/alex_BLE_eventHandler.c ****         CyBle_WsscWriteResponseEventHandler(eventParam);
 692:.\Generated_Source\PSoC4/alex_BLE_eventHandler.c ****     }
 693:.\Generated_Source\PSoC4/alex_BLE_eventHandler.c **** #endif /* CYBLE_WSS_CLIENT */
 694:.\Generated_Source\PSoC4/alex_BLE_eventHandler.c **** }
 695:.\Generated_Source\PSoC4/alex_BLE_eventHandler.c **** 
 696:.\Generated_Source\PSoC4/alex_BLE_eventHandler.c **** 
 697:.\Generated_Source\PSoC4/alex_BLE_eventHandler.c **** /******************************************************************************    
 698:.\Generated_Source\PSoC4/alex_BLE_eventHandler.c **** * Function Name: CyBle_NotificationEventHandler
 699:.\Generated_Source\PSoC4/alex_BLE_eventHandler.c **** ***************************************************************************//**
 700:.\Generated_Source\PSoC4/alex_BLE_eventHandler.c **** * 
 701:.\Generated_Source\PSoC4/alex_BLE_eventHandler.c **** *  Handles the Notification event from BLE stack.
 702:.\Generated_Source\PSoC4/alex_BLE_eventHandler.c **** * 
 703:.\Generated_Source\PSoC4/alex_BLE_eventHandler.c **** *  \param eventParam: event parameter
 704:.\Generated_Source\PSoC4/alex_BLE_eventHandler.c **** * 
 705:.\Generated_Source\PSoC4/alex_BLE_eventHandler.c **** * \return
 706:.\Generated_Source\PSoC4/alex_BLE_eventHandler.c **** *  None
 707:.\Generated_Source\PSoC4/alex_BLE_eventHandler.c **** * 
 708:.\Generated_Source\PSoC4/alex_BLE_eventHandler.c **** ******************************************************************************/
 709:.\Generated_Source\PSoC4/alex_BLE_eventHandler.c **** static void CyBle_NotificationEventHandler(CYBLE_GATTC_HANDLE_VALUE_NTF_PARAM_T *eventParam)
 710:.\Generated_Source\PSoC4/alex_BLE_eventHandler.c **** {
 711:.\Generated_Source\PSoC4/alex_BLE_eventHandler.c **** #ifdef CYBLE_ANCS_CLIENT
 712:.\Generated_Source\PSoC4/alex_BLE_eventHandler.c ****     CyBle_AncscNotificationEventHandler(eventParam);
 713:.\Generated_Source\PSoC4/alex_BLE_eventHandler.c **** #endif /* CYBLE_ANCS_CLIENT */
 714:.\Generated_Source\PSoC4/alex_BLE_eventHandler.c **** #ifdef CYBLE_ANS_CLIENT
 715:.\Generated_Source\PSoC4/alex_BLE_eventHandler.c ****     if((cyBle_eventHandlerFlag & CYBLE_CALLBACK) != 0u)
 716:.\Generated_Source\PSoC4/alex_BLE_eventHandler.c ****     {
 717:.\Generated_Source\PSoC4/alex_BLE_eventHandler.c ****         CyBle_AnscNotificationEventHandler(eventParam);
ARM GAS  C:\Users\a\AppData\Local\Temp\ccXpRoQY.s 			page 14


 718:.\Generated_Source\PSoC4/alex_BLE_eventHandler.c ****     }
 719:.\Generated_Source\PSoC4/alex_BLE_eventHandler.c **** #endif /* CYBLE_ANS_CLIENT */
 720:.\Generated_Source\PSoC4/alex_BLE_eventHandler.c **** #ifdef CYBLE_BAS_CLIENT
 721:.\Generated_Source\PSoC4/alex_BLE_eventHandler.c ****     if((cyBle_eventHandlerFlag & CYBLE_CALLBACK) != 0u)
 722:.\Generated_Source\PSoC4/alex_BLE_eventHandler.c ****     {
 723:.\Generated_Source\PSoC4/alex_BLE_eventHandler.c ****         CyBle_BascNotificationEventHandler(eventParam);
 724:.\Generated_Source\PSoC4/alex_BLE_eventHandler.c ****     }
 725:.\Generated_Source\PSoC4/alex_BLE_eventHandler.c **** #endif /* CYBLE_BAS_CLIENT */
 726:.\Generated_Source\PSoC4/alex_BLE_eventHandler.c **** #ifdef CYBLE_BLS_CLIENT
 727:.\Generated_Source\PSoC4/alex_BLE_eventHandler.c ****     if((cyBle_eventHandlerFlag & CYBLE_CALLBACK) != 0u)
 728:.\Generated_Source\PSoC4/alex_BLE_eventHandler.c ****     {
 729:.\Generated_Source\PSoC4/alex_BLE_eventHandler.c ****         CyBle_BlscNotificationEventHandler(eventParam);
 730:.\Generated_Source\PSoC4/alex_BLE_eventHandler.c ****     }
 731:.\Generated_Source\PSoC4/alex_BLE_eventHandler.c **** #endif /* CYBLE_BLS_CLIENT */
 732:.\Generated_Source\PSoC4/alex_BLE_eventHandler.c **** #ifdef CYBLE_CGMS_CLIENT
 733:.\Generated_Source\PSoC4/alex_BLE_eventHandler.c ****     if((cyBle_eventHandlerFlag & CYBLE_CALLBACK) != 0u)
 734:.\Generated_Source\PSoC4/alex_BLE_eventHandler.c ****     {
 735:.\Generated_Source\PSoC4/alex_BLE_eventHandler.c ****         CyBle_CgmscNotificationEventHandler(eventParam);
 736:.\Generated_Source\PSoC4/alex_BLE_eventHandler.c ****     }
 737:.\Generated_Source\PSoC4/alex_BLE_eventHandler.c **** #endif /* CYBLE_CGMS_CLIENT */
 738:.\Generated_Source\PSoC4/alex_BLE_eventHandler.c **** #ifdef CYBLE_CPS_CLIENT
 739:.\Generated_Source\PSoC4/alex_BLE_eventHandler.c ****     if((cyBle_eventHandlerFlag & CYBLE_CALLBACK) != 0u)
 740:.\Generated_Source\PSoC4/alex_BLE_eventHandler.c ****     {
 741:.\Generated_Source\PSoC4/alex_BLE_eventHandler.c ****         CyBle_CpscNotificationEventHandler(eventParam);
 742:.\Generated_Source\PSoC4/alex_BLE_eventHandler.c ****     }
 743:.\Generated_Source\PSoC4/alex_BLE_eventHandler.c **** #endif /* CYBLE_CPS_CLIENT */
 744:.\Generated_Source\PSoC4/alex_BLE_eventHandler.c **** #ifdef CYBLE_CSCS_CLIENT
 745:.\Generated_Source\PSoC4/alex_BLE_eventHandler.c ****     if((cyBle_eventHandlerFlag & CYBLE_CALLBACK) != 0u)
 746:.\Generated_Source\PSoC4/alex_BLE_eventHandler.c ****     {
 747:.\Generated_Source\PSoC4/alex_BLE_eventHandler.c ****         CyBle_CscscNotificationEventHandler(eventParam);
 748:.\Generated_Source\PSoC4/alex_BLE_eventHandler.c ****     }
 749:.\Generated_Source\PSoC4/alex_BLE_eventHandler.c **** #endif /* CYBLE_CSCS_CLIENT */
 750:.\Generated_Source\PSoC4/alex_BLE_eventHandler.c **** #ifdef CYBLE_CTS_CLIENT
 751:.\Generated_Source\PSoC4/alex_BLE_eventHandler.c ****     if((cyBle_eventHandlerFlag & CYBLE_CALLBACK) != 0u)
 752:.\Generated_Source\PSoC4/alex_BLE_eventHandler.c ****     {
 753:.\Generated_Source\PSoC4/alex_BLE_eventHandler.c ****         CyBle_CtscNotificationEventHandler(eventParam);
 754:.\Generated_Source\PSoC4/alex_BLE_eventHandler.c ****     }
 755:.\Generated_Source\PSoC4/alex_BLE_eventHandler.c **** #endif /* CYBLE_CTS_CLIENT */
 756:.\Generated_Source\PSoC4/alex_BLE_eventHandler.c **** #ifdef CYBLE_ESS_CLIENT
 757:.\Generated_Source\PSoC4/alex_BLE_eventHandler.c ****     if((cyBle_eventHandlerFlag & CYBLE_CALLBACK) != 0u)
 758:.\Generated_Source\PSoC4/alex_BLE_eventHandler.c ****     {
 759:.\Generated_Source\PSoC4/alex_BLE_eventHandler.c ****         CyBle_EsscNotificationEventHandler(eventParam);
 760:.\Generated_Source\PSoC4/alex_BLE_eventHandler.c ****     }
 761:.\Generated_Source\PSoC4/alex_BLE_eventHandler.c **** #endif /* CYBLE_ESS_CLIENT */
 762:.\Generated_Source\PSoC4/alex_BLE_eventHandler.c **** #ifdef CYBLE_GLS_CLIENT
 763:.\Generated_Source\PSoC4/alex_BLE_eventHandler.c ****     if((cyBle_eventHandlerFlag & CYBLE_CALLBACK) != 0u)
 764:.\Generated_Source\PSoC4/alex_BLE_eventHandler.c ****     {
 765:.\Generated_Source\PSoC4/alex_BLE_eventHandler.c ****         CyBle_GlscNotificationEventHandler(eventParam);
 766:.\Generated_Source\PSoC4/alex_BLE_eventHandler.c ****     }
 767:.\Generated_Source\PSoC4/alex_BLE_eventHandler.c **** #endif /* CYBLE_GLS_CLIENT */
 768:.\Generated_Source\PSoC4/alex_BLE_eventHandler.c **** #ifdef CYBLE_HIDS_CLIENT
 769:.\Generated_Source\PSoC4/alex_BLE_eventHandler.c ****     if((cyBle_eventHandlerFlag & CYBLE_CALLBACK) != 0u)
 770:.\Generated_Source\PSoC4/alex_BLE_eventHandler.c ****     {
 771:.\Generated_Source\PSoC4/alex_BLE_eventHandler.c ****         CyBle_HidscNotificationEventHandler(eventParam);
 772:.\Generated_Source\PSoC4/alex_BLE_eventHandler.c ****     }
 773:.\Generated_Source\PSoC4/alex_BLE_eventHandler.c **** #endif /* CYBLE_HIDS_CLIENT */
 774:.\Generated_Source\PSoC4/alex_BLE_eventHandler.c **** #ifdef CYBLE_HRS_CLIENT
ARM GAS  C:\Users\a\AppData\Local\Temp\ccXpRoQY.s 			page 15


 775:.\Generated_Source\PSoC4/alex_BLE_eventHandler.c ****     if((cyBle_eventHandlerFlag & CYBLE_CALLBACK) != 0u)
 776:.\Generated_Source\PSoC4/alex_BLE_eventHandler.c ****     {
 777:.\Generated_Source\PSoC4/alex_BLE_eventHandler.c ****         CyBle_HrscNotificationEventHandler(eventParam);
 778:.\Generated_Source\PSoC4/alex_BLE_eventHandler.c ****     }
 779:.\Generated_Source\PSoC4/alex_BLE_eventHandler.c **** #endif /* CYBLE_HRS_CLIENT */
 780:.\Generated_Source\PSoC4/alex_BLE_eventHandler.c **** #ifdef CYBLE_HTS_CLIENT
 781:.\Generated_Source\PSoC4/alex_BLE_eventHandler.c ****     if((cyBle_eventHandlerFlag & CYBLE_CALLBACK) != 0u)
 782:.\Generated_Source\PSoC4/alex_BLE_eventHandler.c ****     {
 783:.\Generated_Source\PSoC4/alex_BLE_eventHandler.c ****         CyBle_HtscNotificationEventHandler(eventParam);
 784:.\Generated_Source\PSoC4/alex_BLE_eventHandler.c ****     }
 785:.\Generated_Source\PSoC4/alex_BLE_eventHandler.c **** #endif /* CYBLE_HTS_CLIENT */
 786:.\Generated_Source\PSoC4/alex_BLE_eventHandler.c **** #ifdef CYBLE_LNS_CLIENT
 787:.\Generated_Source\PSoC4/alex_BLE_eventHandler.c ****     if((cyBle_eventHandlerFlag & CYBLE_CALLBACK) != 0u)
 788:.\Generated_Source\PSoC4/alex_BLE_eventHandler.c ****     {
 789:.\Generated_Source\PSoC4/alex_BLE_eventHandler.c ****         CyBle_LnscNotificationEventHandler(eventParam);
 790:.\Generated_Source\PSoC4/alex_BLE_eventHandler.c ****     }
 791:.\Generated_Source\PSoC4/alex_BLE_eventHandler.c **** #endif /* CYBLE_LNS_CLIENT */
 792:.\Generated_Source\PSoC4/alex_BLE_eventHandler.c **** #ifdef CYBLE_PASS_CLIENT
 793:.\Generated_Source\PSoC4/alex_BLE_eventHandler.c ****     if((cyBle_eventHandlerFlag & CYBLE_CALLBACK) != 0u)
 794:.\Generated_Source\PSoC4/alex_BLE_eventHandler.c ****     {
 795:.\Generated_Source\PSoC4/alex_BLE_eventHandler.c ****         CyBle_PasscNotificationEventHandler(eventParam);
 796:.\Generated_Source\PSoC4/alex_BLE_eventHandler.c ****     }
 797:.\Generated_Source\PSoC4/alex_BLE_eventHandler.c **** #endif /* CYBLE_PASS_CLIENT */
 798:.\Generated_Source\PSoC4/alex_BLE_eventHandler.c **** #ifdef CYBLE_RSCS_CLIENT
 799:.\Generated_Source\PSoC4/alex_BLE_eventHandler.c ****     if((cyBle_eventHandlerFlag & CYBLE_CALLBACK) != 0u)
 800:.\Generated_Source\PSoC4/alex_BLE_eventHandler.c ****     {
 801:.\Generated_Source\PSoC4/alex_BLE_eventHandler.c ****         CyBle_RscscNotificationEventHandler(eventParam);
 802:.\Generated_Source\PSoC4/alex_BLE_eventHandler.c ****     }
 803:.\Generated_Source\PSoC4/alex_BLE_eventHandler.c **** #endif /* CYBLE_RSCS_CLIENT */
 804:.\Generated_Source\PSoC4/alex_BLE_eventHandler.c **** #ifdef CYBLE_SCPS_CLIENT
 805:.\Generated_Source\PSoC4/alex_BLE_eventHandler.c ****     if((cyBle_eventHandlerFlag & CYBLE_CALLBACK) != 0u)
 806:.\Generated_Source\PSoC4/alex_BLE_eventHandler.c ****     {
 807:.\Generated_Source\PSoC4/alex_BLE_eventHandler.c ****         CyBle_ScpscNotificationEventHandler(eventParam);
 808:.\Generated_Source\PSoC4/alex_BLE_eventHandler.c ****     }
 809:.\Generated_Source\PSoC4/alex_BLE_eventHandler.c **** #endif /* CYBLE_SCPS_CLIENT */
 810:.\Generated_Source\PSoC4/alex_BLE_eventHandler.c **** #ifdef CYBLE_TPS_CLIENT
 811:.\Generated_Source\PSoC4/alex_BLE_eventHandler.c ****     if((cyBle_eventHandlerFlag & CYBLE_CALLBACK) != 0u)
 812:.\Generated_Source\PSoC4/alex_BLE_eventHandler.c ****     {
 813:.\Generated_Source\PSoC4/alex_BLE_eventHandler.c ****         CyBle_TpscNotificationEventHandler(eventParam);
 814:.\Generated_Source\PSoC4/alex_BLE_eventHandler.c ****     }
 815:.\Generated_Source\PSoC4/alex_BLE_eventHandler.c **** #endif /* CYBLE_TPS_CLIENT */
 816:.\Generated_Source\PSoC4/alex_BLE_eventHandler.c **** #ifdef CYBLE_UDS_CLIENT
 817:.\Generated_Source\PSoC4/alex_BLE_eventHandler.c ****     if((cyBle_eventHandlerFlag & CYBLE_CALLBACK) != 0u)
 818:.\Generated_Source\PSoC4/alex_BLE_eventHandler.c ****     {
 819:.\Generated_Source\PSoC4/alex_BLE_eventHandler.c ****         CyBle_UdscNotificationEventHandler(eventParam);
 820:.\Generated_Source\PSoC4/alex_BLE_eventHandler.c ****     }
 821:.\Generated_Source\PSoC4/alex_BLE_eventHandler.c **** #endif /* CYBLE_UDS_CLIENT */
 822:.\Generated_Source\PSoC4/alex_BLE_eventHandler.c **** #ifdef CYBLE_WPTS_CLIENT
 823:.\Generated_Source\PSoC4/alex_BLE_eventHandler.c ****     if((cyBle_eventHandlerFlag & CYBLE_CALLBACK) != 0u)
 824:.\Generated_Source\PSoC4/alex_BLE_eventHandler.c ****     {
 825:.\Generated_Source\PSoC4/alex_BLE_eventHandler.c ****         CyBle_WptscNotificationEventHandler(eventParam);
 826:.\Generated_Source\PSoC4/alex_BLE_eventHandler.c ****     }
 827:.\Generated_Source\PSoC4/alex_BLE_eventHandler.c **** #endif /* CYBLE_WPTS_CLIENT */
 828:.\Generated_Source\PSoC4/alex_BLE_eventHandler.c **** }
 829:.\Generated_Source\PSoC4/alex_BLE_eventHandler.c **** 
 830:.\Generated_Source\PSoC4/alex_BLE_eventHandler.c **** 
 831:.\Generated_Source\PSoC4/alex_BLE_eventHandler.c **** /******************************************************************************    
ARM GAS  C:\Users\a\AppData\Local\Temp\ccXpRoQY.s 			page 16


 832:.\Generated_Source\PSoC4/alex_BLE_eventHandler.c **** * Function Name: CyBle_IndicationEventHandler
 833:.\Generated_Source\PSoC4/alex_BLE_eventHandler.c **** ***************************************************************************//**
 834:.\Generated_Source\PSoC4/alex_BLE_eventHandler.c **** * 
 835:.\Generated_Source\PSoC4/alex_BLE_eventHandler.c **** *  Handles the Indication event from BLE stack.
 836:.\Generated_Source\PSoC4/alex_BLE_eventHandler.c **** * 
 837:.\Generated_Source\PSoC4/alex_BLE_eventHandler.c **** *  \param eventParam: event parameter
 838:.\Generated_Source\PSoC4/alex_BLE_eventHandler.c **** * 
 839:.\Generated_Source\PSoC4/alex_BLE_eventHandler.c **** * \return
 840:.\Generated_Source\PSoC4/alex_BLE_eventHandler.c **** *  None
 841:.\Generated_Source\PSoC4/alex_BLE_eventHandler.c **** * 
 842:.\Generated_Source\PSoC4/alex_BLE_eventHandler.c **** ******************************************************************************/
 843:.\Generated_Source\PSoC4/alex_BLE_eventHandler.c **** static void CyBle_IndicationEventHandler(CYBLE_GATTC_HANDLE_VALUE_IND_PARAM_T *eventParam)
 844:.\Generated_Source\PSoC4/alex_BLE_eventHandler.c **** {
 845:.\Generated_Source\PSoC4/alex_BLE_eventHandler.c **** #ifdef CYBLE_BCS_CLIENT
 846:.\Generated_Source\PSoC4/alex_BLE_eventHandler.c ****     if((cyBle_eventHandlerFlag & CYBLE_CALLBACK) != 0u)
 847:.\Generated_Source\PSoC4/alex_BLE_eventHandler.c ****     {
 848:.\Generated_Source\PSoC4/alex_BLE_eventHandler.c ****         CyBle_BcscIndicationEventHandler(eventParam);
 849:.\Generated_Source\PSoC4/alex_BLE_eventHandler.c ****     }
 850:.\Generated_Source\PSoC4/alex_BLE_eventHandler.c **** #endif /* CYBLE_BCS_CLIENT */
 851:.\Generated_Source\PSoC4/alex_BLE_eventHandler.c **** #ifdef CYBLE_BLS_CLIENT
 852:.\Generated_Source\PSoC4/alex_BLE_eventHandler.c ****     if((cyBle_eventHandlerFlag & CYBLE_CALLBACK) != 0u)
 853:.\Generated_Source\PSoC4/alex_BLE_eventHandler.c ****     {
 854:.\Generated_Source\PSoC4/alex_BLE_eventHandler.c ****         CyBle_BlscIndicationEventHandler(eventParam);
 855:.\Generated_Source\PSoC4/alex_BLE_eventHandler.c ****     }
 856:.\Generated_Source\PSoC4/alex_BLE_eventHandler.c **** #endif /* CYBLE_BLS_CLIENT */
 857:.\Generated_Source\PSoC4/alex_BLE_eventHandler.c **** #ifdef CYBLE_CGMS_CLIENT
 858:.\Generated_Source\PSoC4/alex_BLE_eventHandler.c ****     if((cyBle_eventHandlerFlag & CYBLE_CALLBACK) != 0u)
 859:.\Generated_Source\PSoC4/alex_BLE_eventHandler.c ****     {
 860:.\Generated_Source\PSoC4/alex_BLE_eventHandler.c ****         CyBle_CgmscIndicationEventHandler(eventParam);
 861:.\Generated_Source\PSoC4/alex_BLE_eventHandler.c ****     }
 862:.\Generated_Source\PSoC4/alex_BLE_eventHandler.c **** #endif /* CYBLE_CGMS_CLIENT */
 863:.\Generated_Source\PSoC4/alex_BLE_eventHandler.c **** #ifdef CYBLE_CPS_CLIENT
 864:.\Generated_Source\PSoC4/alex_BLE_eventHandler.c ****     if((cyBle_eventHandlerFlag & CYBLE_CALLBACK) != 0u)
 865:.\Generated_Source\PSoC4/alex_BLE_eventHandler.c ****     {
 866:.\Generated_Source\PSoC4/alex_BLE_eventHandler.c ****         CyBle_CpscIndicationEventHandler(eventParam);
 867:.\Generated_Source\PSoC4/alex_BLE_eventHandler.c ****     }
 868:.\Generated_Source\PSoC4/alex_BLE_eventHandler.c **** #endif /* CYBLE_CPS_CLIENT */
 869:.\Generated_Source\PSoC4/alex_BLE_eventHandler.c **** #ifdef CYBLE_CSCS_CLIENT
 870:.\Generated_Source\PSoC4/alex_BLE_eventHandler.c ****     if((cyBle_eventHandlerFlag & CYBLE_CALLBACK) != 0u)
 871:.\Generated_Source\PSoC4/alex_BLE_eventHandler.c ****     {
 872:.\Generated_Source\PSoC4/alex_BLE_eventHandler.c ****         CyBle_CscscIndicationEventHandler(eventParam);
 873:.\Generated_Source\PSoC4/alex_BLE_eventHandler.c ****     }
 874:.\Generated_Source\PSoC4/alex_BLE_eventHandler.c **** #endif /* CYBLE_CSCS_CLIENT */
 875:.\Generated_Source\PSoC4/alex_BLE_eventHandler.c **** #ifdef CYBLE_ESS_CLIENT
 876:.\Generated_Source\PSoC4/alex_BLE_eventHandler.c ****     if((cyBle_eventHandlerFlag & CYBLE_CALLBACK) != 0u)
 877:.\Generated_Source\PSoC4/alex_BLE_eventHandler.c ****     {
 878:.\Generated_Source\PSoC4/alex_BLE_eventHandler.c ****         CyBle_EsscIndicationEventHandler(eventParam);
 879:.\Generated_Source\PSoC4/alex_BLE_eventHandler.c ****     }
 880:.\Generated_Source\PSoC4/alex_BLE_eventHandler.c **** #endif /* CYBLE_ESS_CLIENT */
 881:.\Generated_Source\PSoC4/alex_BLE_eventHandler.c **** #ifdef CYBLE_GLS_CLIENT
 882:.\Generated_Source\PSoC4/alex_BLE_eventHandler.c ****     if((cyBle_eventHandlerFlag & CYBLE_CALLBACK) != 0u)
 883:.\Generated_Source\PSoC4/alex_BLE_eventHandler.c ****     {
 884:.\Generated_Source\PSoC4/alex_BLE_eventHandler.c ****         CyBle_GlscIndicationEventHandler(eventParam);
 885:.\Generated_Source\PSoC4/alex_BLE_eventHandler.c ****     }
 886:.\Generated_Source\PSoC4/alex_BLE_eventHandler.c **** #endif /* CYBLE_GLS_CLIENT */
 887:.\Generated_Source\PSoC4/alex_BLE_eventHandler.c **** #ifdef CYBLE_HTS_CLIENT
 888:.\Generated_Source\PSoC4/alex_BLE_eventHandler.c ****     if((cyBle_eventHandlerFlag & CYBLE_CALLBACK) != 0u)
ARM GAS  C:\Users\a\AppData\Local\Temp\ccXpRoQY.s 			page 17


 889:.\Generated_Source\PSoC4/alex_BLE_eventHandler.c ****     {
 890:.\Generated_Source\PSoC4/alex_BLE_eventHandler.c ****         CyBle_HtscIndicationEventHandler(eventParam);
 891:.\Generated_Source\PSoC4/alex_BLE_eventHandler.c ****     }
 892:.\Generated_Source\PSoC4/alex_BLE_eventHandler.c **** #endif /* CYBLE_HTS_CLIENT */
 893:.\Generated_Source\PSoC4/alex_BLE_eventHandler.c **** #ifdef CYBLE_LNS_CLIENT
 894:.\Generated_Source\PSoC4/alex_BLE_eventHandler.c ****     if((cyBle_eventHandlerFlag & CYBLE_CALLBACK) != 0u)
 895:.\Generated_Source\PSoC4/alex_BLE_eventHandler.c ****     {
 896:.\Generated_Source\PSoC4/alex_BLE_eventHandler.c ****         CyBle_LnscIndicationEventHandler(eventParam);
 897:.\Generated_Source\PSoC4/alex_BLE_eventHandler.c ****     }
 898:.\Generated_Source\PSoC4/alex_BLE_eventHandler.c **** #endif /* CYBLE_LNS_CLIENT */
 899:.\Generated_Source\PSoC4/alex_BLE_eventHandler.c **** #ifdef CYBLE_RSCS_CLIENT
 900:.\Generated_Source\PSoC4/alex_BLE_eventHandler.c ****     if((cyBle_eventHandlerFlag & CYBLE_CALLBACK) != 0u)
 901:.\Generated_Source\PSoC4/alex_BLE_eventHandler.c ****     {
 902:.\Generated_Source\PSoC4/alex_BLE_eventHandler.c ****         CyBle_RscscIndicationEventHandler(eventParam);
 903:.\Generated_Source\PSoC4/alex_BLE_eventHandler.c ****     }
 904:.\Generated_Source\PSoC4/alex_BLE_eventHandler.c **** #endif /* CYBLE_RSCS_CLIENT */
 905:.\Generated_Source\PSoC4/alex_BLE_eventHandler.c **** #ifdef CYBLE_UDS_CLIENT
 906:.\Generated_Source\PSoC4/alex_BLE_eventHandler.c ****     if((cyBle_eventHandlerFlag & CYBLE_CALLBACK) != 0u)
 907:.\Generated_Source\PSoC4/alex_BLE_eventHandler.c ****     {
 908:.\Generated_Source\PSoC4/alex_BLE_eventHandler.c ****         CyBle_UdscIndicationEventHandler(eventParam);
 909:.\Generated_Source\PSoC4/alex_BLE_eventHandler.c ****     }
 910:.\Generated_Source\PSoC4/alex_BLE_eventHandler.c **** #endif /* CYBLE_UDS_CLIENT */
 911:.\Generated_Source\PSoC4/alex_BLE_eventHandler.c **** #ifdef CYBLE_WPTS_CLIENT
 912:.\Generated_Source\PSoC4/alex_BLE_eventHandler.c ****     if((cyBle_eventHandlerFlag & CYBLE_CALLBACK) != 0u)
 913:.\Generated_Source\PSoC4/alex_BLE_eventHandler.c ****     {
 914:.\Generated_Source\PSoC4/alex_BLE_eventHandler.c ****         CyBle_WptscIndicationEventHandler(eventParam);
 915:.\Generated_Source\PSoC4/alex_BLE_eventHandler.c ****     }
 916:.\Generated_Source\PSoC4/alex_BLE_eventHandler.c **** #endif /* CYBLE_WPTS_CLIENT */
 917:.\Generated_Source\PSoC4/alex_BLE_eventHandler.c **** #ifdef CYBLE_WSS_CLIENT
 918:.\Generated_Source\PSoC4/alex_BLE_eventHandler.c ****     if((cyBle_eventHandlerFlag & CYBLE_CALLBACK) != 0u)
 919:.\Generated_Source\PSoC4/alex_BLE_eventHandler.c ****     {
 920:.\Generated_Source\PSoC4/alex_BLE_eventHandler.c ****         CyBle_WsscIndicationEventHandler(eventParam);
 921:.\Generated_Source\PSoC4/alex_BLE_eventHandler.c ****     }
 922:.\Generated_Source\PSoC4/alex_BLE_eventHandler.c **** #endif /* CYBLE_WSS_CLIENT */
 923:.\Generated_Source\PSoC4/alex_BLE_eventHandler.c **** }
 924:.\Generated_Source\PSoC4/alex_BLE_eventHandler.c **** 
 925:.\Generated_Source\PSoC4/alex_BLE_eventHandler.c **** 
 926:.\Generated_Source\PSoC4/alex_BLE_eventHandler.c **** 
 927:.\Generated_Source\PSoC4/alex_BLE_eventHandler.c **** /******************************************************************************    
 928:.\Generated_Source\PSoC4/alex_BLE_eventHandler.c **** * Function Name: CyBle_ReadResponseEventHandler
 929:.\Generated_Source\PSoC4/alex_BLE_eventHandler.c **** ***************************************************************************//**
 930:.\Generated_Source\PSoC4/alex_BLE_eventHandler.c **** * 
 931:.\Generated_Source\PSoC4/alex_BLE_eventHandler.c **** *  Handles the Read Response event from BLE stack.
 932:.\Generated_Source\PSoC4/alex_BLE_eventHandler.c **** * 
 933:.\Generated_Source\PSoC4/alex_BLE_eventHandler.c **** *  \param eventParam: event parameter
 934:.\Generated_Source\PSoC4/alex_BLE_eventHandler.c **** * 
 935:.\Generated_Source\PSoC4/alex_BLE_eventHandler.c **** * \return
 936:.\Generated_Source\PSoC4/alex_BLE_eventHandler.c **** *  None
 937:.\Generated_Source\PSoC4/alex_BLE_eventHandler.c **** * 
 938:.\Generated_Source\PSoC4/alex_BLE_eventHandler.c **** ******************************************************************************/
 939:.\Generated_Source\PSoC4/alex_BLE_eventHandler.c **** static void CyBle_ReadResponseEventHandler(CYBLE_GATTC_READ_RSP_PARAM_T *eventParam)
 940:.\Generated_Source\PSoC4/alex_BLE_eventHandler.c **** {
 941:.\Generated_Source\PSoC4/alex_BLE_eventHandler.c **** #ifdef CYBLE_CUSTOM_CLIENT
 942:.\Generated_Source\PSoC4/alex_BLE_eventHandler.c ****     /* Read response with 128-bit included service uuid */
 943:.\Generated_Source\PSoC4/alex_BLE_eventHandler.c ****     if((CYBLE_CLIENT_STATE_INCL_DISCOVERING == CyBle_GetClientState()) &&
 944:.\Generated_Source\PSoC4/alex_BLE_eventHandler.c ****        (cyBle_discInclInfo.inclDefHandle != 0u))
 945:.\Generated_Source\PSoC4/alex_BLE_eventHandler.c ****     {
ARM GAS  C:\Users\a\AppData\Local\Temp\ccXpRoQY.s 			page 18


 946:.\Generated_Source\PSoC4/alex_BLE_eventHandler.c ****         CYBLE_DISC_SRVC128_INFO_T discServInfo;
 947:.\Generated_Source\PSoC4/alex_BLE_eventHandler.c **** 
 948:.\Generated_Source\PSoC4/alex_BLE_eventHandler.c ****         /* Store service range */
 949:.\Generated_Source\PSoC4/alex_BLE_eventHandler.c ****         discServInfo.range = cyBle_discInclInfo.inclHandleRange;
 950:.\Generated_Source\PSoC4/alex_BLE_eventHandler.c ****         (void)memcpy((void *) discServInfo.uuid.uuid128.value, (void *)eventParam->value.val, event
 951:.\Generated_Source\PSoC4/alex_BLE_eventHandler.c ****         CyBle_CustomcDiscoverServiceEventHandler(&discServInfo);
 952:.\Generated_Source\PSoC4/alex_BLE_eventHandler.c ****         
 953:.\Generated_Source\PSoC4/alex_BLE_eventHandler.c ****         /* Re-initiate CyBle_GattcFindIncludedServices function, setting the start
 954:.\Generated_Source\PSoC4/alex_BLE_eventHandler.c ****            handle to the attribute handle which is placed next to the one used in
 955:.\Generated_Source\PSoC4/alex_BLE_eventHandler.c ****            the above step.
 956:.\Generated_Source\PSoC4/alex_BLE_eventHandler.c ****         */
 957:.\Generated_Source\PSoC4/alex_BLE_eventHandler.c ****         discServInfo.range.startHandle = cyBle_discInclInfo.inclDefHandle + 1;
 958:.\Generated_Source\PSoC4/alex_BLE_eventHandler.c ****         discServInfo.range.endHandle = cyBle_serverInfo[cyBle_disCount].range.endHandle;
 959:.\Generated_Source\PSoC4/alex_BLE_eventHandler.c ****         if(discServInfo.range.startHandle <= discServInfo.range.endHandle)
 960:.\Generated_Source\PSoC4/alex_BLE_eventHandler.c ****         {
 961:.\Generated_Source\PSoC4/alex_BLE_eventHandler.c ****             if(CYBLE_ERROR_OK != CyBle_GattcFindIncludedServices(cyBle_connHandle, &discServInfo.ra
 962:.\Generated_Source\PSoC4/alex_BLE_eventHandler.c ****             {
 963:.\Generated_Source\PSoC4/alex_BLE_eventHandler.c ****                 CyBle_ApplCallback(CYBLE_EVT_GATTC_INCL_DISCOVERY_FAILED, NULL);
 964:.\Generated_Source\PSoC4/alex_BLE_eventHandler.c ****                 cyBle_eventHandlerFlag &= (uint8)~CYBLE_AUTO_DISCOVERY;
 965:.\Generated_Source\PSoC4/alex_BLE_eventHandler.c ****             }
 966:.\Generated_Source\PSoC4/alex_BLE_eventHandler.c ****         }
 967:.\Generated_Source\PSoC4/alex_BLE_eventHandler.c ****         else /* Continue discovery of the following service */
 968:.\Generated_Source\PSoC4/alex_BLE_eventHandler.c ****         {
 969:.\Generated_Source\PSoC4/alex_BLE_eventHandler.c ****             CyBle_NextInclDiscovery(CYBLE_DISCOVERY_CONTINUE);
 970:.\Generated_Source\PSoC4/alex_BLE_eventHandler.c ****         }
 971:.\Generated_Source\PSoC4/alex_BLE_eventHandler.c ****         
 972:.\Generated_Source\PSoC4/alex_BLE_eventHandler.c ****         cyBle_eventHandlerFlag &= (uint8)~CYBLE_CALLBACK;
 973:.\Generated_Source\PSoC4/alex_BLE_eventHandler.c ****         cyBle_discInclInfo.inclDefHandle = 0u;
 974:.\Generated_Source\PSoC4/alex_BLE_eventHandler.c ****         
 975:.\Generated_Source\PSoC4/alex_BLE_eventHandler.c ****     }
 976:.\Generated_Source\PSoC4/alex_BLE_eventHandler.c **** #endif /* CYBLE_CUSTOM_CLIENT */
 977:.\Generated_Source\PSoC4/alex_BLE_eventHandler.c **** #ifdef CYBLE_ANCS_CLIENT
 978:.\Generated_Source\PSoC4/alex_BLE_eventHandler.c ****     if((cyBle_eventHandlerFlag & CYBLE_CALLBACK) != 0u)
 979:.\Generated_Source\PSoC4/alex_BLE_eventHandler.c ****     {
 980:.\Generated_Source\PSoC4/alex_BLE_eventHandler.c ****         CyBle_AncscReadResponseEventHandler(eventParam);
 981:.\Generated_Source\PSoC4/alex_BLE_eventHandler.c ****     }
 982:.\Generated_Source\PSoC4/alex_BLE_eventHandler.c **** #endif /* CYBLE_ANCS_CLIENT */
 983:.\Generated_Source\PSoC4/alex_BLE_eventHandler.c **** #ifdef CYBLE_ANS_CLIENT
 984:.\Generated_Source\PSoC4/alex_BLE_eventHandler.c ****     if((cyBle_eventHandlerFlag & CYBLE_CALLBACK) != 0u)
 985:.\Generated_Source\PSoC4/alex_BLE_eventHandler.c ****     {
 986:.\Generated_Source\PSoC4/alex_BLE_eventHandler.c ****         CyBle_AnscReadResponseEventHandler(eventParam);
 987:.\Generated_Source\PSoC4/alex_BLE_eventHandler.c ****     }
 988:.\Generated_Source\PSoC4/alex_BLE_eventHandler.c **** #endif /* CYBLE_ANS_CLIENT */
 989:.\Generated_Source\PSoC4/alex_BLE_eventHandler.c **** #ifdef CYBLE_BAS_CLIENT
 990:.\Generated_Source\PSoC4/alex_BLE_eventHandler.c ****     if((cyBle_eventHandlerFlag & CYBLE_CALLBACK) != 0u)
 991:.\Generated_Source\PSoC4/alex_BLE_eventHandler.c ****     {
 992:.\Generated_Source\PSoC4/alex_BLE_eventHandler.c ****         CyBle_BascReadResponseEventHandler(eventParam);
 993:.\Generated_Source\PSoC4/alex_BLE_eventHandler.c ****     }
 994:.\Generated_Source\PSoC4/alex_BLE_eventHandler.c **** #endif /* CYBLE_BAS_CLIENT */
 995:.\Generated_Source\PSoC4/alex_BLE_eventHandler.c **** #ifdef CYBLE_BLS_CLIENT
 996:.\Generated_Source\PSoC4/alex_BLE_eventHandler.c ****     if((cyBle_eventHandlerFlag & CYBLE_CALLBACK) != 0u)
 997:.\Generated_Source\PSoC4/alex_BLE_eventHandler.c ****     {
 998:.\Generated_Source\PSoC4/alex_BLE_eventHandler.c ****         CyBle_BlscReadResponseEventHandler(eventParam);
 999:.\Generated_Source\PSoC4/alex_BLE_eventHandler.c ****     }
1000:.\Generated_Source\PSoC4/alex_BLE_eventHandler.c **** #endif /* CYBLE_BLS_CLIENT */
1001:.\Generated_Source\PSoC4/alex_BLE_eventHandler.c **** #ifdef CYBLE_BCS_CLIENT
1002:.\Generated_Source\PSoC4/alex_BLE_eventHandler.c ****     if((cyBle_eventHandlerFlag & CYBLE_CALLBACK) != 0u)
ARM GAS  C:\Users\a\AppData\Local\Temp\ccXpRoQY.s 			page 19


1003:.\Generated_Source\PSoC4/alex_BLE_eventHandler.c ****     {
1004:.\Generated_Source\PSoC4/alex_BLE_eventHandler.c ****         CyBle_BcscReadResponseEventHandler(eventParam);
1005:.\Generated_Source\PSoC4/alex_BLE_eventHandler.c ****     }
1006:.\Generated_Source\PSoC4/alex_BLE_eventHandler.c **** #endif /* CYBLE_BCS_CLIENT */
1007:.\Generated_Source\PSoC4/alex_BLE_eventHandler.c **** #ifdef CYBLE_BMS_CLIENT
1008:.\Generated_Source\PSoC4/alex_BLE_eventHandler.c ****     if((cyBle_eventHandlerFlag & CYBLE_CALLBACK) != 0u)
1009:.\Generated_Source\PSoC4/alex_BLE_eventHandler.c ****     {
1010:.\Generated_Source\PSoC4/alex_BLE_eventHandler.c ****         CyBle_BmscReadResponseEventHandler(eventParam);
1011:.\Generated_Source\PSoC4/alex_BLE_eventHandler.c ****     }
1012:.\Generated_Source\PSoC4/alex_BLE_eventHandler.c **** #endif /* CYBLE_BMS_CLIENT */
1013:.\Generated_Source\PSoC4/alex_BLE_eventHandler.c **** #ifdef CYBLE_CGMS_CLIENT
1014:.\Generated_Source\PSoC4/alex_BLE_eventHandler.c ****     if((cyBle_eventHandlerFlag & CYBLE_CALLBACK) != 0u)
1015:.\Generated_Source\PSoC4/alex_BLE_eventHandler.c ****     {
1016:.\Generated_Source\PSoC4/alex_BLE_eventHandler.c ****         CyBle_CgmscReadResponseEventHandler(eventParam);
1017:.\Generated_Source\PSoC4/alex_BLE_eventHandler.c ****     }
1018:.\Generated_Source\PSoC4/alex_BLE_eventHandler.c **** #endif /* CYBLE_CGMS_CLIENT */
1019:.\Generated_Source\PSoC4/alex_BLE_eventHandler.c **** #ifdef CYBLE_CPS_CLIENT
1020:.\Generated_Source\PSoC4/alex_BLE_eventHandler.c ****     if((cyBle_eventHandlerFlag & CYBLE_CALLBACK) != 0u)
1021:.\Generated_Source\PSoC4/alex_BLE_eventHandler.c ****     {
1022:.\Generated_Source\PSoC4/alex_BLE_eventHandler.c ****         CyBle_CpscReadResponseEventHandler(eventParam);
1023:.\Generated_Source\PSoC4/alex_BLE_eventHandler.c ****     }
1024:.\Generated_Source\PSoC4/alex_BLE_eventHandler.c **** #endif /* CYBLE_CPS_CLIENT */
1025:.\Generated_Source\PSoC4/alex_BLE_eventHandler.c **** #ifdef CYBLE_CSCS_CLIENT
1026:.\Generated_Source\PSoC4/alex_BLE_eventHandler.c ****     if((cyBle_eventHandlerFlag & CYBLE_CALLBACK) != 0u)
1027:.\Generated_Source\PSoC4/alex_BLE_eventHandler.c ****     {
1028:.\Generated_Source\PSoC4/alex_BLE_eventHandler.c ****         CyBle_CscscReadResponseEventHandler(eventParam);
1029:.\Generated_Source\PSoC4/alex_BLE_eventHandler.c ****     }
1030:.\Generated_Source\PSoC4/alex_BLE_eventHandler.c **** #endif /* CYBLE_CSCS_CLIENT */
1031:.\Generated_Source\PSoC4/alex_BLE_eventHandler.c **** #ifdef CYBLE_CTS_CLIENT
1032:.\Generated_Source\PSoC4/alex_BLE_eventHandler.c ****     if((cyBle_eventHandlerFlag & CYBLE_CALLBACK) != 0u)
1033:.\Generated_Source\PSoC4/alex_BLE_eventHandler.c ****     {
1034:.\Generated_Source\PSoC4/alex_BLE_eventHandler.c ****         CyBle_CtscReadResponseEventHandler(eventParam);
1035:.\Generated_Source\PSoC4/alex_BLE_eventHandler.c ****     }
1036:.\Generated_Source\PSoC4/alex_BLE_eventHandler.c **** #endif /* CYBLE_BAS_CLIENT */
1037:.\Generated_Source\PSoC4/alex_BLE_eventHandler.c **** #ifdef CYBLE_DIS_CLIENT
1038:.\Generated_Source\PSoC4/alex_BLE_eventHandler.c ****     if((cyBle_eventHandlerFlag & CYBLE_CALLBACK) != 0u)
1039:.\Generated_Source\PSoC4/alex_BLE_eventHandler.c ****     {
1040:.\Generated_Source\PSoC4/alex_BLE_eventHandler.c ****         CyBle_DiscReadResponseEventHandler(eventParam);
1041:.\Generated_Source\PSoC4/alex_BLE_eventHandler.c ****     }
1042:.\Generated_Source\PSoC4/alex_BLE_eventHandler.c **** #endif /* CYBLE_DIS_CLIENT */
1043:.\Generated_Source\PSoC4/alex_BLE_eventHandler.c **** #ifdef CYBLE_ESS_CLIENT
1044:.\Generated_Source\PSoC4/alex_BLE_eventHandler.c ****     if((cyBle_eventHandlerFlag & CYBLE_CALLBACK) != 0u)
1045:.\Generated_Source\PSoC4/alex_BLE_eventHandler.c ****     {
1046:.\Generated_Source\PSoC4/alex_BLE_eventHandler.c ****         CyBle_EsscReadResponseEventHandler(eventParam);
1047:.\Generated_Source\PSoC4/alex_BLE_eventHandler.c ****     }
1048:.\Generated_Source\PSoC4/alex_BLE_eventHandler.c **** #endif /* CYBLE_ESS_CLIENT */
1049:.\Generated_Source\PSoC4/alex_BLE_eventHandler.c **** #ifdef CYBLE_GLS_CLIENT
1050:.\Generated_Source\PSoC4/alex_BLE_eventHandler.c ****     if((cyBle_eventHandlerFlag & CYBLE_CALLBACK) != 0u)
1051:.\Generated_Source\PSoC4/alex_BLE_eventHandler.c ****     {
1052:.\Generated_Source\PSoC4/alex_BLE_eventHandler.c ****         CyBle_GlscReadResponseEventHandler(eventParam);
1053:.\Generated_Source\PSoC4/alex_BLE_eventHandler.c ****     }
1054:.\Generated_Source\PSoC4/alex_BLE_eventHandler.c **** #endif /* CYBLE_GLS_CLIENT */
1055:.\Generated_Source\PSoC4/alex_BLE_eventHandler.c **** #ifdef CYBLE_HIDS_CLIENT
1056:.\Generated_Source\PSoC4/alex_BLE_eventHandler.c ****     if((cyBle_eventHandlerFlag & CYBLE_CALLBACK) != 0u)
1057:.\Generated_Source\PSoC4/alex_BLE_eventHandler.c ****     {
1058:.\Generated_Source\PSoC4/alex_BLE_eventHandler.c ****         CyBle_HidscReadResponseEventHandler(eventParam);
1059:.\Generated_Source\PSoC4/alex_BLE_eventHandler.c ****     }
ARM GAS  C:\Users\a\AppData\Local\Temp\ccXpRoQY.s 			page 20


1060:.\Generated_Source\PSoC4/alex_BLE_eventHandler.c **** #endif /* CYBLE_HIDS_CLIENT */
1061:.\Generated_Source\PSoC4/alex_BLE_eventHandler.c **** #ifdef CYBLE_HRS_CLIENT
1062:.\Generated_Source\PSoC4/alex_BLE_eventHandler.c ****     if((cyBle_eventHandlerFlag & CYBLE_CALLBACK) != 0u)
1063:.\Generated_Source\PSoC4/alex_BLE_eventHandler.c ****     {
1064:.\Generated_Source\PSoC4/alex_BLE_eventHandler.c ****         CyBle_HrscReadResponseEventHandler(eventParam);
1065:.\Generated_Source\PSoC4/alex_BLE_eventHandler.c ****     }
1066:.\Generated_Source\PSoC4/alex_BLE_eventHandler.c **** #endif /* CYBLE_HRS_CLIENT */
1067:.\Generated_Source\PSoC4/alex_BLE_eventHandler.c **** #ifdef CYBLE_HTS_CLIENT
1068:.\Generated_Source\PSoC4/alex_BLE_eventHandler.c ****     if((cyBle_eventHandlerFlag & CYBLE_CALLBACK) != 0u)
1069:.\Generated_Source\PSoC4/alex_BLE_eventHandler.c ****     {
1070:.\Generated_Source\PSoC4/alex_BLE_eventHandler.c ****         CyBle_HtscReadResponseEventHandler(eventParam);
1071:.\Generated_Source\PSoC4/alex_BLE_eventHandler.c ****     }
1072:.\Generated_Source\PSoC4/alex_BLE_eventHandler.c **** #endif /* CYBLE_HTS_CLIENT */
1073:.\Generated_Source\PSoC4/alex_BLE_eventHandler.c **** #ifdef CYBLE_LLS_CLIENT
1074:.\Generated_Source\PSoC4/alex_BLE_eventHandler.c ****     if((cyBle_eventHandlerFlag & CYBLE_CALLBACK) != 0u)
1075:.\Generated_Source\PSoC4/alex_BLE_eventHandler.c ****     {
1076:.\Generated_Source\PSoC4/alex_BLE_eventHandler.c ****         CyBle_LlscReadResponseEventHandler(eventParam);
1077:.\Generated_Source\PSoC4/alex_BLE_eventHandler.c ****     }
1078:.\Generated_Source\PSoC4/alex_BLE_eventHandler.c **** #endif /* CYBLE_LLS_CLIENT */
1079:.\Generated_Source\PSoC4/alex_BLE_eventHandler.c **** #ifdef CYBLE_LNS_CLIENT
1080:.\Generated_Source\PSoC4/alex_BLE_eventHandler.c ****     if((cyBle_eventHandlerFlag & CYBLE_CALLBACK) != 0u)
1081:.\Generated_Source\PSoC4/alex_BLE_eventHandler.c ****     {
1082:.\Generated_Source\PSoC4/alex_BLE_eventHandler.c ****         CyBle_LnscReadResponseEventHandler(eventParam);
1083:.\Generated_Source\PSoC4/alex_BLE_eventHandler.c ****     }
1084:.\Generated_Source\PSoC4/alex_BLE_eventHandler.c **** #endif /* CYBLE_LNS_CLIENT */
1085:.\Generated_Source\PSoC4/alex_BLE_eventHandler.c **** #ifdef CYBLE_NDCS_CLIENT
1086:.\Generated_Source\PSoC4/alex_BLE_eventHandler.c ****     if((cyBle_eventHandlerFlag & CYBLE_CALLBACK) != 0u)
1087:.\Generated_Source\PSoC4/alex_BLE_eventHandler.c ****     {
1088:.\Generated_Source\PSoC4/alex_BLE_eventHandler.c ****         CyBle_NdcscReadResponseEventHandler(eventParam);
1089:.\Generated_Source\PSoC4/alex_BLE_eventHandler.c ****     }
1090:.\Generated_Source\PSoC4/alex_BLE_eventHandler.c **** #endif /* CYBLE_NDCS_CLIENT */
1091:.\Generated_Source\PSoC4/alex_BLE_eventHandler.c **** #ifdef CYBLE_PASS_CLIENT
1092:.\Generated_Source\PSoC4/alex_BLE_eventHandler.c ****     if((cyBle_eventHandlerFlag & CYBLE_CALLBACK) != 0u)
1093:.\Generated_Source\PSoC4/alex_BLE_eventHandler.c ****     {
1094:.\Generated_Source\PSoC4/alex_BLE_eventHandler.c ****         CyBle_PasscReadResponseEventHandler(eventParam);
1095:.\Generated_Source\PSoC4/alex_BLE_eventHandler.c ****     }
1096:.\Generated_Source\PSoC4/alex_BLE_eventHandler.c **** #endif /* CYBLE_PASS_CLIENT */
1097:.\Generated_Source\PSoC4/alex_BLE_eventHandler.c **** #ifdef CYBLE_RSCS_CLIENT
1098:.\Generated_Source\PSoC4/alex_BLE_eventHandler.c ****     if((cyBle_eventHandlerFlag & CYBLE_CALLBACK) != 0u)
1099:.\Generated_Source\PSoC4/alex_BLE_eventHandler.c ****     {
1100:.\Generated_Source\PSoC4/alex_BLE_eventHandler.c ****         CyBle_RscscReadResponseEventHandler(eventParam);
1101:.\Generated_Source\PSoC4/alex_BLE_eventHandler.c ****     }
1102:.\Generated_Source\PSoC4/alex_BLE_eventHandler.c **** #endif /* CYBLE_RSCS_CLIENT */
1103:.\Generated_Source\PSoC4/alex_BLE_eventHandler.c **** #ifdef CYBLE_RTUS_CLIENT
1104:.\Generated_Source\PSoC4/alex_BLE_eventHandler.c ****     if((cyBle_eventHandlerFlag & CYBLE_CALLBACK) != 0u)
1105:.\Generated_Source\PSoC4/alex_BLE_eventHandler.c ****     {
1106:.\Generated_Source\PSoC4/alex_BLE_eventHandler.c ****         CyBle_RtuscReadResponseEventHandler(eventParam);
1107:.\Generated_Source\PSoC4/alex_BLE_eventHandler.c ****     }
1108:.\Generated_Source\PSoC4/alex_BLE_eventHandler.c **** #endif /* CYBLE_RTUS_CLIENT */
1109:.\Generated_Source\PSoC4/alex_BLE_eventHandler.c **** #ifdef CYBLE_SCPS_CLIENT
1110:.\Generated_Source\PSoC4/alex_BLE_eventHandler.c ****     if((cyBle_eventHandlerFlag & CYBLE_CALLBACK) != 0u)
1111:.\Generated_Source\PSoC4/alex_BLE_eventHandler.c ****     {
1112:.\Generated_Source\PSoC4/alex_BLE_eventHandler.c ****         CyBle_ScpscReadResponseEventHandler(eventParam);
1113:.\Generated_Source\PSoC4/alex_BLE_eventHandler.c ****     }
1114:.\Generated_Source\PSoC4/alex_BLE_eventHandler.c **** #endif /* CYBLE_SCPS_CLIENT */
1115:.\Generated_Source\PSoC4/alex_BLE_eventHandler.c **** #ifdef CYBLE_TPS_CLIENT
1116:.\Generated_Source\PSoC4/alex_BLE_eventHandler.c ****     if((cyBle_eventHandlerFlag & CYBLE_CALLBACK) != 0u)
ARM GAS  C:\Users\a\AppData\Local\Temp\ccXpRoQY.s 			page 21


1117:.\Generated_Source\PSoC4/alex_BLE_eventHandler.c ****     {
1118:.\Generated_Source\PSoC4/alex_BLE_eventHandler.c ****         CyBle_TpscReadResponseEventHandler(eventParam);
1119:.\Generated_Source\PSoC4/alex_BLE_eventHandler.c ****     }
1120:.\Generated_Source\PSoC4/alex_BLE_eventHandler.c **** #endif /* CYBLE_TPS_CLIENT */
1121:.\Generated_Source\PSoC4/alex_BLE_eventHandler.c **** #ifdef CYBLE_UDS_CLIENT
1122:.\Generated_Source\PSoC4/alex_BLE_eventHandler.c ****     if((cyBle_eventHandlerFlag & CYBLE_CALLBACK) != 0u)
1123:.\Generated_Source\PSoC4/alex_BLE_eventHandler.c ****     {
1124:.\Generated_Source\PSoC4/alex_BLE_eventHandler.c ****         CyBle_UdscReadResponseEventHandler(eventParam);
1125:.\Generated_Source\PSoC4/alex_BLE_eventHandler.c ****     }
1126:.\Generated_Source\PSoC4/alex_BLE_eventHandler.c **** #endif /* CYBLE_UDS_CLIENT */
1127:.\Generated_Source\PSoC4/alex_BLE_eventHandler.c **** #ifdef CYBLE_WPTS_CLIENT
1128:.\Generated_Source\PSoC4/alex_BLE_eventHandler.c ****     if((cyBle_eventHandlerFlag & CYBLE_CALLBACK) != 0u)
1129:.\Generated_Source\PSoC4/alex_BLE_eventHandler.c ****     {
1130:.\Generated_Source\PSoC4/alex_BLE_eventHandler.c ****         CyBle_WptscReadResponseEventHandler(eventParam);
1131:.\Generated_Source\PSoC4/alex_BLE_eventHandler.c ****     }
1132:.\Generated_Source\PSoC4/alex_BLE_eventHandler.c **** #endif /* CYBLE_WPTS_CLIENT */
1133:.\Generated_Source\PSoC4/alex_BLE_eventHandler.c **** #ifdef CYBLE_WSS_CLIENT
1134:.\Generated_Source\PSoC4/alex_BLE_eventHandler.c ****     if((cyBle_eventHandlerFlag & CYBLE_CALLBACK) != 0u)
1135:.\Generated_Source\PSoC4/alex_BLE_eventHandler.c ****     {
1136:.\Generated_Source\PSoC4/alex_BLE_eventHandler.c ****         CyBle_WsscReadResponseEventHandler(eventParam);
1137:.\Generated_Source\PSoC4/alex_BLE_eventHandler.c ****     }
1138:.\Generated_Source\PSoC4/alex_BLE_eventHandler.c **** #endif /* CYBLE_WSS_CLIENT */
1139:.\Generated_Source\PSoC4/alex_BLE_eventHandler.c **** }
1140:.\Generated_Source\PSoC4/alex_BLE_eventHandler.c **** #endif /* CYBLE_GATT_ROLE_CLIENT */
1141:.\Generated_Source\PSoC4/alex_BLE_eventHandler.c **** 
1142:.\Generated_Source\PSoC4/alex_BLE_eventHandler.c **** 
1143:.\Generated_Source\PSoC4/alex_BLE_eventHandler.c **** /****************************************************************************** 
1144:.\Generated_Source\PSoC4/alex_BLE_eventHandler.c **** * Function Name: CyBle_DisconnectEventHandler
1145:.\Generated_Source\PSoC4/alex_BLE_eventHandler.c **** ***************************************************************************//**
1146:.\Generated_Source\PSoC4/alex_BLE_eventHandler.c **** * 
1147:.\Generated_Source\PSoC4/alex_BLE_eventHandler.c **** *  Handles the GATT Disconnection event from the BLE stack.
1148:.\Generated_Source\PSoC4/alex_BLE_eventHandler.c **** * 
1149:.\Generated_Source\PSoC4/alex_BLE_eventHandler.c **** * \return
1150:.\Generated_Source\PSoC4/alex_BLE_eventHandler.c **** *  None
1151:.\Generated_Source\PSoC4/alex_BLE_eventHandler.c **** * 
1152:.\Generated_Source\PSoC4/alex_BLE_eventHandler.c **** ******************************************************************************/
1153:.\Generated_Source\PSoC4/alex_BLE_eventHandler.c **** static void CyBle_GattDisconnectEventHandler(void)
1154:.\Generated_Source\PSoC4/alex_BLE_eventHandler.c **** {
  25              		.loc 1 1154 0
  26              		.cfi_startproc
1155:.\Generated_Source\PSoC4/alex_BLE_eventHandler.c ****     cyBle_connHandle.attId = 0u;
  27              		.loc 1 1155 0
  28 0000 024B     		ldr	r3, .L2
  29 0002 0022     		mov	r2, #0
  30 0004 5A70     		strb	r2, [r3, #1]
1156:.\Generated_Source\PSoC4/alex_BLE_eventHandler.c ****     cyBle_connHandle.bdHandle = 0u;
  31              		.loc 1 1156 0
  32 0006 1A70     		strb	r2, [r3]
1157:.\Generated_Source\PSoC4/alex_BLE_eventHandler.c ****     
1158:.\Generated_Source\PSoC4/alex_BLE_eventHandler.c ****     #if (CYBLE_GATT_ROLE_CLIENT)
1159:.\Generated_Source\PSoC4/alex_BLE_eventHandler.c ****         if(CYBLE_CLIENT_STATE_DISCOVERED == CyBle_GetClientState())
1160:.\Generated_Source\PSoC4/alex_BLE_eventHandler.c ****         {
1161:.\Generated_Source\PSoC4/alex_BLE_eventHandler.c ****             CyBle_SetClientState(CYBLE_CLIENT_STATE_DISCONNECTED_DISCOVERED);
1162:.\Generated_Source\PSoC4/alex_BLE_eventHandler.c ****         }
1163:.\Generated_Source\PSoC4/alex_BLE_eventHandler.c ****         else
1164:.\Generated_Source\PSoC4/alex_BLE_eventHandler.c ****         {
1165:.\Generated_Source\PSoC4/alex_BLE_eventHandler.c ****             CyBle_SetClientState(CYBLE_CLIENT_STATE_DISCONNECTED);
ARM GAS  C:\Users\a\AppData\Local\Temp\ccXpRoQY.s 			page 22


1166:.\Generated_Source\PSoC4/alex_BLE_eventHandler.c ****         }
1167:.\Generated_Source\PSoC4/alex_BLE_eventHandler.c ****     #endif /* CYBLE_GATT_ROLE_CLIENT */
1168:.\Generated_Source\PSoC4/alex_BLE_eventHandler.c ****         
1169:.\Generated_Source\PSoC4/alex_BLE_eventHandler.c ****     #ifdef CYBLE_CPS_SERVER
1170:.\Generated_Source\PSoC4/alex_BLE_eventHandler.c ****         #if CYBLE_GAP_ROLE_BROADCASTER
1171:.\Generated_Source\PSoC4/alex_BLE_eventHandler.c ****             CyBle_CpssDisconnectEventHandler();
1172:.\Generated_Source\PSoC4/alex_BLE_eventHandler.c ****         #endif /* CYBLE_GAP_ROLE_BROADCASTER */
1173:.\Generated_Source\PSoC4/alex_BLE_eventHandler.c ****     #endif /* CYBLE_CPS_SERVER */
1174:.\Generated_Source\PSoC4/alex_BLE_eventHandler.c **** 
1175:.\Generated_Source\PSoC4/alex_BLE_eventHandler.c ****     #ifdef CYBLE_CPS_CLIENT
1176:.\Generated_Source\PSoC4/alex_BLE_eventHandler.c ****         CyBle_CpscDisconnectEventHandler();
1177:.\Generated_Source\PSoC4/alex_BLE_eventHandler.c ****     #endif /* CYBLE_CPS_CLIENT */
1178:.\Generated_Source\PSoC4/alex_BLE_eventHandler.c **** 
1179:.\Generated_Source\PSoC4/alex_BLE_eventHandler.c ****     #ifdef CYBLE_IAS_SERVER
1180:.\Generated_Source\PSoC4/alex_BLE_eventHandler.c ****         CyBle_IassDisconnectEventHandler();
1181:.\Generated_Source\PSoC4/alex_BLE_eventHandler.c ****     #endif /* CYBLE_IAS_SERVER */
1182:.\Generated_Source\PSoC4/alex_BLE_eventHandler.c ****     
1183:.\Generated_Source\PSoC4/alex_BLE_eventHandler.c ****     #ifdef CYBLE_GLS_SERVER
1184:.\Generated_Source\PSoC4/alex_BLE_eventHandler.c ****         CyBle_GlsInit();
1185:.\Generated_Source\PSoC4/alex_BLE_eventHandler.c ****     #endif /* CYBLE_GLS_SERVER */
1186:.\Generated_Source\PSoC4/alex_BLE_eventHandler.c ****     
1187:.\Generated_Source\PSoC4/alex_BLE_eventHandler.c ****     #ifdef CYBLE_LNS_SERVER
1188:.\Generated_Source\PSoC4/alex_BLE_eventHandler.c ****         CyBle_LnsInit();
1189:.\Generated_Source\PSoC4/alex_BLE_eventHandler.c ****     #endif /* CYBLE_LNS_SERVER */
1190:.\Generated_Source\PSoC4/alex_BLE_eventHandler.c ****     
1191:.\Generated_Source\PSoC4/alex_BLE_eventHandler.c ****     #ifdef CYBLE_UDS_SERVER
1192:.\Generated_Source\PSoC4/alex_BLE_eventHandler.c ****         CyBle_UdsInit();
1193:.\Generated_Source\PSoC4/alex_BLE_eventHandler.c ****     #endif /* CYBLE_UDS_SERVER */
1194:.\Generated_Source\PSoC4/alex_BLE_eventHandler.c **** }
  33              		.loc 1 1194 0
  34              		@ sp needed
  35 0008 7047     		bx	lr
  36              	.L3:
  37 000a C046     		.align	2
  38              	.L2:
  39 000c 00000000 		.word	cyBle_connHandle
  40              		.cfi_endproc
  41              	.LFE4:
  42              		.size	CyBle_GattDisconnectEventHandler, .-CyBle_GattDisconnectEventHandler
  43              		.section	.text.CyBle_IsDeviceAddressValid,"ax",%progbits
  44              		.align	2
  45              		.code	16
  46              		.thumb_func
  47              		.type	CyBle_IsDeviceAddressValid, %function
  48              	CyBle_IsDeviceAddressValid:
  49              	.LFB7:
1195:.\Generated_Source\PSoC4/alex_BLE_eventHandler.c **** 
1196:.\Generated_Source\PSoC4/alex_BLE_eventHandler.c **** 
1197:.\Generated_Source\PSoC4/alex_BLE_eventHandler.c **** /****************************************************************************** 
1198:.\Generated_Source\PSoC4/alex_BLE_eventHandler.c **** * Function Name: CyBle_TimeOutEventHandler
1199:.\Generated_Source\PSoC4/alex_BLE_eventHandler.c **** ***************************************************************************//**
1200:.\Generated_Source\PSoC4/alex_BLE_eventHandler.c **** * 
1201:.\Generated_Source\PSoC4/alex_BLE_eventHandler.c **** *  Handles the CYBLE_EVT_TIMEOUT event from the BLE stack.
1202:.\Generated_Source\PSoC4/alex_BLE_eventHandler.c **** * 
1203:.\Generated_Source\PSoC4/alex_BLE_eventHandler.c **** *  \param eventParam: The pointer to a structure of type CYBLE_TO_REASON_CODE_T.
1204:.\Generated_Source\PSoC4/alex_BLE_eventHandler.c **** * 
1205:.\Generated_Source\PSoC4/alex_BLE_eventHandler.c **** * \return
ARM GAS  C:\Users\a\AppData\Local\Temp\ccXpRoQY.s 			page 23


1206:.\Generated_Source\PSoC4/alex_BLE_eventHandler.c **** *  None
1207:.\Generated_Source\PSoC4/alex_BLE_eventHandler.c **** * 
1208:.\Generated_Source\PSoC4/alex_BLE_eventHandler.c **** ******************************************************************************/
1209:.\Generated_Source\PSoC4/alex_BLE_eventHandler.c **** static void CyBle_TimeOutEventHandler(const CYBLE_TO_REASON_CODE_T *eventParam)
1210:.\Generated_Source\PSoC4/alex_BLE_eventHandler.c **** {
1211:.\Generated_Source\PSoC4/alex_BLE_eventHandler.c ****     if(*eventParam == CYBLE_GATT_RSP_TO)
1212:.\Generated_Source\PSoC4/alex_BLE_eventHandler.c ****     {
1213:.\Generated_Source\PSoC4/alex_BLE_eventHandler.c ****     #if (CYBLE_GATT_ROLE_CLIENT)
1214:.\Generated_Source\PSoC4/alex_BLE_eventHandler.c ****         if((cyBle_eventHandlerFlag & CYBLE_AUTO_DISCOVERY) != 0u)
1215:.\Generated_Source\PSoC4/alex_BLE_eventHandler.c ****         {
1216:.\Generated_Source\PSoC4/alex_BLE_eventHandler.c ****             switch(CyBle_GetClientState())
1217:.\Generated_Source\PSoC4/alex_BLE_eventHandler.c ****             {
1218:.\Generated_Source\PSoC4/alex_BLE_eventHandler.c ****                 case CYBLE_CLIENT_STATE_SRVC_DISCOVERING:
1219:.\Generated_Source\PSoC4/alex_BLE_eventHandler.c ****                     CyBle_ApplCallback(CYBLE_EVT_GATTC_SRVC_DISCOVERY_FAILED, NULL);
1220:.\Generated_Source\PSoC4/alex_BLE_eventHandler.c ****                     break;
1221:.\Generated_Source\PSoC4/alex_BLE_eventHandler.c ****                 case CYBLE_CLIENT_STATE_INCL_DISCOVERING:
1222:.\Generated_Source\PSoC4/alex_BLE_eventHandler.c ****                     CyBle_ApplCallback(CYBLE_EVT_GATTC_INCL_DISCOVERY_FAILED, NULL);
1223:.\Generated_Source\PSoC4/alex_BLE_eventHandler.c ****                     break;
1224:.\Generated_Source\PSoC4/alex_BLE_eventHandler.c ****                 case CYBLE_CLIENT_STATE_CHAR_DISCOVERING:
1225:.\Generated_Source\PSoC4/alex_BLE_eventHandler.c ****                     CyBle_ApplCallback(CYBLE_EVT_GATTC_CHAR_DISCOVERY_FAILED, NULL);
1226:.\Generated_Source\PSoC4/alex_BLE_eventHandler.c ****                     break;
1227:.\Generated_Source\PSoC4/alex_BLE_eventHandler.c ****                 case CYBLE_CLIENT_STATE_DESCR_DISCOVERING:
1228:.\Generated_Source\PSoC4/alex_BLE_eventHandler.c ****                     CyBle_ApplCallback(CYBLE_EVT_GATTC_DESCR_DISCOVERY_FAILED, NULL);
1229:.\Generated_Source\PSoC4/alex_BLE_eventHandler.c ****                     break;
1230:.\Generated_Source\PSoC4/alex_BLE_eventHandler.c ****                 default:        /* Other states should not be set in Auto discovery mode */
1231:.\Generated_Source\PSoC4/alex_BLE_eventHandler.c ****                     break;
1232:.\Generated_Source\PSoC4/alex_BLE_eventHandler.c ****             }
1233:.\Generated_Source\PSoC4/alex_BLE_eventHandler.c ****             cyBle_eventHandlerFlag &= (uint8)~CYBLE_AUTO_DISCOVERY;
1234:.\Generated_Source\PSoC4/alex_BLE_eventHandler.c ****             CyBle_SetClientState(CYBLE_CLIENT_STATE_CONNECTED);
1235:.\Generated_Source\PSoC4/alex_BLE_eventHandler.c ****         }
1236:.\Generated_Source\PSoC4/alex_BLE_eventHandler.c ****     #endif /* CYBLE_GATT_ROLE_CLIENT */
1237:.\Generated_Source\PSoC4/alex_BLE_eventHandler.c ****     #ifdef CYBLE_CPS_SERVER
1238:.\Generated_Source\PSoC4/alex_BLE_eventHandler.c ****         CyBle_CpssTimeOutEventHandler();
1239:.\Generated_Source\PSoC4/alex_BLE_eventHandler.c ****     #endif /* CYBLE_CPS_SERVER */
1240:.\Generated_Source\PSoC4/alex_BLE_eventHandler.c ****     }
1241:.\Generated_Source\PSoC4/alex_BLE_eventHandler.c ****     
1242:.\Generated_Source\PSoC4/alex_BLE_eventHandler.c ****     /* Connection procedure timeout */
1243:.\Generated_Source\PSoC4/alex_BLE_eventHandler.c ****     if(*eventParam == CYBLE_GENERIC_TO)
1244:.\Generated_Source\PSoC4/alex_BLE_eventHandler.c ****     {
1245:.\Generated_Source\PSoC4/alex_BLE_eventHandler.c ****     #if(CYBLE_GAP_ROLE_CENTRAL)
1246:.\Generated_Source\PSoC4/alex_BLE_eventHandler.c ****         if(CYBLE_STATE_CONNECTING == CyBle_GetState())
1247:.\Generated_Source\PSoC4/alex_BLE_eventHandler.c ****         {
1248:.\Generated_Source\PSoC4/alex_BLE_eventHandler.c ****             (void)CyBle_GapcCancelDeviceConnection();
1249:.\Generated_Source\PSoC4/alex_BLE_eventHandler.c ****         }
1250:.\Generated_Source\PSoC4/alex_BLE_eventHandler.c ****     #endif /* CYBLE_GAP_ROLE_CENTRAL */
1251:.\Generated_Source\PSoC4/alex_BLE_eventHandler.c ****     }
1252:.\Generated_Source\PSoC4/alex_BLE_eventHandler.c **** }
1253:.\Generated_Source\PSoC4/alex_BLE_eventHandler.c **** 
1254:.\Generated_Source\PSoC4/alex_BLE_eventHandler.c **** 
1255:.\Generated_Source\PSoC4/alex_BLE_eventHandler.c **** /****************************************************************************** 
1256:.\Generated_Source\PSoC4/alex_BLE_eventHandler.c **** * Function Name: CyBle_GattConnectReqHandler
1257:.\Generated_Source\PSoC4/alex_BLE_eventHandler.c **** ***************************************************************************//**
1258:.\Generated_Source\PSoC4/alex_BLE_eventHandler.c **** * 
1259:.\Generated_Source\PSoC4/alex_BLE_eventHandler.c **** *  Handles the GATT connect event from the BLE stack.
1260:.\Generated_Source\PSoC4/alex_BLE_eventHandler.c **** * 
1261:.\Generated_Source\PSoC4/alex_BLE_eventHandler.c **** * \return
1262:.\Generated_Source\PSoC4/alex_BLE_eventHandler.c **** *  None
ARM GAS  C:\Users\a\AppData\Local\Temp\ccXpRoQY.s 			page 24


1263:.\Generated_Source\PSoC4/alex_BLE_eventHandler.c **** * 
1264:.\Generated_Source\PSoC4/alex_BLE_eventHandler.c **** ******************************************************************************/
1265:.\Generated_Source\PSoC4/alex_BLE_eventHandler.c **** static void CyBle_GattConnectReqHandler(void)
1266:.\Generated_Source\PSoC4/alex_BLE_eventHandler.c **** {
1267:.\Generated_Source\PSoC4/alex_BLE_eventHandler.c ****     #ifdef CYBLE_CGMS_SERVER
1268:.\Generated_Source\PSoC4/alex_BLE_eventHandler.c ****         CyBle_CgmsInit();
1269:.\Generated_Source\PSoC4/alex_BLE_eventHandler.c ****     #endif /* CYBLE_CGMS_SERVER */
1270:.\Generated_Source\PSoC4/alex_BLE_eventHandler.c ****     
1271:.\Generated_Source\PSoC4/alex_BLE_eventHandler.c ****     #ifdef CYBLE_CPS_SERVER
1272:.\Generated_Source\PSoC4/alex_BLE_eventHandler.c ****         CyBle_CpssConnectEventHandler();
1273:.\Generated_Source\PSoC4/alex_BLE_eventHandler.c ****     #endif /* CYBLE_CPS_SERVER */
1274:.\Generated_Source\PSoC4/alex_BLE_eventHandler.c ****     
1275:.\Generated_Source\PSoC4/alex_BLE_eventHandler.c ****     #ifdef CYBLE_CSCS_SERVER
1276:.\Generated_Source\PSoC4/alex_BLE_eventHandler.c ****             CyBle_CscsInit();
1277:.\Generated_Source\PSoC4/alex_BLE_eventHandler.c ****     #endif /* CYBLE_CSCS_SERVER */
1278:.\Generated_Source\PSoC4/alex_BLE_eventHandler.c ****     
1279:.\Generated_Source\PSoC4/alex_BLE_eventHandler.c ****     #ifdef CYBLE_LLS_SERVER
1280:.\Generated_Source\PSoC4/alex_BLE_eventHandler.c ****         CyBle_LlssConnectEventHandler();
1281:.\Generated_Source\PSoC4/alex_BLE_eventHandler.c ****     #endif /* CYBLE_LLS_SERVER */
1282:.\Generated_Source\PSoC4/alex_BLE_eventHandler.c ****     
1283:.\Generated_Source\PSoC4/alex_BLE_eventHandler.c ****     #ifdef CYBLE_HIDS_SERVER
1284:.\Generated_Source\PSoC4/alex_BLE_eventHandler.c ****         CyBle_HidssOnDeviceConnected();
1285:.\Generated_Source\PSoC4/alex_BLE_eventHandler.c ****     #endif /* CYBLE_HIDS_SERVER */
1286:.\Generated_Source\PSoC4/alex_BLE_eventHandler.c **** 
1287:.\Generated_Source\PSoC4/alex_BLE_eventHandler.c ****     #ifdef CYBLE_RSCS_SERVER
1288:.\Generated_Source\PSoC4/alex_BLE_eventHandler.c ****         CyBle_RscsInit();
1289:.\Generated_Source\PSoC4/alex_BLE_eventHandler.c ****     #endif /* CYBLE_RSCS_SERVER */
1290:.\Generated_Source\PSoC4/alex_BLE_eventHandler.c **** }
1291:.\Generated_Source\PSoC4/alex_BLE_eventHandler.c **** 
1292:.\Generated_Source\PSoC4/alex_BLE_eventHandler.c **** 
1293:.\Generated_Source\PSoC4/alex_BLE_eventHandler.c **** #if (CYBLE_GATT_ROLE_SERVER || CYBLE_GATT_ROLE_CLIENT)
1294:.\Generated_Source\PSoC4/alex_BLE_eventHandler.c **** 
1295:.\Generated_Source\PSoC4/alex_BLE_eventHandler.c **** /****************************************************************************** 
1296:.\Generated_Source\PSoC4/alex_BLE_eventHandler.c **** * Function Name: CyBle_IsDeviceAddressValid
1297:.\Generated_Source\PSoC4/alex_BLE_eventHandler.c **** ***************************************************************************//**
1298:.\Generated_Source\PSoC4/alex_BLE_eventHandler.c **** * 
1299:.\Generated_Source\PSoC4/alex_BLE_eventHandler.c **** *  This function verifies that BLE public address has been programmed to SFLASH 
1300:.\Generated_Source\PSoC4/alex_BLE_eventHandler.c **** *  during manufacture.
1301:.\Generated_Source\PSoC4/alex_BLE_eventHandler.c **** * 
1302:.\Generated_Source\PSoC4/alex_BLE_eventHandler.c **** *  \param CYBLE_GAP_BD_ADDR_T *sflashDeviceAddress: the pointer to the BD address of 
1303:.\Generated_Source\PSoC4/alex_BLE_eventHandler.c **** *                                            type CYBLE_GAP_BD_ADDR_T. 
1304:.\Generated_Source\PSoC4/alex_BLE_eventHandler.c **** * 
1305:.\Generated_Source\PSoC4/alex_BLE_eventHandler.c **** * \return
1306:.\Generated_Source\PSoC4/alex_BLE_eventHandler.c **** *  Non zero value when a device address differs from the default SFLASH content.
1307:.\Generated_Source\PSoC4/alex_BLE_eventHandler.c **** * 
1308:.\Generated_Source\PSoC4/alex_BLE_eventHandler.c **** ******************************************************************************/
1309:.\Generated_Source\PSoC4/alex_BLE_eventHandler.c **** static uint8 CyBle_IsDeviceAddressValid(const CYBLE_GAP_BD_ADDR_T *sflashDeviceAddress)
1310:.\Generated_Source\PSoC4/alex_BLE_eventHandler.c **** {
  50              		.loc 1 1310 0
  51              		.cfi_startproc
  52              	.LVL0:
1311:.\Generated_Source\PSoC4/alex_BLE_eventHandler.c ****     uint8 i;
1312:.\Generated_Source\PSoC4/alex_BLE_eventHandler.c ****     uint8 sflashAddressValid = 0u;
1313:.\Generated_Source\PSoC4/alex_BLE_eventHandler.c ****     
1314:.\Generated_Source\PSoC4/alex_BLE_eventHandler.c ****     if(sflashDeviceAddress -> type == CYBLE_GAP_ADDR_TYPE_PUBLIC)  
  53              		.loc 1 1314 0
  54 0000 8379     		ldrb	r3, [r0, #6]
ARM GAS  C:\Users\a\AppData\Local\Temp\ccXpRoQY.s 			page 25


  55 0002 002B     		cmp	r3, #0
  56 0004 07D0     		beq	.L8
1312:.\Generated_Source\PSoC4/alex_BLE_eventHandler.c ****     
  57              		.loc 1 1312 0
  58 0006 0020     		mov	r0, #0
  59              	.LVL1:
  60 0008 0BE0     		b	.L6
  61              	.LVL2:
  62              	.L7:
1315:.\Generated_Source\PSoC4/alex_BLE_eventHandler.c ****     {
1316:.\Generated_Source\PSoC4/alex_BLE_eventHandler.c ****         for(i = 0u; i < CYBLE_GAP_BD_ADDR_SIZE; i++)
1317:.\Generated_Source\PSoC4/alex_BLE_eventHandler.c ****         {
1318:.\Generated_Source\PSoC4/alex_BLE_eventHandler.c ****             if(sflashDeviceAddress->bdAddr[i] != 0u)
  63              		.loc 1 1318 0
  64 000a C25C     		ldrb	r2, [r0, r3]
  65 000c 002A     		cmp	r2, #0
  66 000e 07D1     		bne	.L9
1316:.\Generated_Source\PSoC4/alex_BLE_eventHandler.c ****         {
  67              		.loc 1 1316 0 discriminator 2
  68 0010 0133     		add	r3, r3, #1
  69              	.LVL3:
  70 0012 DBB2     		uxtb	r3, r3
  71              	.LVL4:
  72 0014 00E0     		b	.L5
  73              	.LVL5:
  74              	.L8:
  75 0016 0023     		mov	r3, #0
  76              	.L5:
  77              	.LVL6:
1316:.\Generated_Source\PSoC4/alex_BLE_eventHandler.c ****         {
  78              		.loc 1 1316 0 is_stmt 0 discriminator 1
  79 0018 052B     		cmp	r3, #5
  80 001a F6D9     		bls	.L7
1312:.\Generated_Source\PSoC4/alex_BLE_eventHandler.c ****     
  81              		.loc 1 1312 0 is_stmt 1
  82 001c 0020     		mov	r0, #0
  83              	.LVL7:
  84 001e 00E0     		b	.L6
  85              	.LVL8:
  86              	.L9:
1319:.\Generated_Source\PSoC4/alex_BLE_eventHandler.c ****             {
1320:.\Generated_Source\PSoC4/alex_BLE_eventHandler.c ****                 sflashAddressValid = 1u;
  87              		.loc 1 1320 0
  88 0020 0120     		mov	r0, #1
  89              	.LVL9:
  90              	.L6:
1321:.\Generated_Source\PSoC4/alex_BLE_eventHandler.c ****                 break;
1322:.\Generated_Source\PSoC4/alex_BLE_eventHandler.c ****             }
1323:.\Generated_Source\PSoC4/alex_BLE_eventHandler.c ****         }
1324:.\Generated_Source\PSoC4/alex_BLE_eventHandler.c ****     }
1325:.\Generated_Source\PSoC4/alex_BLE_eventHandler.c **** #if (CYBLE_M0S8BLESS_VERSION != 1)
1326:.\Generated_Source\PSoC4/alex_BLE_eventHandler.c ****     sflashAddressValid = 0u;
1327:.\Generated_Source\PSoC4/alex_BLE_eventHandler.c **** #endif
1328:.\Generated_Source\PSoC4/alex_BLE_eventHandler.c ****     
1329:.\Generated_Source\PSoC4/alex_BLE_eventHandler.c ****     return (sflashAddressValid);
1330:.\Generated_Source\PSoC4/alex_BLE_eventHandler.c **** }
  91              		.loc 1 1330 0
ARM GAS  C:\Users\a\AppData\Local\Temp\ccXpRoQY.s 			page 26


  92              		@ sp needed
  93 0022 7047     		bx	lr
  94              		.cfi_endproc
  95              	.LFE7:
  96              		.size	CyBle_IsDeviceAddressValid, .-CyBle_IsDeviceAddressValid
  97              		.section	.text.CyBle_WriteReqHandler,"ax",%progbits
  98              		.align	2
  99              		.code	16
 100              		.thumb_func
 101              		.type	CyBle_WriteReqHandler, %function
 102              	CyBle_WriteReqHandler:
 103              	.LFB2:
 228:.\Generated_Source\PSoC4/alex_BLE_eventHandler.c ****     CYBLE_GATT_ERR_CODE_T gattErr;
 104              		.loc 1 228 0
 105              		.cfi_startproc
 106              	.LVL10:
 107 0000 10B5     		push	{r4, lr}
 108              		.cfi_def_cfa_offset 8
 109              		.cfi_offset 4, -8
 110              		.cfi_offset 14, -4
 111 0002 82B0     		sub	sp, sp, #8
 112              		.cfi_def_cfa_offset 16
 113 0004 041C     		mov	r4, r0
 234:.\Generated_Source\PSoC4/alex_BLE_eventHandler.c **** #ifdef CYBLE_ANCS_SERVER
 114              		.loc 1 234 0
 115 0006 FFF7FEFF 		bl	CyBle_GattsWriteEventHandler
 116              	.LVL11:
 387:.\Generated_Source\PSoC4/alex_BLE_eventHandler.c ****     {
 117              		.loc 1 387 0
 118 000a 0A4B     		ldr	r3, .L13
 119 000c 1B78     		ldrb	r3, [r3]
 120 000e DB07     		lsl	r3, r3, #31
 121 0010 0ED4     		bmi	.L10
 389:.\Generated_Source\PSoC4/alex_BLE_eventHandler.c ****         {
 122              		.loc 1 389 0
 123 0012 0028     		cmp	r0, #0
 124 0014 09D0     		beq	.L12
 125              	.LBB2:
 393:.\Generated_Source\PSoC4/alex_BLE_eventHandler.c ****             err_param.attrHandle = eventParam->handleValPair.attrHandle;
 126              		.loc 1 393 0
 127 0016 01A9     		add	r1, sp, #4
 128 0018 1223     		mov	r3, #18
 129 001a 8B70     		strb	r3, [r1, #2]
 394:.\Generated_Source\PSoC4/alex_BLE_eventHandler.c ****             err_param.errorCode = gattErr;
 130              		.loc 1 394 0
 131 001c A389     		ldrh	r3, [r4, #12]
 132 001e 0B80     		strh	r3, [r1]
 395:.\Generated_Source\PSoC4/alex_BLE_eventHandler.c **** 
 133              		.loc 1 395 0
 134 0020 C870     		strb	r0, [r1, #3]
 398:.\Generated_Source\PSoC4/alex_BLE_eventHandler.c ****         }
 135              		.loc 1 398 0
 136 0022 2068     		ldr	r0, [r4]
 137              	.LVL12:
 138 0024 FFF7FEFF 		bl	CyBle_GattsErrorRsp
 139              	.LVL13:
 140              	.LBE2:
ARM GAS  C:\Users\a\AppData\Local\Temp\ccXpRoQY.s 			page 27


 141 0028 02E0     		b	.L10
 142              	.LVL14:
 143              	.L12:
 402:.\Generated_Source\PSoC4/alex_BLE_eventHandler.c ****         }
 144              		.loc 1 402 0
 145 002a 2068     		ldr	r0, [r4]
 146              	.LVL15:
 147 002c FFF7FEFF 		bl	CyBle_GattsWriteRsp
 148              	.LVL16:
 149              	.L10:
 405:.\Generated_Source\PSoC4/alex_BLE_eventHandler.c **** 
 150              		.loc 1 405 0
 151 0030 02B0     		add	sp, sp, #8
 152              		@ sp needed
 153              	.LVL17:
 154 0032 10BD     		pop	{r4, pc}
 155              	.L14:
 156              		.align	2
 157              	.L13:
 158 0034 00000000 		.word	cyBle_eventHandlerFlag
 159              		.cfi_endproc
 160              	.LFE2:
 161              		.size	CyBle_WriteReqHandler, .-CyBle_WriteReqHandler
 162              		.section	.text.CyBle_EventHandler,"ax",%progbits
 163              		.align	2
 164              		.global	CyBle_EventHandler
 165              		.code	16
 166              		.thumb_func
 167              		.type	CyBle_EventHandler, %function
 168              	CyBle_EventHandler:
 169              	.LFB10:
1331:.\Generated_Source\PSoC4/alex_BLE_eventHandler.c **** #endif /* CYBLE_GATT_ROLE_SERVER || CYBLE_GATT_ROLE_CLIENT */
1332:.\Generated_Source\PSoC4/alex_BLE_eventHandler.c **** 
1333:.\Generated_Source\PSoC4/alex_BLE_eventHandler.c **** 
1334:.\Generated_Source\PSoC4/alex_BLE_eventHandler.c **** /****************************************************************************** 
1335:.\Generated_Source\PSoC4/alex_BLE_eventHandler.c **** * Function Name: CyBle_L2Cap_ConnParamUpdateRspHandler
1336:.\Generated_Source\PSoC4/alex_BLE_eventHandler.c **** ***************************************************************************//**
1337:.\Generated_Source\PSoC4/alex_BLE_eventHandler.c **** * 
1338:.\Generated_Source\PSoC4/alex_BLE_eventHandler.c **** *  Handles the L2CAP connection parameter response event from
1339:.\Generated_Source\PSoC4/alex_BLE_eventHandler.c **** *  the BLE stack.
1340:.\Generated_Source\PSoC4/alex_BLE_eventHandler.c **** * 
1341:.\Generated_Source\PSoC4/alex_BLE_eventHandler.c **** *  \param response:
1342:.\Generated_Source\PSoC4/alex_BLE_eventHandler.c **** *      * Accepted = 0x0000
1343:.\Generated_Source\PSoC4/alex_BLE_eventHandler.c **** *      * Rejected = 0x0001
1344:.\Generated_Source\PSoC4/alex_BLE_eventHandler.c **** * 
1345:.\Generated_Source\PSoC4/alex_BLE_eventHandler.c **** * \return
1346:.\Generated_Source\PSoC4/alex_BLE_eventHandler.c **** *  None
1347:.\Generated_Source\PSoC4/alex_BLE_eventHandler.c **** * 
1348:.\Generated_Source\PSoC4/alex_BLE_eventHandler.c **** ******************************************************************************/
1349:.\Generated_Source\PSoC4/alex_BLE_eventHandler.c **** static void CyBle_L2Cap_ConnParamUpdateRspEventHandler(uint16 response)
1350:.\Generated_Source\PSoC4/alex_BLE_eventHandler.c **** {
1351:.\Generated_Source\PSoC4/alex_BLE_eventHandler.c ****     #ifdef CYBLE_CPS_SERVER
1352:.\Generated_Source\PSoC4/alex_BLE_eventHandler.c ****         CyBle_CpssConnParamUpdateRspEventHandler(response);
1353:.\Generated_Source\PSoC4/alex_BLE_eventHandler.c ****     #endif /* CYBLE_CPS_SERVER */
1354:.\Generated_Source\PSoC4/alex_BLE_eventHandler.c ****     
1355:.\Generated_Source\PSoC4/alex_BLE_eventHandler.c ****     /* Unreferenced variable warning workaround */
1356:.\Generated_Source\PSoC4/alex_BLE_eventHandler.c ****     if(response != 0u)
ARM GAS  C:\Users\a\AppData\Local\Temp\ccXpRoQY.s 			page 28


1357:.\Generated_Source\PSoC4/alex_BLE_eventHandler.c ****     {
1358:.\Generated_Source\PSoC4/alex_BLE_eventHandler.c ****     }
1359:.\Generated_Source\PSoC4/alex_BLE_eventHandler.c **** }
1360:.\Generated_Source\PSoC4/alex_BLE_eventHandler.c **** 
1361:.\Generated_Source\PSoC4/alex_BLE_eventHandler.c **** 
1362:.\Generated_Source\PSoC4/alex_BLE_eventHandler.c **** /****************************************************************************** 
1363:.\Generated_Source\PSoC4/alex_BLE_eventHandler.c **** * Function Name: CyBle_GapConnUpdateCompleteEventHandler
1364:.\Generated_Source\PSoC4/alex_BLE_eventHandler.c **** ***************************************************************************//**
1365:.\Generated_Source\PSoC4/alex_BLE_eventHandler.c **** * 
1366:.\Generated_Source\PSoC4/alex_BLE_eventHandler.c **** *  Handles the CYBLE_EVT_GAP_CONNECTION_UPDATE_COMPLETE event from
1367:.\Generated_Source\PSoC4/alex_BLE_eventHandler.c **** *  the BLE stack.
1368:.\Generated_Source\PSoC4/alex_BLE_eventHandler.c **** * 
1369:.\Generated_Source\PSoC4/alex_BLE_eventHandler.c **** *  \param eventParam: The pointer to the data structure specified by the event.
1370:.\Generated_Source\PSoC4/alex_BLE_eventHandler.c **** * 
1371:.\Generated_Source\PSoC4/alex_BLE_eventHandler.c **** * \return
1372:.\Generated_Source\PSoC4/alex_BLE_eventHandler.c **** *  None
1373:.\Generated_Source\PSoC4/alex_BLE_eventHandler.c **** * 
1374:.\Generated_Source\PSoC4/alex_BLE_eventHandler.c **** ******************************************************************************/
1375:.\Generated_Source\PSoC4/alex_BLE_eventHandler.c **** static void CyBle_GapConnUpdateCompleteEventHandler(const CYBLE_GAP_CONN_PARAM_UPDATED_IN_CONTROLLE
1376:.\Generated_Source\PSoC4/alex_BLE_eventHandler.c **** {
1377:.\Generated_Source\PSoC4/alex_BLE_eventHandler.c ****     #ifdef CYBLE_CPS_SERVER
1378:.\Generated_Source\PSoC4/alex_BLE_eventHandler.c ****         CyBle_CpssConnUpdateCompleteEventHandler(eventParam);
1379:.\Generated_Source\PSoC4/alex_BLE_eventHandler.c ****     #endif /* CYBLE_CPS_SERVER */
1380:.\Generated_Source\PSoC4/alex_BLE_eventHandler.c ****     
1381:.\Generated_Source\PSoC4/alex_BLE_eventHandler.c ****     /* Unreferenced variable warning workaround */
1382:.\Generated_Source\PSoC4/alex_BLE_eventHandler.c ****     if(eventParam != 0u)
1383:.\Generated_Source\PSoC4/alex_BLE_eventHandler.c ****     {
1384:.\Generated_Source\PSoC4/alex_BLE_eventHandler.c ****     }
1385:.\Generated_Source\PSoC4/alex_BLE_eventHandler.c **** }
1386:.\Generated_Source\PSoC4/alex_BLE_eventHandler.c **** 
1387:.\Generated_Source\PSoC4/alex_BLE_eventHandler.c **** 
1388:.\Generated_Source\PSoC4/alex_BLE_eventHandler.c **** /****************************************************************************** 
1389:.\Generated_Source\PSoC4/alex_BLE_eventHandler.c **** * Function Name: CyBle_EventHandler
1390:.\Generated_Source\PSoC4/alex_BLE_eventHandler.c **** ***************************************************************************//**
1391:.\Generated_Source\PSoC4/alex_BLE_eventHandler.c **** * 
1392:.\Generated_Source\PSoC4/alex_BLE_eventHandler.c **** *  Handles the events from the BLE stack
1393:.\Generated_Source\PSoC4/alex_BLE_eventHandler.c **** * 
1394:.\Generated_Source\PSoC4/alex_BLE_eventHandler.c **** *  \param eventCode:    the event code
1395:.\Generated_Source\PSoC4/alex_BLE_eventHandler.c **** *  \param eventParam:  the event parameters
1396:.\Generated_Source\PSoC4/alex_BLE_eventHandler.c **** * 
1397:.\Generated_Source\PSoC4/alex_BLE_eventHandler.c **** * \return
1398:.\Generated_Source\PSoC4/alex_BLE_eventHandler.c **** *  None.
1399:.\Generated_Source\PSoC4/alex_BLE_eventHandler.c **** * 
1400:.\Generated_Source\PSoC4/alex_BLE_eventHandler.c **** ******************************************************************************/
1401:.\Generated_Source\PSoC4/alex_BLE_eventHandler.c **** void CyBle_EventHandler(uint8 eventCode, void *eventParam)
1402:.\Generated_Source\PSoC4/alex_BLE_eventHandler.c **** {
 170              		.loc 1 1402 0
 171              		.cfi_startproc
 172              	.LVL18:
 173 0000 F0B5     		push	{r4, r5, r6, r7, lr}
 174              		.cfi_def_cfa_offset 20
 175              		.cfi_offset 4, -20
 176              		.cfi_offset 5, -16
 177              		.cfi_offset 6, -12
 178              		.cfi_offset 7, -8
 179              		.cfi_offset 14, -4
 180 0002 83B0     		sub	sp, sp, #12
ARM GAS  C:\Users\a\AppData\Local\Temp\ccXpRoQY.s 			page 29


 181              		.cfi_def_cfa_offset 32
 182 0004 051C     		mov	r5, r0
 183 0006 0C1C     		mov	r4, r1
1403:.\Generated_Source\PSoC4/alex_BLE_eventHandler.c ****     cyBle_eventHandlerFlag |= CYBLE_CALLBACK;
 184              		.loc 1 1403 0
 185 0008 5F4A     		ldr	r2, .L35
 186 000a 1178     		ldrb	r1, [r2]
 187              	.LVL19:
 188 000c 0123     		mov	r3, #1
 189 000e 0B43     		orr	r3, r1
 190 0010 1370     		strb	r3, [r2]
1404:.\Generated_Source\PSoC4/alex_BLE_eventHandler.c **** 
1405:.\Generated_Source\PSoC4/alex_BLE_eventHandler.c ****     /* Common Profile event handling */
1406:.\Generated_Source\PSoC4/alex_BLE_eventHandler.c ****     switch(eventCode)
 191              		.loc 1 1406 0
 192 0012 4C28     		cmp	r0, #76
 193 0014 00D9     		bls	.LCB169
 194 0016 A5E0     		b	.L16	@long jump
 195              	.LCB169:
 196 0018 8300     		lsl	r3, r0, #2
 197 001a 5C4A     		ldr	r2, .L35+4
 198 001c D358     		ldr	r3, [r2, r3]
 199 001e 9F46     		mov	pc, r3
 200              		.section	.rodata
 201              		.align	2
 202              	.L18:
 203 0000 64010000 		.word	.L16
 204 0004 20000000 		.word	.L17
 205 0008 64010000 		.word	.L16
 206 000c 64010000 		.word	.L16
 207 0010 64010000 		.word	.L16
 208 0014 9C000000 		.word	.L19
 209 0018 64010000 		.word	.L16
 210 001c 64010000 		.word	.L16
 211 0020 64010000 		.word	.L16
 212 0024 64010000 		.word	.L16
 213 0028 64010000 		.word	.L16
 214 002c 64010000 		.word	.L16
 215 0030 64010000 		.word	.L16
 216 0034 64010000 		.word	.L16
 217 0038 64010000 		.word	.L16
 218 003c 64010000 		.word	.L16
 219 0040 64010000 		.word	.L16
 220 0044 64010000 		.word	.L16
 221 0048 64010000 		.word	.L16
 222 004c 64010000 		.word	.L16
 223 0050 64010000 		.word	.L16
 224 0054 64010000 		.word	.L16
 225 0058 64010000 		.word	.L16
 226 005c 64010000 		.word	.L16
 227 0060 64010000 		.word	.L16
 228 0064 64010000 		.word	.L16
 229 0068 64010000 		.word	.L16
 230 006c 64010000 		.word	.L16
 231 0070 64010000 		.word	.L16
 232 0074 64010000 		.word	.L16
 233 0078 64010000 		.word	.L16
ARM GAS  C:\Users\a\AppData\Local\Temp\ccXpRoQY.s 			page 30


 234 007c 64010000 		.word	.L16
 235 0080 64010000 		.word	.L16
 236 0084 A4000000 		.word	.L20
 237 0088 64010000 		.word	.L16
 238 008c 64010000 		.word	.L16
 239 0090 64010000 		.word	.L16
 240 0094 64010000 		.word	.L16
 241 0098 D6000000 		.word	.L21
 242 009c C6000000 		.word	.L22
 243 00a0 CE000000 		.word	.L23
 244 00a4 64010000 		.word	.L16
 245 00a8 64010000 		.word	.L16
 246 00ac 64010000 		.word	.L16
 247 00b0 64010000 		.word	.L16
 248 00b4 64010000 		.word	.L16
 249 00b8 64010000 		.word	.L16
 250 00bc 64010000 		.word	.L16
 251 00c0 64010000 		.word	.L16
 252 00c4 64010000 		.word	.L16
 253 00c8 64010000 		.word	.L16
 254 00cc 64010000 		.word	.L16
 255 00d0 64010000 		.word	.L16
 256 00d4 64010000 		.word	.L16
 257 00d8 64010000 		.word	.L16
 258 00dc 64010000 		.word	.L16
 259 00e0 64010000 		.word	.L16
 260 00e4 64010000 		.word	.L16
 261 00e8 64010000 		.word	.L16
 262 00ec 64010000 		.word	.L16
 263 00f0 64010000 		.word	.L16
 264 00f4 64010000 		.word	.L16
 265 00f8 64010000 		.word	.L16
 266 00fc 64010000 		.word	.L16
 267 0100 64010000 		.word	.L16
 268 0104 26010000 		.word	.L24
 269 0108 48010000 		.word	.L25
 270 010c 4E010000 		.word	.L26
 271 0110 64010000 		.word	.L16
 272 0114 64010000 		.word	.L16
 273 0118 64010000 		.word	.L16
 274 011c 64010000 		.word	.L16
 275 0120 64010000 		.word	.L16
 276 0124 64010000 		.word	.L16
 277 0128 64010000 		.word	.L16
 278 012c 64010000 		.word	.L16
 279 0130 5E010000 		.word	.L27
 280              		.section	.text.CyBle_EventHandler
 281              	.L17:
 282              	.LBB3:
1407:.\Generated_Source\PSoC4/alex_BLE_eventHandler.c ****     {
1408:.\Generated_Source\PSoC4/alex_BLE_eventHandler.c ****         /**********************************************************
1409:.\Generated_Source\PSoC4/alex_BLE_eventHandler.c ****         * General events
1410:.\Generated_Source\PSoC4/alex_BLE_eventHandler.c ****         ************************************************************/
1411:.\Generated_Source\PSoC4/alex_BLE_eventHandler.c ****         case CYBLE_EVT_STACK_ON:
1412:.\Generated_Source\PSoC4/alex_BLE_eventHandler.c ****         #if(CYBLE_MODE_PROFILE)
1413:.\Generated_Source\PSoC4/alex_BLE_eventHandler.c ****         {
1414:.\Generated_Source\PSoC4/alex_BLE_eventHandler.c ****             CYBLE_BLESS_PWR_IN_DB_T bleSsPowerLevel;
ARM GAS  C:\Users\a\AppData\Local\Temp\ccXpRoQY.s 			page 31


1415:.\Generated_Source\PSoC4/alex_BLE_eventHandler.c ****             
1416:.\Generated_Source\PSoC4/alex_BLE_eventHandler.c ****             /* Set Tx Power Level for advertising and connection channels */
1417:.\Generated_Source\PSoC4/alex_BLE_eventHandler.c ****             bleSsPowerLevel.blePwrLevelInDbm = CYBLE_TX_POWER_LEVEL_ADV;
 283              		.loc 1 1417 0
 284 0020 01AE     		add	r6, sp, #4
 285 0022 0827     		mov	r7, #8
 286 0024 3770     		strb	r7, [r6]
1418:.\Generated_Source\PSoC4/alex_BLE_eventHandler.c ****             bleSsPowerLevel.bleSsChId = CYBLE_LL_ADV_CH_TYPE;
 287              		.loc 1 1418 0
 288 0026 0023     		mov	r3, #0
 289 0028 7370     		strb	r3, [r6, #1]
1419:.\Generated_Source\PSoC4/alex_BLE_eventHandler.c ****             (void) CyBle_SetTxPowerLevel (&bleSsPowerLevel);
 290              		.loc 1 1419 0
 291 002a 301C     		mov	r0, r6
 292              	.LVL20:
 293 002c FFF7FEFF 		bl	CyBle_SetTxPowerLevel
 294              	.LVL21:
1420:.\Generated_Source\PSoC4/alex_BLE_eventHandler.c ****             bleSsPowerLevel.blePwrLevelInDbm = CYBLE_TX_POWER_LEVEL_CONN;
 295              		.loc 1 1420 0
 296 0030 3770     		strb	r7, [r6]
1421:.\Generated_Source\PSoC4/alex_BLE_eventHandler.c ****             bleSsPowerLevel.bleSsChId = CYBLE_LL_CONN_CH_TYPE;
 297              		.loc 1 1421 0
 298 0032 0123     		mov	r3, #1
 299 0034 7370     		strb	r3, [r6, #1]
1422:.\Generated_Source\PSoC4/alex_BLE_eventHandler.c ****             (void) CyBle_SetTxPowerLevel (&bleSsPowerLevel);
 300              		.loc 1 1422 0
 301 0036 301C     		mov	r0, r6
 302 0038 FFF7FEFF 		bl	CyBle_SetTxPowerLevel
 303              	.LVL22:
 304              	.LBE3:
1423:.\Generated_Source\PSoC4/alex_BLE_eventHandler.c ****         }
1424:.\Generated_Source\PSoC4/alex_BLE_eventHandler.c ****         #endif /* CYBLE_MODE_PROFILE */
1425:.\Generated_Source\PSoC4/alex_BLE_eventHandler.c ****         #if (CYBLE_GATT_ROLE_SERVER || CYBLE_GATT_ROLE_CLIENT)
1426:.\Generated_Source\PSoC4/alex_BLE_eventHandler.c ****             /* Set device Address  */
1427:.\Generated_Source\PSoC4/alex_BLE_eventHandler.c ****             if(CyBle_IsDeviceAddressValid(cyBle_sflashDeviceAddress) != 0u)
 305              		.loc 1 1427 0
 306 003c 544B     		ldr	r3, .L35+8
 307 003e 1E68     		ldr	r6, [r3]
 308 0040 301C     		mov	r0, r6
 309 0042 FFF7FEFF 		bl	CyBle_IsDeviceAddressValid
 310              	.LVL23:
 311 0046 0028     		cmp	r0, #0
 312 0048 0CD0     		beq	.L28
1428:.\Generated_Source\PSoC4/alex_BLE_eventHandler.c ****             {
1429:.\Generated_Source\PSoC4/alex_BLE_eventHandler.c ****                 (void) CyBle_SetDeviceAddress(cyBle_sflashDeviceAddress);
 313              		.loc 1 1429 0
 314 004a 301C     		mov	r0, r6
 315 004c FFF7FEFF 		bl	CyBle_SetDeviceAddress
 316              	.LVL24:
1430:.\Generated_Source\PSoC4/alex_BLE_eventHandler.c ****                 #if(CYBLE_GAP_ROLE_PERIPHERAL || CYBLE_GAP_ROLE_BROADCASTER)
1431:.\Generated_Source\PSoC4/alex_BLE_eventHandler.c ****                     CyBle_ChangeAdDeviceAddress(cyBle_sflashDeviceAddress, 0u);
 317              		.loc 1 1431 0
 318 0050 4F4E     		ldr	r6, .L35+8
 319 0052 3068     		ldr	r0, [r6]
 320 0054 0021     		mov	r1, #0
 321 0056 FFF7FEFF 		bl	CyBle_ChangeAdDeviceAddress
 322              	.LVL25:
ARM GAS  C:\Users\a\AppData\Local\Temp\ccXpRoQY.s 			page 32


1432:.\Generated_Source\PSoC4/alex_BLE_eventHandler.c ****                     CyBle_ChangeAdDeviceAddress(cyBle_sflashDeviceAddress, 1u);
 323              		.loc 1 1432 0
 324 005a 3068     		ldr	r0, [r6]
 325 005c 0121     		mov	r1, #1
 326 005e FFF7FEFF 		bl	CyBle_ChangeAdDeviceAddress
 327              	.LVL26:
 328 0062 14E0     		b	.L29
 329              	.L28:
1433:.\Generated_Source\PSoC4/alex_BLE_eventHandler.c ****                 #endif /* CYBLE_GAP_ROLE_PERIPHERAL || CYBLE_GAP_ROLE_BROADCASTER */    
1434:.\Generated_Source\PSoC4/alex_BLE_eventHandler.c ****             }
1435:.\Generated_Source\PSoC4/alex_BLE_eventHandler.c ****             else
1436:.\Generated_Source\PSoC4/alex_BLE_eventHandler.c ****             {
1437:.\Generated_Source\PSoC4/alex_BLE_eventHandler.c ****             #if (SILICON_GENERATED_DEVICE_ADDRESS != 0u)
1438:.\Generated_Source\PSoC4/alex_BLE_eventHandler.c ****                 cyBle_deviceAddress.bdAddr[0] = CYBLE_SFLASH_DIE_X_REG;
 330              		.loc 1 1438 0
 331 0064 4B4B     		ldr	r3, .L35+12
 332 0066 1B78     		ldrb	r3, [r3]
 333 0068 4B4E     		ldr	r6, .L35+16
 334 006a 3370     		strb	r3, [r6]
1439:.\Generated_Source\PSoC4/alex_BLE_eventHandler.c ****                 cyBle_deviceAddress.bdAddr[1] = CYBLE_SFLASH_DIE_Y_REG;
 335              		.loc 1 1439 0
 336 006c 4B4B     		ldr	r3, .L35+20
 337 006e 1B78     		ldrb	r3, [r3]
 338 0070 7370     		strb	r3, [r6, #1]
1440:.\Generated_Source\PSoC4/alex_BLE_eventHandler.c ****                 cyBle_deviceAddress.bdAddr[2] = CYBLE_SFLASH_DIE_WAFER_REG;
 339              		.loc 1 1440 0
 340 0072 4B4B     		ldr	r3, .L35+24
 341 0074 1B78     		ldrb	r3, [r3]
 342 0076 B370     		strb	r3, [r6, #2]
1441:.\Generated_Source\PSoC4/alex_BLE_eventHandler.c ****             #endif /* SILICON_GENERATED_DEVICE_ADDRESS != 0u */
1442:.\Generated_Source\PSoC4/alex_BLE_eventHandler.c ****                 (void) CyBle_SetDeviceAddress(&cyBle_deviceAddress);
 343              		.loc 1 1442 0
 344 0078 301C     		mov	r0, r6
 345 007a FFF7FEFF 		bl	CyBle_SetDeviceAddress
 346              	.LVL27:
1443:.\Generated_Source\PSoC4/alex_BLE_eventHandler.c ****                 #if(CYBLE_GAP_ROLE_PERIPHERAL || CYBLE_GAP_ROLE_BROADCASTER)
1444:.\Generated_Source\PSoC4/alex_BLE_eventHandler.c ****                     CyBle_ChangeAdDeviceAddress(&cyBle_deviceAddress, 0u);
 347              		.loc 1 1444 0
 348 007e 301C     		mov	r0, r6
 349 0080 0021     		mov	r1, #0
 350 0082 FFF7FEFF 		bl	CyBle_ChangeAdDeviceAddress
 351              	.LVL28:
1445:.\Generated_Source\PSoC4/alex_BLE_eventHandler.c ****                     CyBle_ChangeAdDeviceAddress(&cyBle_deviceAddress, 1u);
 352              		.loc 1 1445 0
 353 0086 301C     		mov	r0, r6
 354 0088 0121     		mov	r1, #1
 355 008a FFF7FEFF 		bl	CyBle_ChangeAdDeviceAddress
 356              	.LVL29:
 357              	.L29:
1446:.\Generated_Source\PSoC4/alex_BLE_eventHandler.c ****                 #endif /* CYBLE_GAP_ROLE_PERIPHERAL || CYBLE_GAP_ROLE_BROADCASTER */    
1447:.\Generated_Source\PSoC4/alex_BLE_eventHandler.c ****             }
1448:.\Generated_Source\PSoC4/alex_BLE_eventHandler.c ****             /* Set device IO Capability  */
1449:.\Generated_Source\PSoC4/alex_BLE_eventHandler.c ****             (void) CyBle_GapSetIoCap(CYBLE_IO_CAPABILITY);    
 358              		.loc 1 1449 0
 359 008e 0320     		mov	r0, #3
 360 0090 FFF7FEFF 		bl	CyBle_GapSetIoCap
 361              	.LVL30:
ARM GAS  C:\Users\a\AppData\Local\Temp\ccXpRoQY.s 			page 33


1450:.\Generated_Source\PSoC4/alex_BLE_eventHandler.c ****         #endif /* CYBLE_GATT_ROLE_SERVER || CYBLE_GATT_ROLE_CLIENT */
1451:.\Generated_Source\PSoC4/alex_BLE_eventHandler.c ****             CyBle_SetState(CYBLE_STATE_DISCONNECTED);
 362              		.loc 1 1451 0
 363 0094 0422     		mov	r2, #4
 364 0096 434B     		ldr	r3, .L35+28
 365 0098 1A70     		strb	r2, [r3]
1452:.\Generated_Source\PSoC4/alex_BLE_eventHandler.c ****             break;
 366              		.loc 1 1452 0
 367 009a 63E0     		b	.L16
 368              	.LVL31:
 369              	.L19:
1453:.\Generated_Source\PSoC4/alex_BLE_eventHandler.c ****         case CYBLE_EVT_TIMEOUT:
1454:.\Generated_Source\PSoC4/alex_BLE_eventHandler.c ****             CyBle_TimeOutEventHandler((CYBLE_TO_REASON_CODE_T *)eventParam);
1455:.\Generated_Source\PSoC4/alex_BLE_eventHandler.c ****             break;
1456:.\Generated_Source\PSoC4/alex_BLE_eventHandler.c ****     	case CYBLE_EVT_STACK_BUSY_STATUS:
1457:.\Generated_Source\PSoC4/alex_BLE_eventHandler.c ****             cyBle_busyStatus = *(uint8 *)eventParam;
 370              		.loc 1 1457 0
 371 009c 2278     		ldrb	r2, [r4]
 372 009e 424B     		ldr	r3, .L35+32
 373 00a0 1A70     		strb	r2, [r3]
1458:.\Generated_Source\PSoC4/alex_BLE_eventHandler.c ****             break;
 374              		.loc 1 1458 0
 375 00a2 5FE0     		b	.L16
 376              	.L20:
1459:.\Generated_Source\PSoC4/alex_BLE_eventHandler.c **** 
1460:.\Generated_Source\PSoC4/alex_BLE_eventHandler.c ****         /**********************************************************
1461:.\Generated_Source\PSoC4/alex_BLE_eventHandler.c ****         * GAP events
1462:.\Generated_Source\PSoC4/alex_BLE_eventHandler.c ****         ************************************************************/
1463:.\Generated_Source\PSoC4/alex_BLE_eventHandler.c ****         case CYBLE_EVT_GAP_AUTH_REQ:
1464:.\Generated_Source\PSoC4/alex_BLE_eventHandler.c ****         #if(CYBLE_MODE_PROFILE)
1465:.\Generated_Source\PSoC4/alex_BLE_eventHandler.c ****             if(0u == (cyBle_eventHandlerFlag & CYBLE_DISABLE_AUTOMATIC_AUTH))
 377              		.loc 1 1465 0
 378 00a4 384B     		ldr	r3, .L35
 379 00a6 1B78     		ldrb	r3, [r3]
 380 00a8 9B06     		lsl	r3, r3, #26
 381 00aa 5BD4     		bmi	.L16
1466:.\Generated_Source\PSoC4/alex_BLE_eventHandler.c ****             {
1467:.\Generated_Source\PSoC4/alex_BLE_eventHandler.c ****                 /* If the responding device does not support pairing then the responding 
1468:.\Generated_Source\PSoC4/alex_BLE_eventHandler.c ****                    device shall respond using the Pairing Failed message with the error 
1469:.\Generated_Source\PSoC4/alex_BLE_eventHandler.c ****                    code "Pairing Not Supported" otherwise it responds with a Pairing 
1470:.\Generated_Source\PSoC4/alex_BLE_eventHandler.c ****                    Response message.
1471:.\Generated_Source\PSoC4/alex_BLE_eventHandler.c ****                 */
1472:.\Generated_Source\PSoC4/alex_BLE_eventHandler.c ****                 if(cyBle_authInfo.security == (CYBLE_GAP_SEC_MODE_1 | CYBLE_GAP_SEC_LEVEL_1))
 382              		.loc 1 1472 0
 383 00ac 3F4B     		ldr	r3, .L35+36
 384 00ae 1B78     		ldrb	r3, [r3]
 385 00b0 102B     		cmp	r3, #16
 386 00b2 02D1     		bne	.L30
1473:.\Generated_Source\PSoC4/alex_BLE_eventHandler.c ****                 {
1474:.\Generated_Source\PSoC4/alex_BLE_eventHandler.c ****                     cyBle_authInfo.authErr = CYBLE_GAP_AUTH_ERROR_PAIRING_NOT_SUPPORTED;
 387              		.loc 1 1474 0
 388 00b4 0522     		mov	r2, #5
 389 00b6 3D4B     		ldr	r3, .L35+36
 390 00b8 DA70     		strb	r2, [r3, #3]
 391              	.L30:
1475:.\Generated_Source\PSoC4/alex_BLE_eventHandler.c ****                 }    
1476:.\Generated_Source\PSoC4/alex_BLE_eventHandler.c ****             #if(CYBLE_GAP_ROLE_PERIPHERAL)
ARM GAS  C:\Users\a\AppData\Local\Temp\ccXpRoQY.s 			page 34


1477:.\Generated_Source\PSoC4/alex_BLE_eventHandler.c ****                 (void)CyBle_GappAuthReqReply(cyBle_connHandle.bdHandle, &cyBle_authInfo);
 392              		.loc 1 1477 0
 393 00ba 3D4B     		ldr	r3, .L35+40
 394 00bc 1878     		ldrb	r0, [r3]
 395              	.LVL32:
 396 00be 3B49     		ldr	r1, .L35+36
 397 00c0 FFF7FEFF 		bl	CyBle_GappAuthReqReply
 398              	.LVL33:
 399 00c4 4EE0     		b	.L16
 400              	.LVL34:
 401              	.L22:
1478:.\Generated_Source\PSoC4/alex_BLE_eventHandler.c ****             #endif /* CYBLE_GAP_ROLE_PERIPHERAL */
1479:.\Generated_Source\PSoC4/alex_BLE_eventHandler.c ****             #if (CYBLE_GAP_ROLE_CENTRAL)
1480:.\Generated_Source\PSoC4/alex_BLE_eventHandler.c ****                 (void)CyBle_GapAuthReq(cyBle_connHandle.bdHandle, &cyBle_authInfo);
1481:.\Generated_Source\PSoC4/alex_BLE_eventHandler.c ****             #endif /* CYBLE_GAP_ROLE_CENTRAL */
1482:.\Generated_Source\PSoC4/alex_BLE_eventHandler.c ****             }
1483:.\Generated_Source\PSoC4/alex_BLE_eventHandler.c ****         #endif /* CYBLE_MODE_PROFILE */
1484:.\Generated_Source\PSoC4/alex_BLE_eventHandler.c ****             break;
1485:.\Generated_Source\PSoC4/alex_BLE_eventHandler.c ****         
1486:.\Generated_Source\PSoC4/alex_BLE_eventHandler.c ****         case CYBLE_EVT_GAP_AUTH_COMPLETE:
1487:.\Generated_Source\PSoC4/alex_BLE_eventHandler.c ****         #if((CYBLE_GAP_ROLE_PERIPHERAL || CYBLE_GAP_ROLE_CENTRAL) && (CYBLE_BONDING_REQUIREMENT == 
1488:.\Generated_Source\PSoC4/alex_BLE_eventHandler.c ****             cyBle_peerBonding = ((CYBLE_GAP_AUTH_INFO_T *)eventParam)->bonding;
1489:.\Generated_Source\PSoC4/alex_BLE_eventHandler.c ****         #endif  /* CYBLE_BONDING_REQUIREMENT == CYBLE_BONDING_YES */
1490:.\Generated_Source\PSoC4/alex_BLE_eventHandler.c ****             break;
1491:.\Generated_Source\PSoC4/alex_BLE_eventHandler.c ****         
1492:.\Generated_Source\PSoC4/alex_BLE_eventHandler.c ****         case CYBLE_EVT_GAP_CONNECTION_UPDATE_COMPLETE:
1493:.\Generated_Source\PSoC4/alex_BLE_eventHandler.c ****             CyBle_GapConnUpdateCompleteEventHandler((const CYBLE_GAP_CONN_PARAM_UPDATED_IN_CONTROLL
1494:.\Generated_Source\PSoC4/alex_BLE_eventHandler.c ****             break;
1495:.\Generated_Source\PSoC4/alex_BLE_eventHandler.c ****             
1496:.\Generated_Source\PSoC4/alex_BLE_eventHandler.c ****         case CYBLE_EVT_GAP_DEVICE_CONNECTED:
1497:.\Generated_Source\PSoC4/alex_BLE_eventHandler.c ****             CyBle_GapConnUpdateCompleteEventHandler((const CYBLE_GAP_CONN_PARAM_UPDATED_IN_CONTROLL
1498:.\Generated_Source\PSoC4/alex_BLE_eventHandler.c ****             #if(CYBLE_GAP_ROLE_CENTRAL)
1499:.\Generated_Source\PSoC4/alex_BLE_eventHandler.c ****                 if(cyBle_connectingTimeout != 0u)
1500:.\Generated_Source\PSoC4/alex_BLE_eventHandler.c ****                 {
1501:.\Generated_Source\PSoC4/alex_BLE_eventHandler.c ****                    (void)CyBle_StopTimer();
1502:.\Generated_Source\PSoC4/alex_BLE_eventHandler.c ****                 }
1503:.\Generated_Source\PSoC4/alex_BLE_eventHandler.c ****             #endif /* CYBLE_GAP_ROLE_CENTRAL */
1504:.\Generated_Source\PSoC4/alex_BLE_eventHandler.c ****             CyBle_SetState(CYBLE_STATE_CONNECTED);
 402              		.loc 1 1504 0
 403 00c6 0222     		mov	r2, #2
 404 00c8 364B     		ldr	r3, .L35+28
 405 00ca 1A70     		strb	r2, [r3]
1505:.\Generated_Source\PSoC4/alex_BLE_eventHandler.c ****             break;
 406              		.loc 1 1505 0
 407 00cc 4AE0     		b	.L16
 408              	.L23:
1506:.\Generated_Source\PSoC4/alex_BLE_eventHandler.c **** 
1507:.\Generated_Source\PSoC4/alex_BLE_eventHandler.c ****         case CYBLE_EVT_GAP_DEVICE_DISCONNECTED:
1508:.\Generated_Source\PSoC4/alex_BLE_eventHandler.c ****             CyBle_SetState(CYBLE_STATE_DISCONNECTED);
 409              		.loc 1 1508 0
 410 00ce 0422     		mov	r2, #4
 411 00d0 344B     		ldr	r3, .L35+28
 412 00d2 1A70     		strb	r2, [r3]
1509:.\Generated_Source\PSoC4/alex_BLE_eventHandler.c ****             break;
 413              		.loc 1 1509 0
 414 00d4 46E0     		b	.L16
 415              	.L21:
ARM GAS  C:\Users\a\AppData\Local\Temp\ccXpRoQY.s 			page 35


1510:.\Generated_Source\PSoC4/alex_BLE_eventHandler.c ****         #if(CYBLE_GAP_ROLE_PERIPHERAL || CYBLE_GAP_ROLE_BROADCASTER)
1511:.\Generated_Source\PSoC4/alex_BLE_eventHandler.c ****             
1512:.\Generated_Source\PSoC4/alex_BLE_eventHandler.c ****         case CYBLE_EVT_GAPP_ADVERTISEMENT_START_STOP:
1513:.\Generated_Source\PSoC4/alex_BLE_eventHandler.c ****             #ifdef CYBLE_CPS_SERVER
1514:.\Generated_Source\PSoC4/alex_BLE_eventHandler.c ****                 #if(CYBLE_GAP_ROLE_BROADCASTER)
1515:.\Generated_Source\PSoC4/alex_BLE_eventHandler.c ****                     CyBle_CpssAdvertisementStartStopEventHandler();
1516:.\Generated_Source\PSoC4/alex_BLE_eventHandler.c ****                 #endif /* CYBLE_GAP_ROLE_BROADCASTER */
1517:.\Generated_Source\PSoC4/alex_BLE_eventHandler.c ****             #endif /* CYBLE_CPS_SERVER */
1518:.\Generated_Source\PSoC4/alex_BLE_eventHandler.c ****             
1519:.\Generated_Source\PSoC4/alex_BLE_eventHandler.c ****             if((CYBLE_STATE_CONNECTED != CyBle_GetState()) && ((cyBle_eventHandlerFlag & CYBLE_CALL
 416              		.loc 1 1519 0
 417 00d6 334B     		ldr	r3, .L35+28
 418 00d8 1B78     		ldrb	r3, [r3]
 419 00da 022B     		cmp	r3, #2
 420 00dc 42D0     		beq	.L16
 421              		.loc 1 1519 0 is_stmt 0 discriminator 1
 422 00de 2A4A     		ldr	r2, .L35
 423 00e0 1278     		ldrb	r2, [r2]
 424 00e2 D207     		lsl	r2, r2, #31
 425 00e4 3ED5     		bpl	.L16
1520:.\Generated_Source\PSoC4/alex_BLE_eventHandler.c ****             {
1521:.\Generated_Source\PSoC4/alex_BLE_eventHandler.c ****                 /* After CyBle_GappStartAdvertisement first event indicates that advertising has be
1522:.\Generated_Source\PSoC4/alex_BLE_eventHandler.c ****                 if(0u != (cyBle_eventHandlerFlag & CYBLE_START_FLAG))
 426              		.loc 1 1522 0 is_stmt 1
 427 00e6 284A     		ldr	r2, .L35
 428 00e8 1278     		ldrb	r2, [r2]
 429 00ea 5207     		lsl	r2, r2, #29
 430 00ec 08D5     		bpl	.L31
1523:.\Generated_Source\PSoC4/alex_BLE_eventHandler.c ****                 {
1524:.\Generated_Source\PSoC4/alex_BLE_eventHandler.c ****                     CyBle_SetState(CYBLE_STATE_ADVERTISING);
 431              		.loc 1 1524 0
 432 00ee 0322     		mov	r2, #3
 433 00f0 2C4B     		ldr	r3, .L35+28
 434 00f2 1A70     		strb	r2, [r3]
1525:.\Generated_Source\PSoC4/alex_BLE_eventHandler.c ****                     cyBle_eventHandlerFlag &= (uint8)~CYBLE_START_FLAG;
 435              		.loc 1 1525 0
 436 00f4 244A     		ldr	r2, .L35
 437 00f6 1378     		ldrb	r3, [r2]
 438 00f8 0421     		mov	r1, #4
 439 00fa 8B43     		bic	r3, r1
 440 00fc 1370     		strb	r3, [r2]
 441 00fe 31E0     		b	.L16
 442              	.L31:
1526:.\Generated_Source\PSoC4/alex_BLE_eventHandler.c ****                 }
1527:.\Generated_Source\PSoC4/alex_BLE_eventHandler.c ****                 /* When application initiated stop advertisement */
1528:.\Generated_Source\PSoC4/alex_BLE_eventHandler.c ****                 else if(0u != (cyBle_eventHandlerFlag & CYBLE_STOP_FLAG))
 443              		.loc 1 1528 0
 444 0100 214A     		ldr	r2, .L35
 445 0102 1278     		ldrb	r2, [r2]
 446 0104 1207     		lsl	r2, r2, #28
 447 0106 08D5     		bpl	.L32
1529:.\Generated_Source\PSoC4/alex_BLE_eventHandler.c ****                 {
1530:.\Generated_Source\PSoC4/alex_BLE_eventHandler.c ****                     CyBle_SetState(CYBLE_STATE_DISCONNECTED);  
 448              		.loc 1 1530 0
 449 0108 0422     		mov	r2, #4
 450 010a 264B     		ldr	r3, .L35+28
 451 010c 1A70     		strb	r2, [r3]
ARM GAS  C:\Users\a\AppData\Local\Temp\ccXpRoQY.s 			page 36


1531:.\Generated_Source\PSoC4/alex_BLE_eventHandler.c ****                     cyBle_eventHandlerFlag &= (uint8)~CYBLE_STOP_FLAG;
 452              		.loc 1 1531 0
 453 010e 1E4A     		ldr	r2, .L35
 454 0110 1378     		ldrb	r3, [r2]
 455 0112 0821     		mov	r1, #8
 456 0114 8B43     		bic	r3, r1
 457 0116 1370     		strb	r3, [r2]
 458 0118 24E0     		b	.L16
 459              	.L32:
1532:.\Generated_Source\PSoC4/alex_BLE_eventHandler.c ****                 }
1533:.\Generated_Source\PSoC4/alex_BLE_eventHandler.c ****                 else /* Following event indicates that advertising has been stopped */
1534:.\Generated_Source\PSoC4/alex_BLE_eventHandler.c ****                 {
1535:.\Generated_Source\PSoC4/alex_BLE_eventHandler.c ****                     if(CYBLE_STATE_ADVERTISING == CyBle_GetState())
 460              		.loc 1 1535 0
 461 011a 032B     		cmp	r3, #3
 462 011c 22D1     		bne	.L16
1536:.\Generated_Source\PSoC4/alex_BLE_eventHandler.c ****                     {
1537:.\Generated_Source\PSoC4/alex_BLE_eventHandler.c ****                         CyBle_SetState(CYBLE_STATE_DISCONNECTED);
 463              		.loc 1 1537 0
 464 011e 0422     		mov	r2, #4
 465 0120 204B     		ldr	r3, .L35+28
 466 0122 1A70     		strb	r2, [r3]
 467 0124 1EE0     		b	.L16
 468              	.L24:
1538:.\Generated_Source\PSoC4/alex_BLE_eventHandler.c ****                     #if ((CYBLE_SLOW_ADV_ENABLED != 0u) && (CYBLE_FAST_ADV_TIMEOUT != 0u))
1539:.\Generated_Source\PSoC4/alex_BLE_eventHandler.c ****                         if(cyBle_advertisingIntervalType == CYBLE_ADVERTISING_FAST)
1540:.\Generated_Source\PSoC4/alex_BLE_eventHandler.c ****                         {
1541:.\Generated_Source\PSoC4/alex_BLE_eventHandler.c ****                             /* When fast advertising time out occur: Start slow advertising */
1542:.\Generated_Source\PSoC4/alex_BLE_eventHandler.c ****                             if(CYBLE_ERROR_OK == CyBle_GappStartAdvertisement(CYBLE_ADVERTISING_SLO
1543:.\Generated_Source\PSoC4/alex_BLE_eventHandler.c ****                             {
1544:.\Generated_Source\PSoC4/alex_BLE_eventHandler.c ****                                 CyBle_SetState(CYBLE_STATE_ADVERTISING);
1545:.\Generated_Source\PSoC4/alex_BLE_eventHandler.c ****                             }
1546:.\Generated_Source\PSoC4/alex_BLE_eventHandler.c ****                         }
1547:.\Generated_Source\PSoC4/alex_BLE_eventHandler.c ****                     #endif /* CYBLE_SLOW_ADV_ENABLED */
1548:.\Generated_Source\PSoC4/alex_BLE_eventHandler.c ****                     }
1549:.\Generated_Source\PSoC4/alex_BLE_eventHandler.c ****                 }
1550:.\Generated_Source\PSoC4/alex_BLE_eventHandler.c ****             }
1551:.\Generated_Source\PSoC4/alex_BLE_eventHandler.c ****             break;
1552:.\Generated_Source\PSoC4/alex_BLE_eventHandler.c ****         #endif /* CYBLE_GAP_ROLE_PERIPHERAL || CYBLE_GAP_ROLE_BROADCASTER */
1553:.\Generated_Source\PSoC4/alex_BLE_eventHandler.c ****         
1554:.\Generated_Source\PSoC4/alex_BLE_eventHandler.c ****         #if(CYBLE_GAP_ROLE_CENTRAL || CYBLE_GAP_ROLE_OBSERVER)    
1555:.\Generated_Source\PSoC4/alex_BLE_eventHandler.c ****         case CYBLE_EVT_GAPC_SCAN_START_STOP:
1556:.\Generated_Source\PSoC4/alex_BLE_eventHandler.c ****             #ifdef CYBLE_CPS_CLIENT
1557:.\Generated_Source\PSoC4/alex_BLE_eventHandler.c ****                 CyBle_CpscScanStartStopEventHandler();
1558:.\Generated_Source\PSoC4/alex_BLE_eventHandler.c ****             #endif /* CYBLE_CPS_CLIENT */
1559:.\Generated_Source\PSoC4/alex_BLE_eventHandler.c ****             
1560:.\Generated_Source\PSoC4/alex_BLE_eventHandler.c ****             if((CYBLE_STATE_CONNECTED != CyBle_GetState()) && ((cyBle_eventHandlerFlag & CYBLE_CALL
1561:.\Generated_Source\PSoC4/alex_BLE_eventHandler.c ****             {
1562:.\Generated_Source\PSoC4/alex_BLE_eventHandler.c ****                 /* After CyBle_GapcStartScan first event indicates that scanning has been started *
1563:.\Generated_Source\PSoC4/alex_BLE_eventHandler.c ****                 if(0u != (cyBle_eventHandlerFlag & CYBLE_START_FLAG))
1564:.\Generated_Source\PSoC4/alex_BLE_eventHandler.c ****                 {
1565:.\Generated_Source\PSoC4/alex_BLE_eventHandler.c ****                     CyBle_SetState(CYBLE_STATE_SCANNING);
1566:.\Generated_Source\PSoC4/alex_BLE_eventHandler.c ****                     cyBle_eventHandlerFlag &= (uint8)~CYBLE_START_FLAG;
1567:.\Generated_Source\PSoC4/alex_BLE_eventHandler.c ****                 }
1568:.\Generated_Source\PSoC4/alex_BLE_eventHandler.c ****                 /* When application initiated stop scanning */
1569:.\Generated_Source\PSoC4/alex_BLE_eventHandler.c ****                 else if(0u != (cyBle_eventHandlerFlag & CYBLE_STOP_FLAG))
1570:.\Generated_Source\PSoC4/alex_BLE_eventHandler.c ****                 {
ARM GAS  C:\Users\a\AppData\Local\Temp\ccXpRoQY.s 			page 37


1571:.\Generated_Source\PSoC4/alex_BLE_eventHandler.c ****                     CyBle_SetState(CYBLE_STATE_DISCONNECTED);  
1572:.\Generated_Source\PSoC4/alex_BLE_eventHandler.c ****                     cyBle_eventHandlerFlag &= (uint8)~CYBLE_STOP_FLAG;
1573:.\Generated_Source\PSoC4/alex_BLE_eventHandler.c ****                 }
1574:.\Generated_Source\PSoC4/alex_BLE_eventHandler.c ****                 else /* Following event indicates that scanning has been stopped by stack */
1575:.\Generated_Source\PSoC4/alex_BLE_eventHandler.c ****                 {
1576:.\Generated_Source\PSoC4/alex_BLE_eventHandler.c ****                     if(CYBLE_STATE_SCANNING == CyBle_GetState())
1577:.\Generated_Source\PSoC4/alex_BLE_eventHandler.c ****                     {
1578:.\Generated_Source\PSoC4/alex_BLE_eventHandler.c ****                         CyBle_SetState(CYBLE_STATE_DISCONNECTED);  
1579:.\Generated_Source\PSoC4/alex_BLE_eventHandler.c ****                     #if ((CYBLE_SLOW_SCAN_ENABLED != 0u) && (CYBLE_FAST_SCAN_TIMEOUT != 0u))
1580:.\Generated_Source\PSoC4/alex_BLE_eventHandler.c ****                         if(cyBle_scanningIntervalType == CYBLE_SCANNING_FAST)
1581:.\Generated_Source\PSoC4/alex_BLE_eventHandler.c ****                         {
1582:.\Generated_Source\PSoC4/alex_BLE_eventHandler.c ****                             /* When fast scanning time out occur: Start slow scanning */
1583:.\Generated_Source\PSoC4/alex_BLE_eventHandler.c ****                             if(CYBLE_ERROR_OK == CyBle_GapcStartScan(CYBLE_SCANNING_SLOW))
1584:.\Generated_Source\PSoC4/alex_BLE_eventHandler.c ****                             {
1585:.\Generated_Source\PSoC4/alex_BLE_eventHandler.c ****                                 CyBle_SetState(CYBLE_STATE_SCANNING);
1586:.\Generated_Source\PSoC4/alex_BLE_eventHandler.c ****                             }
1587:.\Generated_Source\PSoC4/alex_BLE_eventHandler.c ****                         }
1588:.\Generated_Source\PSoC4/alex_BLE_eventHandler.c ****                     #endif /* CYBLE_SLOW_SCAN_ENABLED */
1589:.\Generated_Source\PSoC4/alex_BLE_eventHandler.c ****                     }
1590:.\Generated_Source\PSoC4/alex_BLE_eventHandler.c ****                 }
1591:.\Generated_Source\PSoC4/alex_BLE_eventHandler.c ****             }
1592:.\Generated_Source\PSoC4/alex_BLE_eventHandler.c ****             break;
1593:.\Generated_Source\PSoC4/alex_BLE_eventHandler.c ****         #endif /* CYBLE_GAP_ROLE_CENTRAL || CYBLE_GAP_ROLE_OBSERVER */
1594:.\Generated_Source\PSoC4/alex_BLE_eventHandler.c **** 
1595:.\Generated_Source\PSoC4/alex_BLE_eventHandler.c ****         /**********************************************************
1596:.\Generated_Source\PSoC4/alex_BLE_eventHandler.c ****         * L2AP events 
1597:.\Generated_Source\PSoC4/alex_BLE_eventHandler.c ****         ************************************************************/
1598:.\Generated_Source\PSoC4/alex_BLE_eventHandler.c ****         case CYBLE_EVT_L2CAP_CONN_PARAM_UPDATE_RSP:
1599:.\Generated_Source\PSoC4/alex_BLE_eventHandler.c ****             CyBle_L2Cap_ConnParamUpdateRspEventHandler(*(uint16 *)eventParam);
1600:.\Generated_Source\PSoC4/alex_BLE_eventHandler.c ****             break;
1601:.\Generated_Source\PSoC4/alex_BLE_eventHandler.c ****         
1602:.\Generated_Source\PSoC4/alex_BLE_eventHandler.c ****         /**********************************************************
1603:.\Generated_Source\PSoC4/alex_BLE_eventHandler.c ****         * GATT events
1604:.\Generated_Source\PSoC4/alex_BLE_eventHandler.c ****         ************************************************************/        
1605:.\Generated_Source\PSoC4/alex_BLE_eventHandler.c ****         case CYBLE_EVT_GATT_CONNECT_IND:
1606:.\Generated_Source\PSoC4/alex_BLE_eventHandler.c ****             cyBle_connHandle = *(CYBLE_CONN_HANDLE_T *)eventParam;
 469              		.loc 1 1606 0
 470 0126 224E     		ldr	r6, .L35+40
 471 0128 301C     		mov	r0, r6
 472              	.LVL35:
 473 012a 211C     		mov	r1, r4
 474 012c 0222     		mov	r2, #2
 475 012e FFF7FEFF 		bl	memcpy
 476              	.LVL36:
1607:.\Generated_Source\PSoC4/alex_BLE_eventHandler.c ****             
1608:.\Generated_Source\PSoC4/alex_BLE_eventHandler.c ****         #if((CYBLE_GATT_ROLE_SERVER) && (CYBLE_GATT_DB_CCCD_COUNT != 0u))
1609:.\Generated_Source\PSoC4/alex_BLE_eventHandler.c ****             /* Init CCCD values in RAM */
1610:.\Generated_Source\PSoC4/alex_BLE_eventHandler.c ****         	(void) memcpy (cyBle_attValuesCCCD, cyBle_flashStorage.attValuesCCCDFlashMemory[cyBle_conn
 477              		.loc 1 1610 0
 478 0132 3178     		ldrb	r1, [r6]
 479 0134 B431     		add	r1, r1, #180
 480 0136 4900     		lsl	r1, r1, #1
 481 0138 1E4B     		ldr	r3, .L35+44
 482 013a 5918     		add	r1, r3, r1
 483 013c 0531     		add	r1, r1, #5
 484 013e 1E48     		ldr	r0, .L35+48
 485 0140 0222     		mov	r2, #2
ARM GAS  C:\Users\a\AppData\Local\Temp\ccXpRoQY.s 			page 38


 486 0142 FFF7FEFF 		bl	memcpy
 487              	.LVL37:
1611:.\Generated_Source\PSoC4/alex_BLE_eventHandler.c ****                             CYBLE_GATT_DB_CCCD_COUNT);
1612:.\Generated_Source\PSoC4/alex_BLE_eventHandler.c ****         #endif /* CYBLE_GATT_ROLE_SERVER */
1613:.\Generated_Source\PSoC4/alex_BLE_eventHandler.c ****         
1614:.\Generated_Source\PSoC4/alex_BLE_eventHandler.c ****         #if (CYBLE_GATT_ROLE_CLIENT)
1615:.\Generated_Source\PSoC4/alex_BLE_eventHandler.c ****             CyBle_SetClientState(CYBLE_CLIENT_STATE_CONNECTED);
1616:.\Generated_Source\PSoC4/alex_BLE_eventHandler.c ****         #endif /* CYBLE_GATT_ROLE_CLIENT */
1617:.\Generated_Source\PSoC4/alex_BLE_eventHandler.c ****         
1618:.\Generated_Source\PSoC4/alex_BLE_eventHandler.c ****             CyBle_GattConnectReqHandler();
1619:.\Generated_Source\PSoC4/alex_BLE_eventHandler.c ****             break;
 488              		.loc 1 1619 0
 489 0146 0DE0     		b	.L16
 490              	.LVL38:
 491              	.L25:
1620:.\Generated_Source\PSoC4/alex_BLE_eventHandler.c **** 
1621:.\Generated_Source\PSoC4/alex_BLE_eventHandler.c ****         case CYBLE_EVT_GATT_DISCONNECT_IND:
1622:.\Generated_Source\PSoC4/alex_BLE_eventHandler.c ****             CyBle_GattDisconnectEventHandler();
 492              		.loc 1 1622 0
 493 0148 FFF7FEFF 		bl	CyBle_GattDisconnectEventHandler
 494              	.LVL39:
1623:.\Generated_Source\PSoC4/alex_BLE_eventHandler.c ****             break;
 495              		.loc 1 1623 0
 496 014c 0AE0     		b	.L16
 497              	.LVL40:
 498              	.L26:
 499              	.LBB4:
1624:.\Generated_Source\PSoC4/alex_BLE_eventHandler.c **** 
1625:.\Generated_Source\PSoC4/alex_BLE_eventHandler.c ****     #if((CYBLE_GATT_ROLE_SERVER) || (CYBLE_GATT_ROLE_CLIENT))
1626:.\Generated_Source\PSoC4/alex_BLE_eventHandler.c ****         case CYBLE_EVT_GATTS_XCNHG_MTU_REQ:
1627:.\Generated_Source\PSoC4/alex_BLE_eventHandler.c ****             {
1628:.\Generated_Source\PSoC4/alex_BLE_eventHandler.c ****                 uint16 cyBle_mtuSize;
1629:.\Generated_Source\PSoC4/alex_BLE_eventHandler.c ****                 if(CYBLE_GATT_MTU > ((CYBLE_GATT_XCHG_MTU_PARAM_T *)eventParam)->mtu)
 500              		.loc 1 1629 0
 501 014e 6188     		ldrh	r1, [r4, #2]
 502 0150 1629     		cmp	r1, #22
 503 0152 00D9     		bls	.L33
1630:.\Generated_Source\PSoC4/alex_BLE_eventHandler.c ****                 {
1631:.\Generated_Source\PSoC4/alex_BLE_eventHandler.c ****                     cyBle_mtuSize = ((CYBLE_GATT_XCHG_MTU_PARAM_T *)eventParam)->mtu;
1632:.\Generated_Source\PSoC4/alex_BLE_eventHandler.c ****                 }
1633:.\Generated_Source\PSoC4/alex_BLE_eventHandler.c ****                 else
1634:.\Generated_Source\PSoC4/alex_BLE_eventHandler.c ****                 {
1635:.\Generated_Source\PSoC4/alex_BLE_eventHandler.c ****                     cyBle_mtuSize = CYBLE_GATT_MTU;
 504              		.loc 1 1635 0
 505 0154 1721     		mov	r1, #23
 506              	.L33:
 507              	.LVL41:
1636:.\Generated_Source\PSoC4/alex_BLE_eventHandler.c ****                 }
1637:.\Generated_Source\PSoC4/alex_BLE_eventHandler.c ****                 (void)CyBle_GattsExchangeMtuRsp(((CYBLE_GATT_XCHG_MTU_PARAM_T *)eventParam)->connHa
 508              		.loc 1 1637 0
 509 0156 2088     		ldrh	r0, [r4]
 510              	.LVL42:
 511 0158 FFF7FEFF 		bl	CyBle_GattsExchangeMtuRsp
 512              	.LVL43:
 513              	.LBE4:
1638:.\Generated_Source\PSoC4/alex_BLE_eventHandler.c ****             }
1639:.\Generated_Source\PSoC4/alex_BLE_eventHandler.c ****             break;
ARM GAS  C:\Users\a\AppData\Local\Temp\ccXpRoQY.s 			page 39


 514              		.loc 1 1639 0
 515 015c 02E0     		b	.L16
 516              	.LVL44:
 517              	.L27:
1640:.\Generated_Source\PSoC4/alex_BLE_eventHandler.c ****     #endif /* CYBLE_GATT_ROLE_SERVER || CYBLE_GATT_ROLE_CLIENT */
1641:.\Generated_Source\PSoC4/alex_BLE_eventHandler.c ****     
1642:.\Generated_Source\PSoC4/alex_BLE_eventHandler.c ****     #if (CYBLE_GATT_ROLE_CLIENT)
1643:.\Generated_Source\PSoC4/alex_BLE_eventHandler.c ****         case CYBLE_EVT_GAPC_SCAN_PROGRESS_RESULT:
1644:.\Generated_Source\PSoC4/alex_BLE_eventHandler.c ****         #ifdef CYBLE_CPS_CLIENT
1645:.\Generated_Source\PSoC4/alex_BLE_eventHandler.c ****                 CyBle_CpscScanProcessEventHandler((CYBLE_GAPC_ADV_REPORT_T *)eventParam);
1646:.\Generated_Source\PSoC4/alex_BLE_eventHandler.c ****         #endif /* CYBLE_CPS_CLIENT */
1647:.\Generated_Source\PSoC4/alex_BLE_eventHandler.c ****             break;
1648:.\Generated_Source\PSoC4/alex_BLE_eventHandler.c ****     #endif /* CYBLE_GATT_ROLE_CLIENT */
1649:.\Generated_Source\PSoC4/alex_BLE_eventHandler.c **** 
1650:.\Generated_Source\PSoC4/alex_BLE_eventHandler.c ****     #if(CYBLE_GATT_ROLE_SERVER)
1651:.\Generated_Source\PSoC4/alex_BLE_eventHandler.c ****         case CYBLE_EVT_GATTS_WRITE_REQ:
1652:.\Generated_Source\PSoC4/alex_BLE_eventHandler.c ****             CyBle_WriteReqHandler((CYBLE_GATTS_WRITE_REQ_PARAM_T *)eventParam);
 518              		.loc 1 1652 0
 519 015e 201C     		mov	r0, r4
 520              	.LVL45:
 521 0160 FFF7FEFF 		bl	CyBle_WriteReqHandler
 522              	.LVL46:
 523              	.L16:
1653:.\Generated_Source\PSoC4/alex_BLE_eventHandler.c ****             break;
1654:.\Generated_Source\PSoC4/alex_BLE_eventHandler.c **** 
1655:.\Generated_Source\PSoC4/alex_BLE_eventHandler.c ****         case CYBLE_EVT_GATTS_WRITE_CMD_REQ:
1656:.\Generated_Source\PSoC4/alex_BLE_eventHandler.c ****         #ifdef CYBLE_IAS_SERVER
1657:.\Generated_Source\PSoC4/alex_BLE_eventHandler.c ****             if((cyBle_eventHandlerFlag & CYBLE_CALLBACK) != 0u)
1658:.\Generated_Source\PSoC4/alex_BLE_eventHandler.c ****             {
1659:.\Generated_Source\PSoC4/alex_BLE_eventHandler.c ****                 (void)CyBle_IassWriteCmdEventHandler((CYBLE_GATTS_WRITE_REQ_PARAM_T *)eventParam);
1660:.\Generated_Source\PSoC4/alex_BLE_eventHandler.c ****             }
1661:.\Generated_Source\PSoC4/alex_BLE_eventHandler.c ****         #endif /* CYBLE_IAS_SERVER */
1662:.\Generated_Source\PSoC4/alex_BLE_eventHandler.c ****         #ifdef CYBLE_HIDS_SERVER
1663:.\Generated_Source\PSoC4/alex_BLE_eventHandler.c ****             if((cyBle_eventHandlerFlag & CYBLE_CALLBACK) != 0u)
1664:.\Generated_Source\PSoC4/alex_BLE_eventHandler.c ****             {
1665:.\Generated_Source\PSoC4/alex_BLE_eventHandler.c ****                 (void)CyBle_HidssWriteEventHandler((CYBLE_GATTS_WRITE_REQ_PARAM_T *)eventParam);
1666:.\Generated_Source\PSoC4/alex_BLE_eventHandler.c ****             }
1667:.\Generated_Source\PSoC4/alex_BLE_eventHandler.c ****         #endif /* CYBLE_HIDS_SERVER */
1668:.\Generated_Source\PSoC4/alex_BLE_eventHandler.c ****         #ifdef CYBLE_PASS_SERVER
1669:.\Generated_Source\PSoC4/alex_BLE_eventHandler.c ****             if((cyBle_eventHandlerFlag & CYBLE_CALLBACK) != 0u)
1670:.\Generated_Source\PSoC4/alex_BLE_eventHandler.c ****             {
1671:.\Generated_Source\PSoC4/alex_BLE_eventHandler.c ****                 (void)CyBle_PasssWriteCmdEventHandler((CYBLE_GATTS_WRITE_REQ_PARAM_T *)eventParam);
1672:.\Generated_Source\PSoC4/alex_BLE_eventHandler.c ****             }
1673:.\Generated_Source\PSoC4/alex_BLE_eventHandler.c ****         #endif /* CYBLE_PASS_SERVER */
1674:.\Generated_Source\PSoC4/alex_BLE_eventHandler.c ****         #ifdef CYBLE_RTUS_SERVER
1675:.\Generated_Source\PSoC4/alex_BLE_eventHandler.c ****             if((cyBle_eventHandlerFlag & CYBLE_CALLBACK) != 0u)
1676:.\Generated_Source\PSoC4/alex_BLE_eventHandler.c ****             {
1677:.\Generated_Source\PSoC4/alex_BLE_eventHandler.c ****                 (void)CyBle_RtussWriteCmdEventHandler((CYBLE_GATTS_WRITE_REQ_PARAM_T *)eventParam);
1678:.\Generated_Source\PSoC4/alex_BLE_eventHandler.c ****             }
1679:.\Generated_Source\PSoC4/alex_BLE_eventHandler.c ****         #endif /* CYBLE_RTUS_SERVER */
1680:.\Generated_Source\PSoC4/alex_BLE_eventHandler.c ****         #ifdef CYBLE_SCPS_SERVER
1681:.\Generated_Source\PSoC4/alex_BLE_eventHandler.c ****             if((cyBle_eventHandlerFlag & CYBLE_CALLBACK) != 0u)
1682:.\Generated_Source\PSoC4/alex_BLE_eventHandler.c ****             {
1683:.\Generated_Source\PSoC4/alex_BLE_eventHandler.c ****                 (void)CyBle_ScpssWriteEventHandler((CYBLE_GATTS_WRITE_REQ_PARAM_T *)eventParam);
1684:.\Generated_Source\PSoC4/alex_BLE_eventHandler.c ****             }
1685:.\Generated_Source\PSoC4/alex_BLE_eventHandler.c ****         #endif /* CYBLE_SCPS_SERVER */
1686:.\Generated_Source\PSoC4/alex_BLE_eventHandler.c ****             break;
ARM GAS  C:\Users\a\AppData\Local\Temp\ccXpRoQY.s 			page 40


1687:.\Generated_Source\PSoC4/alex_BLE_eventHandler.c ****         
1688:.\Generated_Source\PSoC4/alex_BLE_eventHandler.c ****         case CYBLE_EVT_GATTS_PREP_WRITE_REQ:
1689:.\Generated_Source\PSoC4/alex_BLE_eventHandler.c ****         #ifdef CYBLE_BMS_SERVER
1690:.\Generated_Source\PSoC4/alex_BLE_eventHandler.c ****             CyBle_BmssPrepareWriteRequestEventHandler((CYBLE_GATTS_PREP_WRITE_REQ_PARAM_T *)eventPa
1691:.\Generated_Source\PSoC4/alex_BLE_eventHandler.c ****         #endif /* CYBLE_BMS_SERVER */
1692:.\Generated_Source\PSoC4/alex_BLE_eventHandler.c ****         #ifdef CYBLE_BTS_SERVER
1693:.\Generated_Source\PSoC4/alex_BLE_eventHandler.c ****             if((cyBle_eventHandlerFlag & CYBLE_CALLBACK) != 0u)
1694:.\Generated_Source\PSoC4/alex_BLE_eventHandler.c ****             {
1695:.\Generated_Source\PSoC4/alex_BLE_eventHandler.c ****                 CyBle_BtssPrepareWriteRequestEventHandler((CYBLE_GATTS_PREP_WRITE_REQ_PARAM_T *)eve
1696:.\Generated_Source\PSoC4/alex_BLE_eventHandler.c ****             }
1697:.\Generated_Source\PSoC4/alex_BLE_eventHandler.c ****         #endif /* CYBLE_BTS_SERVER */
1698:.\Generated_Source\PSoC4/alex_BLE_eventHandler.c ****         #ifdef CYBLE_ESS_SERVER
1699:.\Generated_Source\PSoC4/alex_BLE_eventHandler.c ****             if((cyBle_eventHandlerFlag & CYBLE_CALLBACK) != 0u)
1700:.\Generated_Source\PSoC4/alex_BLE_eventHandler.c ****             {
1701:.\Generated_Source\PSoC4/alex_BLE_eventHandler.c ****                 CyBle_EsssPrepareWriteRequestEventHandler((CYBLE_GATTS_PREP_WRITE_REQ_PARAM_T *)eve
1702:.\Generated_Source\PSoC4/alex_BLE_eventHandler.c ****             }
1703:.\Generated_Source\PSoC4/alex_BLE_eventHandler.c ****         #endif /* CYBLE_ESS_SERVER */
1704:.\Generated_Source\PSoC4/alex_BLE_eventHandler.c **** 		#ifdef CYBLE_UDS_SERVER
1705:.\Generated_Source\PSoC4/alex_BLE_eventHandler.c ****             if((cyBle_eventHandlerFlag & CYBLE_CALLBACK) != 0u)
1706:.\Generated_Source\PSoC4/alex_BLE_eventHandler.c ****             {
1707:.\Generated_Source\PSoC4/alex_BLE_eventHandler.c ****                 CyBle_UdssPrepareWriteRequestEventHandler((CYBLE_GATTS_PREP_WRITE_REQ_PARAM_T *)eve
1708:.\Generated_Source\PSoC4/alex_BLE_eventHandler.c ****             }
1709:.\Generated_Source\PSoC4/alex_BLE_eventHandler.c ****         #endif /* CYBLE_UDS_SERVER */
1710:.\Generated_Source\PSoC4/alex_BLE_eventHandler.c ****             break;
1711:.\Generated_Source\PSoC4/alex_BLE_eventHandler.c **** 
1712:.\Generated_Source\PSoC4/alex_BLE_eventHandler.c ****         case CYBLE_EVT_GATTS_EXEC_WRITE_REQ:
1713:.\Generated_Source\PSoC4/alex_BLE_eventHandler.c ****         #ifdef CYBLE_BMS_SERVER
1714:.\Generated_Source\PSoC4/alex_BLE_eventHandler.c ****             CyBle_BmssExecuteWriteRequestEventHandler((CYBLE_GATTS_EXEC_WRITE_REQ_T *)eventParam);
1715:.\Generated_Source\PSoC4/alex_BLE_eventHandler.c ****         #endif /* CYBLE_BMS_SERVER */
1716:.\Generated_Source\PSoC4/alex_BLE_eventHandler.c ****         #ifdef CYBLE_BTS_SERVER
1717:.\Generated_Source\PSoC4/alex_BLE_eventHandler.c ****             CyBle_BtssExecuteWriteRequestEventHandler((CYBLE_GATTS_EXEC_WRITE_REQ_T *)eventParam);
1718:.\Generated_Source\PSoC4/alex_BLE_eventHandler.c ****         #endif /* CYBLE_BTS_SERVER */
1719:.\Generated_Source\PSoC4/alex_BLE_eventHandler.c ****         #ifdef CYBLE_ESS_SERVER
1720:.\Generated_Source\PSoC4/alex_BLE_eventHandler.c ****             CyBle_EsssExecuteWriteRequestEventHandler((CYBLE_GATTS_EXEC_WRITE_REQ_T *)eventParam);
1721:.\Generated_Source\PSoC4/alex_BLE_eventHandler.c ****         #endif /* CYBLE_ESS_SERVER */
1722:.\Generated_Source\PSoC4/alex_BLE_eventHandler.c **** 		#ifdef CYBLE_UDS_SERVER
1723:.\Generated_Source\PSoC4/alex_BLE_eventHandler.c ****             CyBle_UdssExecuteWriteRequestEventHandler((CYBLE_GATTS_EXEC_WRITE_REQ_T *)eventParam);
1724:.\Generated_Source\PSoC4/alex_BLE_eventHandler.c ****         #endif /* CYBLE_UDS_SERVER */
1725:.\Generated_Source\PSoC4/alex_BLE_eventHandler.c ****             break;
1726:.\Generated_Source\PSoC4/alex_BLE_eventHandler.c ****         
1727:.\Generated_Source\PSoC4/alex_BLE_eventHandler.c ****         case CYBLE_EVT_GATTS_HANDLE_VALUE_CNF:
1728:.\Generated_Source\PSoC4/alex_BLE_eventHandler.c ****             CyBle_ValueConfirmation((CYBLE_CONN_HANDLE_T *)eventParam);
1729:.\Generated_Source\PSoC4/alex_BLE_eventHandler.c ****             break;
1730:.\Generated_Source\PSoC4/alex_BLE_eventHandler.c ****             
1731:.\Generated_Source\PSoC4/alex_BLE_eventHandler.c ****         case CYBLE_EVT_GATTS_READ_CHAR_VAL_ACCESS_REQ:
1732:.\Generated_Source\PSoC4/alex_BLE_eventHandler.c ****         #ifdef CYBLE_UDS_SERVER
1733:.\Generated_Source\PSoC4/alex_BLE_eventHandler.c ****             CyBle_UdssReadRequestEventHandler((CYBLE_GATTS_CHAR_VAL_READ_REQ_T *)eventParam);
1734:.\Generated_Source\PSoC4/alex_BLE_eventHandler.c ****         #endif /* CYBLE_UDS_SERVER */
1735:.\Generated_Source\PSoC4/alex_BLE_eventHandler.c ****             break;
1736:.\Generated_Source\PSoC4/alex_BLE_eventHandler.c ****             
1737:.\Generated_Source\PSoC4/alex_BLE_eventHandler.c ****     #endif /* CYBLE_GATT_ROLE_SERVER */
1738:.\Generated_Source\PSoC4/alex_BLE_eventHandler.c **** 
1739:.\Generated_Source\PSoC4/alex_BLE_eventHandler.c ****     #if (CYBLE_GATT_ROLE_CLIENT)
1740:.\Generated_Source\PSoC4/alex_BLE_eventHandler.c ****         
1741:.\Generated_Source\PSoC4/alex_BLE_eventHandler.c ****         case CYBLE_EVT_GATTC_READ_BY_GROUP_TYPE_RSP:
1742:.\Generated_Source\PSoC4/alex_BLE_eventHandler.c ****             CyBle_ReadByGroupEventHandler((CYBLE_GATTC_READ_BY_GRP_RSP_PARAM_T *)eventParam);
1743:.\Generated_Source\PSoC4/alex_BLE_eventHandler.c ****             break;
ARM GAS  C:\Users\a\AppData\Local\Temp\ccXpRoQY.s 			page 41


1744:.\Generated_Source\PSoC4/alex_BLE_eventHandler.c **** 
1745:.\Generated_Source\PSoC4/alex_BLE_eventHandler.c ****         case CYBLE_EVT_GATTC_READ_BY_TYPE_RSP:
1746:.\Generated_Source\PSoC4/alex_BLE_eventHandler.c ****             CyBle_ReadByTypeEventHandler((CYBLE_GATTC_READ_BY_TYPE_RSP_PARAM_T *)eventParam);
1747:.\Generated_Source\PSoC4/alex_BLE_eventHandler.c ****             break;
1748:.\Generated_Source\PSoC4/alex_BLE_eventHandler.c **** 
1749:.\Generated_Source\PSoC4/alex_BLE_eventHandler.c ****         case CYBLE_EVT_GATTC_READ_BLOB_RSP:
1750:.\Generated_Source\PSoC4/alex_BLE_eventHandler.c ****         #ifdef CYBLE_ESS_CLIENT
1751:.\Generated_Source\PSoC4/alex_BLE_eventHandler.c ****             CyBle_EsscReadLongRespEventHandler((CYBLE_GATTC_READ_RSP_PARAM_T *)eventParam);
1752:.\Generated_Source\PSoC4/alex_BLE_eventHandler.c ****         #endif /* CYBLE_ESS_CLIENT */
1753:.\Generated_Source\PSoC4/alex_BLE_eventHandler.c ****         #ifdef CYBLE_UDS_CLIENT
1754:.\Generated_Source\PSoC4/alex_BLE_eventHandler.c ****             if((cyBle_eventHandlerFlag & CYBLE_CALLBACK) != 0u)
1755:.\Generated_Source\PSoC4/alex_BLE_eventHandler.c ****             {
1756:.\Generated_Source\PSoC4/alex_BLE_eventHandler.c ****                 CyBle_UdscReadLongRespEventHandler((CYBLE_GATTC_READ_RSP_PARAM_T *)eventParam);
1757:.\Generated_Source\PSoC4/alex_BLE_eventHandler.c ****             }
1758:.\Generated_Source\PSoC4/alex_BLE_eventHandler.c ****         #endif /* CYBLE_UDS_CLIENT */
1759:.\Generated_Source\PSoC4/alex_BLE_eventHandler.c ****             break;
1760:.\Generated_Source\PSoC4/alex_BLE_eventHandler.c ****         
1761:.\Generated_Source\PSoC4/alex_BLE_eventHandler.c ****         case CYBLE_EVT_GATTC_FIND_INFO_RSP:
1762:.\Generated_Source\PSoC4/alex_BLE_eventHandler.c ****             CyBle_FindInfoEventHandler((CYBLE_GATTC_FIND_INFO_RSP_PARAM_T *)eventParam);
1763:.\Generated_Source\PSoC4/alex_BLE_eventHandler.c ****             break;
1764:.\Generated_Source\PSoC4/alex_BLE_eventHandler.c **** 
1765:.\Generated_Source\PSoC4/alex_BLE_eventHandler.c ****         case CYBLE_EVT_GATTC_ERROR_RSP:
1766:.\Generated_Source\PSoC4/alex_BLE_eventHandler.c ****             CyBle_ErrorResponseEventHandler((CYBLE_GATTC_ERR_RSP_PARAM_T *)eventParam);
1767:.\Generated_Source\PSoC4/alex_BLE_eventHandler.c ****             break;
1768:.\Generated_Source\PSoC4/alex_BLE_eventHandler.c **** 
1769:.\Generated_Source\PSoC4/alex_BLE_eventHandler.c ****         case CYBLE_EVT_GATTC_HANDLE_VALUE_NTF:
1770:.\Generated_Source\PSoC4/alex_BLE_eventHandler.c ****             CyBle_NotificationEventHandler((CYBLE_GATTC_HANDLE_VALUE_NTF_PARAM_T *)eventParam);
1771:.\Generated_Source\PSoC4/alex_BLE_eventHandler.c ****             break;
1772:.\Generated_Source\PSoC4/alex_BLE_eventHandler.c **** 
1773:.\Generated_Source\PSoC4/alex_BLE_eventHandler.c ****         case CYBLE_EVT_GATTC_HANDLE_VALUE_IND:
1774:.\Generated_Source\PSoC4/alex_BLE_eventHandler.c ****             CyBle_GattcIndicationEventHandler((CYBLE_GATTC_HANDLE_VALUE_IND_PARAM_T *)eventParam);
1775:.\Generated_Source\PSoC4/alex_BLE_eventHandler.c ****             CyBle_IndicationEventHandler((CYBLE_GATTC_HANDLE_VALUE_IND_PARAM_T *)eventParam);
1776:.\Generated_Source\PSoC4/alex_BLE_eventHandler.c ****         
1777:.\Generated_Source\PSoC4/alex_BLE_eventHandler.c ****             /* Respond with a Handle Value Confirmation when request handled */
1778:.\Generated_Source\PSoC4/alex_BLE_eventHandler.c ****             if((cyBle_eventHandlerFlag & CYBLE_CALLBACK) == 0u)
1779:.\Generated_Source\PSoC4/alex_BLE_eventHandler.c ****             {
1780:.\Generated_Source\PSoC4/alex_BLE_eventHandler.c ****                 (void)CyBle_GattcConfirmation(((CYBLE_GATTC_HANDLE_VALUE_IND_PARAM_T *)eventParam)-
1781:.\Generated_Source\PSoC4/alex_BLE_eventHandler.c ****             }
1782:.\Generated_Source\PSoC4/alex_BLE_eventHandler.c ****             break;
1783:.\Generated_Source\PSoC4/alex_BLE_eventHandler.c ****         
1784:.\Generated_Source\PSoC4/alex_BLE_eventHandler.c ****         case CYBLE_EVT_GATTC_READ_RSP:
1785:.\Generated_Source\PSoC4/alex_BLE_eventHandler.c ****             CyBle_ReadResponseEventHandler((CYBLE_GATTC_READ_RSP_PARAM_T *)eventParam);
1786:.\Generated_Source\PSoC4/alex_BLE_eventHandler.c ****             break;
1787:.\Generated_Source\PSoC4/alex_BLE_eventHandler.c **** 
1788:.\Generated_Source\PSoC4/alex_BLE_eventHandler.c ****         case CYBLE_EVT_GATTC_WRITE_RSP:
1789:.\Generated_Source\PSoC4/alex_BLE_eventHandler.c ****             CyBle_GattcWriteResponseEventHandler((CYBLE_CONN_HANDLE_T *)eventParam);
1790:.\Generated_Source\PSoC4/alex_BLE_eventHandler.c ****             break;
1791:.\Generated_Source\PSoC4/alex_BLE_eventHandler.c ****             
1792:.\Generated_Source\PSoC4/alex_BLE_eventHandler.c ****         case CYBLE_EVT_GATTC_EXEC_WRITE_RSP:
1793:.\Generated_Source\PSoC4/alex_BLE_eventHandler.c ****         #ifdef CYBLE_BMS_CLIENT
1794:.\Generated_Source\PSoC4/alex_BLE_eventHandler.c ****             CyBle_BmscExecuteWriteResponseEventHandler((CYBLE_GATTC_EXEC_WRITE_RSP_T *)eventParam);
1795:.\Generated_Source\PSoC4/alex_BLE_eventHandler.c ****         #endif /* CYBLE_BMS_CLIENT */
1796:.\Generated_Source\PSoC4/alex_BLE_eventHandler.c ****         #ifdef CYBLE_ESS_CLIENT
1797:.\Generated_Source\PSoC4/alex_BLE_eventHandler.c ****             if((cyBle_eventHandlerFlag & CYBLE_CALLBACK) != 0u)
1798:.\Generated_Source\PSoC4/alex_BLE_eventHandler.c ****             {
1799:.\Generated_Source\PSoC4/alex_BLE_eventHandler.c ****                 CyBle_EsscExecuteWriteResponseEventHandler((CYBLE_GATTC_EXEC_WRITE_RSP_T *)eventPar
1800:.\Generated_Source\PSoC4/alex_BLE_eventHandler.c ****             }
ARM GAS  C:\Users\a\AppData\Local\Temp\ccXpRoQY.s 			page 42


1801:.\Generated_Source\PSoC4/alex_BLE_eventHandler.c ****         #endif /* CYBLE_ESS_CLIENT */
1802:.\Generated_Source\PSoC4/alex_BLE_eventHandler.c ****         #ifdef CYBLE_UDS_CLIENT
1803:.\Generated_Source\PSoC4/alex_BLE_eventHandler.c ****             if((cyBle_eventHandlerFlag & CYBLE_CALLBACK) != 0u)
1804:.\Generated_Source\PSoC4/alex_BLE_eventHandler.c ****             {
1805:.\Generated_Source\PSoC4/alex_BLE_eventHandler.c ****                 CyBle_UdscExecuteWriteResponseEventHandler((CYBLE_GATTC_EXEC_WRITE_RSP_T *)eventPar
1806:.\Generated_Source\PSoC4/alex_BLE_eventHandler.c ****             }
1807:.\Generated_Source\PSoC4/alex_BLE_eventHandler.c ****         #endif /* CYBLE_UDS_CLIENT */
1808:.\Generated_Source\PSoC4/alex_BLE_eventHandler.c ****             break;
1809:.\Generated_Source\PSoC4/alex_BLE_eventHandler.c ****             
1810:.\Generated_Source\PSoC4/alex_BLE_eventHandler.c ****     #endif /* CYBLE_GATT_ROLE_CLIENT */
1811:.\Generated_Source\PSoC4/alex_BLE_eventHandler.c **** 
1812:.\Generated_Source\PSoC4/alex_BLE_eventHandler.c ****     #if((CYBLE_GAP_ROLE_PERIPHERAL || CYBLE_GAP_ROLE_CENTRAL) && (CYBLE_BONDING_REQUIREMENT == CYBL
1813:.\Generated_Source\PSoC4/alex_BLE_eventHandler.c **** 
1814:.\Generated_Source\PSoC4/alex_BLE_eventHandler.c ****         case CYBLE_EVT_PENDING_FLASH_WRITE:
1815:.\Generated_Source\PSoC4/alex_BLE_eventHandler.c ****             cyBle_pendingFlashWrite |= CYBLE_PENDING_STACK_FLASH_WRITE_BIT;
1816:.\Generated_Source\PSoC4/alex_BLE_eventHandler.c ****             break;
1817:.\Generated_Source\PSoC4/alex_BLE_eventHandler.c ****         
1818:.\Generated_Source\PSoC4/alex_BLE_eventHandler.c ****     #endif  /* (CYBLE_BONDING_REQUIREMENT == CYBLE_BONDING_YES) */
1819:.\Generated_Source\PSoC4/alex_BLE_eventHandler.c ****     
1820:.\Generated_Source\PSoC4/alex_BLE_eventHandler.c ****         default:
1821:.\Generated_Source\PSoC4/alex_BLE_eventHandler.c ****             break;
1822:.\Generated_Source\PSoC4/alex_BLE_eventHandler.c ****     }
1823:.\Generated_Source\PSoC4/alex_BLE_eventHandler.c **** 
1824:.\Generated_Source\PSoC4/alex_BLE_eventHandler.c ****     if(0u != (cyBle_eventHandlerFlag & (CYBLE_CALLBACK | CYBLE_ENABLE_ALL_EVENTS))) 
 524              		.loc 1 1824 0
 525 0164 084B     		ldr	r3, .L35
 526 0166 1A78     		ldrb	r2, [r3]
 527 0168 1123     		mov	r3, #17
 528 016a 1A42     		tst	r2, r3
 529 016c 09D0     		beq	.L15
1825:.\Generated_Source\PSoC4/alex_BLE_eventHandler.c ****     {
1826:.\Generated_Source\PSoC4/alex_BLE_eventHandler.c ****         cyBle_eventHandlerFlag &= (uint8)~CYBLE_CALLBACK;
 530              		.loc 1 1826 0
 531 016e 064A     		ldr	r2, .L35
 532 0170 1378     		ldrb	r3, [r2]
 533 0172 0121     		mov	r1, #1
 534 0174 8B43     		bic	r3, r1
 535 0176 1370     		strb	r3, [r2]
1827:.\Generated_Source\PSoC4/alex_BLE_eventHandler.c ****         CyBle_ApplCallback((uint32)eventCode, eventParam);
 536              		.loc 1 1827 0
 537 0178 104B     		ldr	r3, .L35+52
 538 017a 1B68     		ldr	r3, [r3]
 539 017c 281C     		mov	r0, r5
 540 017e 211C     		mov	r1, r4
 541 0180 9847     		blx	r3
 542              	.LVL47:
 543              	.L15:
1828:.\Generated_Source\PSoC4/alex_BLE_eventHandler.c ****     }
1829:.\Generated_Source\PSoC4/alex_BLE_eventHandler.c **** }
 544              		.loc 1 1829 0
 545 0182 03B0     		add	sp, sp, #12
 546              		@ sp needed
 547              	.LVL48:
 548 0184 F0BD     		pop	{r4, r5, r6, r7, pc}
 549              	.L36:
 550 0186 C046     		.align	2
 551              	.L35:
ARM GAS  C:\Users\a\AppData\Local\Temp\ccXpRoQY.s 			page 43


 552 0188 00000000 		.word	cyBle_eventHandlerFlag
 553 018c 00000000 		.word	.L18
 554 0190 00000000 		.word	cyBle_sflashDeviceAddress
 555 0194 7CF1FF0F 		.word	268431740
 556 0198 00000000 		.word	cyBle_deviceAddress
 557 019c 7DF1FF0F 		.word	268431741
 558 01a0 7BF1FF0F 		.word	268431739
 559 01a4 00000000 		.word	cyBle_state
 560 01a8 00000000 		.word	cyBle_busyStatus
 561 01ac 00000000 		.word	.LANCHOR0
 562 01b0 00000000 		.word	cyBle_connHandle
 563 01b4 00000000 		.word	cyBle_flashStorage
 564 01b8 00000000 		.word	cyBle_attValuesCCCD
 565 01bc 00000000 		.word	CyBle_ApplCallback
 566              		.cfi_endproc
 567              	.LFE10:
 568              		.size	CyBle_EventHandler, .-CyBle_EventHandler
 569              		.global	cyBle_authInfo
 570              		.comm	cyBle_advertisingIntervalType,1,1
 571              		.comm	cyBle_busyStatus,1,1
 572              		.comm	cyBle_eventHandlerFlag,1,1
 573              		.comm	cyBle_connHandle,2,4
 574              		.data
 575              		.align	2
 576              		.set	.LANCHOR0,. + 0
 577              		.type	cyBle_authInfo, %object
 578              		.size	cyBle_authInfo, 4
 579              	cyBle_authInfo:
 580 0000 10       		.byte	16
 581 0001 00       		.byte	0
 582 0002 10       		.byte	16
 583 0003 00       		.byte	0
 584              		.text
 585              	.Letext0:
 586              		.file 2 ".\\Generated_Source\\PSoC4\\cytypes.h"
 587              		.file 3 ".\\Generated_Source\\PSoC4\\alex_BLE_Stack.h"
 588              		.file 4 ".\\Generated_Source\\PSoC4\\alex_BLE_StackHostMain.h"
 589              		.file 5 ".\\Generated_Source\\PSoC4\\alex_BLE_StackGap.h"
 590              		.file 6 ".\\Generated_Source\\PSoC4\\alex_BLE_StackGatt.h"
 591              		.file 7 ".\\Generated_Source\\PSoC4\\alex_BLE_StackGattServer.h"
 592              		.file 8 ".\\Generated_Source\\PSoC4\\alex_BLE.h"
