ARM GAS  C:\Users\a\AppData\Local\Temp\ccoBASTh.s 			page 1


   1              		.cpu cortex-m0
   2              		.fpu softvfp
   3              		.eabi_attribute 20, 1
   4              		.eabi_attribute 21, 1
   5              		.eabi_attribute 23, 3
   6              		.eabi_attribute 24, 1
   7              		.eabi_attribute 25, 1
   8              		.eabi_attribute 26, 1
   9              		.eabi_attribute 30, 1
  10              		.eabi_attribute 34, 0
  11              		.eabi_attribute 18, 4
  12              		.code	16
  13              		.file	"cymetadata.c"
  14              		.text
  15              	.Ltext0:
  16              		.cfi_sections	.debug_frame
  17              		.global	cy_meta_chipprotect
  18              		.global	cy_metadata
  19              		.global	cy_meta_flashprotect
  20              		.section	.cychipprotect,"a",%progbits
  21              		.align	2
  22              		.type	cy_meta_chipprotect, %object
  23              		.size	cy_meta_chipprotect, 1
  24              	cy_meta_chipprotect:
  25 0000 01       		.byte	1
  26 0001 000000   		.section	.cymeta,"a",%progbits
  27              		.align	2
  28              		.type	cy_metadata, %object
  29              		.size	cy_metadata, 12
  30              	cy_metadata:
  31 0000 00       		.byte	0
  32 0001 02       		.byte	2
  33 0002 0E       		.byte	14
  34 0003 34       		.byte	52
  35 0004 11       		.byte	17
  36 0005 9E       		.byte	-98
  37 0006 00       		.byte	0
  38 0007 01       		.byte	1
  39 0008 00       		.byte	0
  40 0009 00       		.byte	0
  41 000a 00       		.byte	0
  42 000b 00       		.byte	0
  43              		.section	.cyflashprotect,"a",%progbits
  44              		.align	2
  45              		.type	cy_meta_flashprotect, %object
  46              		.size	cy_meta_flashprotect, 128
  47              	cy_meta_flashprotect:
  48 0000 00000000 		.space	128
  48      00000000 
  48      00000000 
  48      00000000 
  48      00000000 
  49              		.text
  50              	.Letext0:
  51              		.file 1 ".\\Generated_Source\\PSoC4\\cymetadata.c"
  52              		.file 2 ".\\Generated_Source\\PSoC4\\cytypes.h"
